:020000040800F2
:1000000000000120D935000801350008FD0700086F
:10001000FD340008C1070008253900080000000071
:10002000000000000000000000000000E1350008B2
:10003000C5070008000000006935000861370008A6
:10004000C9070008C9070008C9070008C907000850
:10005000C9070008C9070008C9070008C907000840
:10006000C9070008C9070008C9070008C907000830
:10007000C9070008C9070008C9070008C907000820
:10008000C9070008C9070008C9070008C907000810
:10009000C9070008C9070008C9070008C907000800
:1000A000C9070008C9070008C9070008C9070008F0
:1000B000C9070008C9070008C9070008C9070008E0
:1000C000C9070008C9070008C9070008C9070008D0
:1000D000C9070008C9070008C9070008C9070008C0
:1000E000C9070008C9070008C9070008C9070008B0
:1000F000C9070008C9070008C9070008C9070008A0
:10010000C9070008C9070008C9070008C90700088F
:10011000C9070008C9070008FD050010C907000845
:10012000C9070008C9070008C9070008C90700086F
:10013000C9070008C9070008C9070008F105001031
:1001400049030010C9070008C9070008C9070008CB
:10015000C9070008BD070008C9070008C90700084B
:10016000C9070008C9070008C9070008C90700082F
:10017000C9070008C9070008C9070008C90700081F
:10018000C9070008C9070008C9070008C90700080F
:10019000C9070008C9070008C9070008C9070008FF
:1001A000DFF80CD000F0F2FA00480047D93F000811
:1001B00000000120D2B201E000F8012B491EFBD261
:1001C00070470022F6E710B513460A460446194662
:1001D000FFF7F0FF204610BD2DE9FE4F804681EA73
:1001E0000300C00F0C46009021F0004123F00045B1
:1001F000B8EB0200A94105D24046214690461C4674
:100200000B46024623F00040104347D0270DC7F3AA
:100210000A00C3F30A510290401A019040286BDA99
:10022000C3F3130040F4801B0098924620B10023D2
:10023000D2EB030A63EB0B0B01985946C0F1400265
:10024000504600F0DDF906460D4650465946019AE3
:1002500000F0F5F910EB08006141002487EA115223
:1002600084EAE7731A4340D0009A62B3019A012AE4
:100270004FEA075215DC001B61EB02014FF0004210
:1002800002EA0752CDE90042001C41F580113246D6
:100290002B4600F02CFA03B0BDE8F08F4046214613
:1002A000F9E7001B61EB0201001C41F58013001807
:1002B0005B412018A2F5001747EB030140EAD57017
:1002C000B6196D4111E06D084FEA360645EAC07572
:1002D0004FEA0752001B61EB0201001C41F580113F
:1002E00049084FEA30000019514132462B4603B00D
:1002F000BDE8F04F00F0ECB9009801224000002367
:10030000D0EB020263EBE073009821464FEAE07401
:10031000B8EB000061EB0401E9E783F000435BE721
:1003200081F0004158E72DE9FE4F81EA030404F013
:10033000004421F0004100944FF0000B23F00043F3
:1003400050EA01045ED052EA03045BD0C3F30A54BE
:10035000C1F30A552C44A4F2F3340194A0FB0254D7
:10036000C1F3130141F48011C3F3130343F4801369
:1003700001FB024400FB034E840A970A44EA8154BD
:1003800047EA8357A4FB076802958D0A05FB07859A
:100390004FEA932C04FB0C542705029D4FEA0658A4
:1003A00047EA1637B5EB08056EEB070C870E920E81
:1003B00047EA811742EA8312A7FB0201B6EB0B0161
:1003C00064EB00042B0D43EA0C335E1844EB1C5025
:1003D000DA465146E7FB0201C5F313044FEA0B333B
:1003E00043EA14534FEA0432019C43EA0603A4F1A2
:1003F0000C040294009CCDE900B400F078F903B03D
:10040000BDE8F08F00200146F9E72DE9F04D81EAC3
:10041000030404F0004B21F0004514464FF0000A9D
:1004200023F0004150EA050220D054EA01021DD019
:10043000C5F30A570246C5F31303C1F31300C1F312
:100440000A5640F4801543F48013A7EB0608101BEE
:10045000D64608F2FD3873EB050002D308F1010817
:1004600001E092185B41B8F1000F03DA0020014669
:10047000BDE8F08D00204FF48011064684460EE062
:10048000171B73EB050705D3121B63EB050306432C
:100490004CEA010C49084FEA300092185B4150EADF
:1004A0000107EDD152EA030012D082EA040083EA88
:1004B0000501084305D0101BAB4106D201220023E1
:1004C00006E000224FF0004302E06FF001025310FB
:1004D0001AEB06004CEB085110EB0A0041EB0B0144
:1004E000BDE8F04D00F0F4B80EB540F23341029192
:1004F0000021CDE900110A460B4600F0F8F803B0E0
:1005000000BD70B5C1F30A5201F000450024C1F3EB
:10051000130140F2FF3341F480119A4201DA0020C6
:1005200070BD40F233439A42A2F2334203DC52429E
:1005300000F075F800E090402C43F1D0404270BDCF
:1005400000F0004230F000400AD0C10D01F56071AA
:10055000C0F3160042EA0151C20840071143704738
:1005600000200146704701F0004330B421F0004103
:1005700050EA010206D00A0DA2F56072C1F3130120
:10058000002A02DC30BC00207047440F44EAC1045A
:10059000C100E01830BC00EBC25000F062B82DE999
:1005A000F05F0546002092469B46884606468146F7
:1005B00040241BE0284641464746224600F02FF8DB
:1005C00053465A46C01A914110D311461846224646
:1005D00000F016F82D1A67EB01084F46224601205D
:1005E000002100F00DF817EB00094E41201EA4F188
:1005F0000104DFDC484631462A464346BDE8F09F09
:10060000202A04DB203A00FA02F1002070479140D2
:10061000C2F1200320FA03F3194390407047202AC7
:1006200004DB203A21FA02F00021704721FA02F39C
:10063000D040C2F120029140084319467047202A59
:1006400006DBCB17203A41FA02F043EAE07306E0FA
:1006500041FA02F3D040C2F120029140084319460A
:1006600070470029A8BF7047401C490008BF20F010
:100670000100704710B4B0FA80FC00FA0CF050EAA8
:10068000010404BF10BC704749B1CCF1200421FA29
:1006900004F411FA0CF118BF012121430843A3EB24
:1006A0000C01CB1D4FEA00614FEA102042BF002031
:1006B00010BC704700EBC35010440029A4BF10BC0D
:1006C0007047401C490008BF20F0010010BC704773
:1006D00010B5141E73F1000408DA401C41F100014A
:1006E00092185B411A4301D120F0010010BD2DE9A1
:1006F000F04D92469B4611B1B1FA81F202E0B0FA98
:1007000080F220329046FFF77BFF04460F4640EA16
:100710000A0041EA0B0153465A46084313D01146DA
:1007200053EA010019D0C8F140025046FFF777FFA5
:1007300005460E46504659464246FFF761FF0843BC
:1007400005D0012004E020463946BDE8F08D0020A8
:10075000054346EAE0762C4337430A986305E40AEA
:10076000A0EB08000022FD0A44EA47540A3002D5F3
:1007700000200146E9E7010510196941DDE9084556
:1007800000196941BDE8F04DA2E700001CB5094819
:100790000090094801900546009C06E0E06840F0A2
:1007A000010394E8070098471034AC42F6D3FFF7F2
:1007B000FBFC00006C4D00089C4D000870470000D9
:1007C000FEE7000070470000FEE7000048F2380036
:1007D000C2F200000021C0E9001148F29000C2F20C
:1007E0000000016821F001010160016821F00201AF
:1007F0000160016821F0040101607047FEE700001C
:1008000070B50446A0F18040A0F560304FEAB026F4
:10081000042E0D4607D344F67240C0F6000040F2A5
:10082000291103F03BF99DB1032E19D82068400728
:100830005CBF20685FEA007014D544F66640C0F6DD
:10084000000003F06DFD39A003F0BCFF022070BD75
:1008500044F67240C0F600004FF4957103F01EF9A3
:10086000052070BDE86844F2E876C0F6000600286E
:1008700018BF0646204600F06BF8A06840F008005C
:10088000A060A06840F00200A060A06840F00100F5
:10089000A060D4F80003298861F31120C4F8000394
:1008A000D4F80003A978EA7861F30300C4F80003E0
:1008B000606862F3CF306060A068317861F3051042
:1008C000A06041F24000C4F20200006800F47F0022
:1008D000B0F5003F0AD9012001F0EEFB30B170788D
:1008E000616821F4804160F38E316160291D2046EA
:1008F00000F07CF8002818BF70BD206840F00100AF
:10090000206000F009FD05462069C00508D400F00C
:1009100003FD401B64284FF00300F5D970BD00BFF4
:100920004FF480702061002070BD00BF414443201F
:1009300063616E277420496E6974207768696C65FD
:1009400020697427732052756E6E696E67210000EE
:10095000B0B584B00446A0F18040A0F560304FEA05
:10096000B020042803D31BA0A32103F097F848F27A
:1009700000410020C4F20301CDE902000F208C42A7
:100980008DF808001ED048F20000C4F20300844233
:1009900016D144F200040320C4F2020401AD019018
:1009A0002046294600F028FB0620019004F500505F
:1009B000294600F021FB01F01BFC402001F09CFBCC
:1009C00004B0B0BD01F02CFC442004B0BDE8B04040
:1009D00001F092BB2E2E2F2E2E2F2E2E2F41505057
:1009E0002F6164635F6170702E63000070B5044610
:1009F000A0F18040A0F560304FEAB026042E0D46ED
:100A000007D344F67240C0F600004FF4D67103F0ED
:100A100045F89DB1032E19D8206840075CBF2068B7
:100A20005FEA007014D544F66640C0F6000003F09B
:100A300077FC1DA003F0C6FE022070BD44F6724094
:100A4000C0F6000040F2AD1103F028F8052070BD9B
:100A500060686A78297862F30B20AB78EE78606082
:100A6000606806F0010263F30610606060680129A7
:100A700020F0800040EAC21060602879626822F0AD
:100A80000102104460606879626822F0020260F33B
:100A900041026260606814BF20F4805040F48050CE
:100AA0006060002070BD00BF414443204F766572F6
:100AB00073616D706C652063616E277420436F6E87
:100AC000666967207768696C6520697427732052AE
:100AD000756E6E696E67210070B50446A0F18040A6
:100AE000A0F560304FEAB026042E0D460AD29DB123
:100AF000687814281BD22878102823D2032E2BD9EB
:100B000030E000BF44F67240C0F6000040F2EF1142
:100B100002F0C4FF002DEBD144F67240C0F6000095
:100B20004FF4F87102F0BAFF68781428E3D344F662
:100B30007240C0F6000040F2F11102F0AFFF2878D9
:100B40001028DBD344F67240C0F600004FF4F97170
:100B500002F0A4FF032E05D86878132802D829785C
:100B60000F2901D9052070BD2268520740D4CAB2AE
:100B7000CD235A43920A04EB820302EB8202891AC4
:100B800001EB410149001E6CC9B21F228A4026EACE
:100B9000020200FA01F111431964A269EE78012101
:100BA000814006F001068A438640324395F802C030
:100BB0002D79A2610C2202EA500222441C23166AFB
:100BC00003EA80000723834026EA030305F00706B3
:100BD00006FA00F018431062D4F80401BCF1010FCA
:100BE0001ABFC94308400843C4F80401002070BD7F
:100BF00044F66640C0F6000003F092FB02A003F04A
:100C0000E1FD022070BD00BF41444320526567757D
:100C10006C6172204368616E6E656C2063616E2743
:100C20007420436F6E666967207768696C65206918
:100C30007427732052756E6E696E67210000000084
:100C400070B50446A0F18040A0F560304FEAB026B0
:100C5000042E0D4607D344F67240C0F6000040F261
:100C6000CD1102F01BFF5DB3032E31D82068400781
:100C700030D460686A78297862F3D750AB78EE7820
:100C80006060606863F353406060606820F48030A7
:100C900061F310406060206D66F30B202065206DCD
:100CA000297920F0C00001F0030140EA811020659D
:100CB000206D697961F304002065002070BD00BFDC
:100CC00044F67240C0F600004FF4E77102F0E6FE11
:100CD000052070BD44F66640C0F6000003F020FB1E
:100CE00002A003F06FFD022070BD00BF414443200D
:100CF000526567756C617220436F6D6D6F6E206316
:100D0000616E277420436F6E666967207768696C2F
:100D10006520697427732052756E6E696E672100B5
:100D200070B50446A0F18040A0F568304FEA30204D
:100D300008280D4622D865B341F240062046C4F289
:100D4000020600F06FF8206820F001002060306893
:100D500000F47F00B0F5003F24D9042001F0ACF985
:100D600028B3687A3168012801F47F0052D1B0F5C8
:100D7000003F1CD9206840F4006017E044F6F440BE
:100D8000C0F60000432102F089FE002D1CBF0520A3
:100D900070BD44F6F440C0F60000442102F07EFE2F
:100DA000052070BD2068A97961F3CB202060206800
:100DB000E97920F0C00001F0030140EA81102060D1
:100DC0002068297A61F3C300206020682B79297894
:100DD00063F305106A78EE78206020686B7963F31E
:100DE0000A2020606660A06820F001000844A0602E
:100DF000A06820F0020062F34100A060A97820689A
:100E0000012914BF20F4805040F48050206000205D
:100E100070BD00BFB0F5003FC9D9206820F4006064
:100E2000C4E7000010B584B00446A0F18040A0F5EE
:100E300068304FEA3020092803D314A04C2102F077
:100E40002DFE4AF2000244F20000C4F20302C4F292
:100E5000020000219442CDE90211019108D04AF22A
:100E60000011C4F203018C420CD1082103E000BF41
:100E700000F58050022101910F218DF8081001A981
:100E800000F0BAF801F010FA04B010BD2E2E2F2E8B
:100E90002E2F2E2E2F4150502F636D705F6170707A
:100EA0002E630000A0F18041A1F568314FEA3121A5
:100EB000092905D2016841F0010101600020704755
:100EC00080B544F6F440C0F60000AF2102F0E6FD24
:100ED000052080BDB0B5A0F18042A2F564324FEA92
:100EE0003222082A0C4621D85CB3054600F032F8BD
:100EF000286820F0010028602868217820F0080088
:100F000061F3C3006278A37828602868012B20F081
:100F1000040062F382002860286814BF20F00200F9
:100F200040F0020028600020B0BD00BF44F6AD4094
:100F3000C0F60000432102F0B1FD002C1CBF0520CB
:100F4000B0BD44F6AD40C0F60000442102F0A6FD5D
:100F50000520B0BDA0F18040A0F564304FEA3020FC
:100F6000092838BF01F0B4B980B504A0232102F0EC
:100F700095FDBDE8804001F0ABB900BF2E2E2F2EAD
:100F80002E2F2E2E2F4150502F6461635F617070A1
:100F90002E630000A0F18041A1F564314FEA3121B8
:100FA000092905D2016841F0010101600020704764
:100FB00080B544F6AD40C0F60000EE2102F06EFDB3
:100FC000052080BDA0F18042A2F564324FEA3222B2
:100FD000092A05D26FF31F3141600020704700BF1E
:100FE00080B544F6AD40C0F6000040F2171102F0A3
:100FF00055FD052080BD00002DE9F04F81B08046F1
:10100000A0F18040A0F510304FEA3036062E8A4617
:101010000AD2BAF1000F11D0DAF800000021B1EBCA
:10102000104F19D0D0E000BF44F6C430C0F6000025
:10103000462102F033FDBAF1000FEDD144F6C43081
:10104000C0F60000472102F029FDDAF80000002177
:10105000B1EB104F40F0B88080B2002800F0B480AF
:10106000052E00F2BB80DAF800100020B0EB114F23
:101070004FF0050040F0B78089B2002900F0B3803E
:1010800008F1240908F1200C00274FF0010E4FF061
:10109000000B002608E000BF01360BF1020B102EFA
:1010A00007F1040700F09E80DAF800000EFA06F15E
:1010B0000840F1D09AF804104A1E0F2A5CD23A4632
:1010C0004B46082E2CBF02F01C0263461D680F24FD
:1010D0009440A5439140294319609AF808100029CB
:1010E000D8F8381014BF01438143C8F838109AF873
:1010F00007100029D8F8481014BF084321EA00005F
:10110000C8F84800D8F8300003219AF8052001FA01
:101110000BF1884302F0030101FA0BF10843C8F810
:10112000300041F24000C4F20200006800F47F0089
:10113000B0F5003FB0D98020644600F0BDFF4FF00D
:10114000010EA4460028A7D09AF80910DAF800008A
:10115000CA07D8F840200CBF82430243C8F8402099
:1011600089074FEA0040D8F8401054BF21EA000038
:101170000843C8F840008FE7C1BB39464A46082EED
:101180002CBF01F01C01624613680F2404FA01F120
:1011900023EA010111609AF806100029B2D0D8F8AC
:1011A0001420032303FA0BF301F003019A4301FA1D
:1011B0000BF11143C8F81410C8F81800D8F8101033
:1011C0000843C8F810009DE744F6C430C0F600009C
:1011D000482102F063FC052E7FF645AF052001B0E3
:1011E000BDE8F08F002001B0BDE8F08F06A003F04D
:1011F00097F89AF8043008A04146324603F090F878
:10120000012001B0BDE8F08F5B45404750494F20B9
:101210004C4C5D20000000004750494F2D5B30785A
:10122000253038785D2050696E2D5B25645D206126
:101230006C7465726E6174652066756E6374696F37
:101240006E205B25645D20636F6E66696720457262
:10125000726F722121210A0010B5A0F18042A2F51F
:1012600010324FEA3232052A0C460BD80021B1EB7E
:10127000144F16D1A1B2A1B14068204018BF01207F
:1012800010BD00BF44F6C430C0F60000FD2102F0DE
:1012900005FC0020B0EB144F03D1A1B2002918BF08
:1012A00010BD44F6C430C0F60000FE2102F0F6FB8B
:1012B000002010BD10B5A0F18043A3F510334FEA14
:1012C0003333052B0C460DD80021B1EB144F19D147
:1012D000A1B2B9B10168012A14BF41EA0441214316
:1012E000016010BD44F6C430C0F6000040F2151194
:1012F00002F0D4FB0020B0EB144F03D1A0B20028C1
:1013000018BF10BD44F6C430C0F600004FF48B7116
:10131000BDE8104002F0C2BB48F25010C2F200001B
:10132000006870472DE9F0414BF60078C4F20308DD
:10133000A8F5706714460646B8420D4607D044F635
:101340002F50C0F6000040F2152102F0A7FB002C40
:101350002CD00A2D34D2BE424FF0050040F013814C
:10136000002C08BFBDE8F0814BF65870C4F20300B2
:10137000DFE805F006A0567432B6D08EE24400BF16
:10138000D4E9001240F8281C40F8242C50F8541CD2
:10139000627A62F3134140F8541CD8F80010A27A24
:1013A00062F31341C8F80010D7E000BF44F62F5095
:1013B000C0F6000040F2162102F070FB0A2DCAD3DD
:1013C00044F62F50C0F6000040F2172102F066FBF1
:1013D0000520BDE8F08100BF50F8081C226889098B
:1013E00061F39F1240F8082C4168627A62F30301AE
:1013F00041600168A27A62F30301ADE050F8041C79
:10140000228862F3154140F8041C4168627AA37A8D
:1014100062F317514160016863F317519CE000BF0C
:10142000D4E9001240F8181C40F8142C50F8541C51
:10143000627A21F0706102F00F0241EA026140F825
:10144000541CD8F80010A27A21F0706102F00F024B
:1014500041EA0261C8F800107FE000BFD4E9001241
:1014600040F8101C40F80C2C50F8541C627A21F003
:10147000704141EA027140F8541CD8F80010A27A79
:1014800021F0704141EA0271C8F8001065E000BF28
:1014900050F8041C2268890961F39F1240F8042C5B
:1014A0004168627A62F30F3141600168A27A62F3A7
:1014B0000F3151E0D4E9001240F8201C40F81C2CF8
:1014C00050F8541C627A62F3175140F8541CD8F853
:1014D0000010A27A62F31751C8F800103DE000BF77
:1014E00050F8081C226862F30D2140F8081C41687E
:1014F000627A21F0F00102F00F0241EA021141602C
:101500000168A27A21F0F00102F00F0241EA021113
:1015100022E000BF50F8081C228862F3154140F811
:10152000081C4168627AA37A62F30B21416001686A
:1015300063F30B2110E000BF50F8041C226862F333
:101540000D2140F8041C4168627A62F31341416046
:101550000168A27A62F3134101600821042D88BF5B
:101560000C214258052D28BF053D05EB45035B00C6
:101570001F27267A9F40BA4306F01F0707FA03F396
:101580001A4342500020BDE8F0810000704700007F
:101590004BF20001C4F2030188420BD080B544F63F
:1015A0002F50C0F6000040F25A4102F077FA0520B1
:1015B00080BD00BF4BF66870C4F20300016841F0C3
:1015C00001010160016841F00801016000207047DD
:1015D000704700007047000070470000704700002F
:1015E0002DE9F0474BF20007C4F203071446064604
:1015F000B8420D4607D044F62F50C0F6000040F226
:10160000FF1102F04BFA002C00F0B280082D80F0A0
:10161000BA80BE424FF0050018BFBDE8F087002C2D
:1016200000F0A4804BF68070C4F2030050F8081C50
:10163000A77821F0404141EA87712278637894F8D5
:1016400005E040F8081C50F86C1C4FF0020C21F02B
:101650000101114440F86C1C50F86C1C0C2221F460
:10166000004163F3CF3140F86C1C50F8101C277A0E
:10167000AB0007F003079E1C9A40B74091433A40E5
:10168000114440F8101C50F8102CE67903F10108C1
:1016900006F001060CFA03F906FA08F622EA090731
:1016A00006EA09063E446FF0170240F8106C6FF02E
:1016B0000706052D02EB850288BF6FF00306375839
:1016C000062D38BFAA00D2B24FF00F0A0AFA02F173
:1016D00027EA01010EF00F0707FA02F21143315019
:1016E0008168A7790AFA03F2914307F00F029A4042
:1016F000114381600168677A082207F00107DE1C48
:101700009A40B74091433A401144016021790CFA64
:1017100005F7012950F86C1C14BF21EA070641EABD
:10172000070640F86C6CE1780122012902FA03F304
:1017300050F8101C14BF21EA030641EA030640F8E2
:10174000106C0168E27A6FEA090702F0010202FAFE
:1017500008F2394002EA09021143A77A01600168E0
:10176000012F14BF9943194301600020BDE8F087A1
:1017700044F62F50C0F600004FF4007102F08EF9CD
:10178000082DFFF446AF44F62F50C0F6000040F29B
:10179000012102F083F90520BDE8F08710B54BF672
:1017A0008072C4F20302A2F5786398420C460DD011
:1017B00044F62F50C0F6000040F2894102F06EF965
:1017C000082C3CBF052010BD0EE000BF082C0BD23A
:1017D000A0000230C0B20121136801FA00F01843E2
:1017E0001060002010BD00BF44F62F50C0F600006E
:1017F00040F28A4102F052F9052010BD70B54BF25B
:101800000004C4F20304A0420AD044F62F50C0F6EC
:1018100000004FF4E761BDE8704002F03FB900BF3F
:101820004BF61470C4F203000668D4F8105FB007DA
:1018300008D515F0020005D00220C4F8100F20468C
:1018400002F059FD700708D515F0040005D00420FA
:10185000C4F8100F2046FFF7BBFE300708D515F07F
:10186000080005D00820C4F8100F2046FFF7B2FE8C
:10187000F00608D515F0100005D01020C4F8100FA0
:10188000204602F03DFDB00608D515F0200005D039
:101890002020C4F8100F2046FFF79EFE700608D5E2
:1018A00015F0400005D04020C4F8100F2046FFF787
:1018B00095FE300608D515F0800005D08020C4F8CC
:1018C000100F204602F021FDF00509D515F48070B7
:1018D00006D04FF48070C4F8100F204602F01AFDB5
:1018E000F00718BF15F0010005D00120C4F8100F53
:1018F000204600F011F8300458BF70BD15F40040C8
:1019000008D04FF400412046C4F8101FBDE87040D5
:10191000FFF73CBE70BD00007047000080B5014677
:101920004BF20000C4F20300814209D044F62F506C
:10193000C0F60000842102F0B1F8052080BD00BF90
:1019400000F002F8002080BD70B584B0002044F2A1
:101950000004ADF80B004FF44070C4F2020401AD76
:1019600001900E2620462946ADF80860FFF744FB9B
:101970004FF44050019004F5805029468DF80860DE
:10198000FFF73AFB00F07CFD04B070BDF0B581B00C
:101990004BF20002C4F2030290420BD040F20C4121
:1019A00044F62F50C0F6000002F078F8052001B090
:1019B000F0BD00BF0D46FFF7AFFC092D044611D165
:1019C0004BF60875C4F20305286840F00100286052
:1019D0002868C00720D0FFF79FFC001B6428F7D9B8
:1019E00017E000BF072D1BD84BF60876C4F203069C
:1019F0000220316800FA05F741EA0700013530603E
:101A000030683840E84007D0FFF786FC001B6428A8
:101A1000F6D9032001B0F0BD002001B0F0BD00BF39
:101A200040F21F41BCE70000F0B581B04BF2000767
:101A3000C4F2030714460646B8420D4607D044F6E2
:101A40002F50C0F6000040F2951102F027F8002C4C
:101A500000F0D280082D80F0DA80BE424FF0050001
:101A600040F0C880002C00F0C580206907EB0521FC
:101A7000C1F838016069C1F83C01D1F87001227EDB
:101A800062F30000C1F87001D1F87001627E62F368
:101A9000C300C1F87001D1F87001A27E62F3420068
:101AA000C1F87001D1F87001227B20F0400062F390
:101AB0008610637BC1F87001D1F8700120F020001E
:101AC00063F34510C1F87001206AC1F84001606AF3
:101AD000C1F84401D1F8700194F8282062F3104055
:101AE000C1F87001D1F8700194F8292062F3D34055
:101AF000C1F87001D1F8700194F82A2062F35240C5
:101B0000C1F87001E07ED1F8702122F4800260F308
:101B10009652C1F87021207FD1F870314BF60472D3
:101B200023F4001360F35553C1F87031D1F87001FC
:101B3000E37A20F0605003F0070340EAC360C1F885
:101B40007001637AD1F8707101F5807027F08047D9
:101B500063F39E77C1F87071217A0123C4F2030206
:101B6000012903FA05F1136814BF23EA010119439F
:101B70001160A17A026F22F0007261F3596202676C
:101B8000416F227821F0010111446378A778E6784B
:101B90004167416F21F0020163F341014167416FE9
:101BA00021F0040167F382014167416F21F00801D0
:101BB00066F3C30141672179426F22F0100261F39D
:101BC000041242676179426F22F0200261F34512EC
:101BD0004267A179426F22F0400261F386124267A8
:101BE000E279416F002A14BF41F0800121F08001A9
:101BF0004167002001B0F0BD44F62F50C0F6000050
:101C00004FF4CB7101F04AFF082DFFF426AF44F6E4
:101C10002F50C0F6000040F2971101F03FFF052061
:101C200001B0F0BDB0B514464BF20002C4F203029D
:101C300090420BD044F62F50C0F60000F32101F083
:101C40002DFF002C1CBF0520B0BD5DE0002C5BD03B
:101C5000092963D1D068A168400A60F35F21D1608F
:101C60004FF6FF71D068C8F2000101F1FC41084055
:101C7000E1680023C0F2FF1319400844D0601068E7
:101C8000217C61F3020010601068617C61F3C30085
:101C90001060607921789061E0885061106820F0D0
:101CA000404040EA81701060E078116821F0100136
:101CB00060F304111160A078116821F4806160F371
:101CC0008A2111606078116821F4006160F3CB21F2
:101CD00011602079D2F8901F21F4803160F3104117
:101CE000C2F8901F1068E17C20F0C00001F00301F1
:101CF00040EA81101060A07C116821F0200160F39F
:101D0000451100201160B0BD44F62F50C0F6000010
:101D1000F42101F0C3FE0520B0BD00BF082980F00A
:101D2000A78002EB0123D3F80CC1D4F808E04FEAF6
:101D3000DC3060F3DF3EC3F80CE1D3F80CC1E0897E
:101D400003F5807560F31E4CC3F80CC1D3F800C1D5
:101D5000207C60F3020CC3F800C1D3F800C1607CA2
:101D600060F3C30CC3F800C1607994F803C0C3F8F2
:101D70001801E088C3F81401D3F8000120F0100026
:101D80006CF30410C3F8000194F802C0D3F800010A
:101D900020F480606CF38A20C3F8000194F801C03D
:101DA000D3F800E12EF400606CF3CB20C3F80001FF
:101DB00020794FF4003303FA01F10128D2F8900F93
:101DC00014BF20EA01010143C2F8901FD4E90610B4
:101DD0006965A865286894F8201061F34920286097
:101DE0002868E17C20F0C00001F0030140EA811086
:101DF000A27C2860286820F0200062F3451028604B
:101E0000286894F8251020F0704040EA017028609E
:101E1000286894F8261061F311402860286894F827
:101E2000271061F39340286094F82100296821F479
:101E3000807160F30821296094F82200296821F458
:101E4000801160F31451296094F82300296821F46B
:101E5000001160F35551296094F824002968012885
:101E600014BF21F4800041F4800028600020B0BD40
:101E700044F62F50C0F6000040F6B80101F00EFE07
:101E80000520B0BD10B514464BF20002C4F20302A7
:101E900090420DD044F62F50C0F6000040F20711DA
:101EA00001F0FCFD002C1CBF052010BD22E000BF8E
:101EB00004B3092928D16088D061A0881062E08825
:101EC0005062208990621068217820F0007061F3E0
:101ED0005960A37AE47A1060106820F0006063F320
:101EE000DB601060106820F0806064F39A6010601E
:101EF000002010BD44F62F50C0F600004FF484714E
:101F000001F0CCFD052010BD082980F08180638898
:101F100002EB0120C0F81C31A188C0F82011E18833
:101F2000C0F824112189C0F82811D0F800112278B6
:101F300021F0007162F35961A37A94F80BC094F810
:101F40000CE0C0F80011D0F8001121F0006163F33B
:101F5000DB61C0F80011D0F8001121F080616CF352
:101F60009A61C0F80011D0F8041121F480316EF3A9
:101F70001041C0F80411617BD0F8042122F4003232
:101F800061F35142C0F80421A17BD0F8042122F46E
:101F9000802261F39242C0F80421E17BD0F8042151
:101FA00022F4002261F3D342C0F80421217CD0F84E
:101FB000042122F4801261F31452C0F80421617CE0
:101FC000D0F8042122F4001261F35552C0F8042124
:101FD000A17CD0F8042122F4800261F39652C0F86B
:101FE0000421E17CD0F8042122F4000261F3D752ED
:101FF000C0F80421227DD0F8041100F58270012A76
:1020000014BF21F0807141F080710160002010BD8B
:1020100044F62F50C0F6000040F6221101F03EFDBC
:10202000052010BD48F2000048F25011C2F2000035
:10203000C2F2000100780A6810440860704700008E
:1020400010B543F20000C4F20200016841F0100133
:102050000160016841F020010160032000F0ACF84C
:102060000F2000F005F8044600F032F8204610BDBD
:10207000B0B548F20005C2F20005297861B1044606
:1020800000F090FE29784FF47A72B2FBF1F1B0FBC8
:10209000F1F001F071F808B10420B0BD0F2C84BF3D
:1020A0000120B0BD4FF0FF302146002200F03EF885
:1020B00000206C60B0BD000048F2F401C2F20001E3
:1020C00009680140081AB0FA80F040097047000022
:1020D00080B500F039F900F04BF900F05DF900F03F
:1020E0006FF900F081F900F093F900F005F9BDE80F
:1020F000804000F015B90000B0F1FF3F0EDD00F0A8
:102100001F01012202FA01F11C2202EAD0004EF264
:102110000012CEF200028150704700BF44F6D42076
:10212000C0F6000040F20B1101F0B8BC70B51546C6
:102130000E46102A044606D344F6D420C0F600000A
:10214000C62101F0ABFC102E06D344F6D420C0F615
:102150000000C72101F0A2FC45EA06000F2888BF55
:1021600070BD4EF60C50CEF2000001684FF0FF3308
:10217000C1F3022181F00702042A28BF0422033997
:1021800003FA02F238BF002126EA02028A4003FA6B
:1021900001F125EA0101114304F00F02043A104451
:1021A00004F16042090102F56442002C48BF00F1CD
:1021B0000C02117070BD0000C11E052910D24EF630
:1021C0000C51CEF200010A684FF6FF031A4042EAB2
:1021D000002040F0806040F0FD700860704700BF54
:1021E00044F6D420C0F600008C2101F057BC00005A
:1021F0004C2048F2E471C4F20200C3F6AC714163B2
:10220000016941F008010161016841F001010160CB
:10221000016A41F008010162012141637047000039
:102220004C2048F2E471C4F20200C3F6AC71416381
:10223000016941F010010161016841F00201016092
:10224000016A41F008010162012141637047000009
:102250004A1E102A1CD2382248F2E473C4F2020249
:10226000C3F6AC739364136800F0030023F00C030F
:1022700043EA80001060F023106903EB01110909A3
:1022800061F307101061012090640020704700BFC7
:1022900080B544F68930C0F6000040F2131101F019
:1022A000FDFB052080BD00005C2048F2E471C4F213
:1022B0000200C3F6AC714162016841F480710160B3
:1022C000016941F020010161012141627047000074
:1022D0005C2048F2E471C4F20200C3F6AC714162C2
:1022E000016841F080010160016941F01001016164
:1022F0000121416270470000582048F2E471C4F2A5
:102300000200C3F6AC718162016841F00101016015
:10231000016941F001010161012181627047000002
:10232000582048F2E471C4F20200C3F6AC71816235
:10233000016841F002010160016941F0020101619F
:102340000121816270470000582048F2E471C4F214
:102350000200C3F6AC718162016841F004010160C2
:10236000016941F0040101610121816270470000AF
:10237000582048F2E471C4F20200C3F6AC718162E5
:10238000016841F008010160016941F00801016143
:102390000121816270470000582048F2E471C4F2C4
:1023A0000200C3F6AC718162016841F01001016066
:1023B000016941F010010161012181627047000053
:1023C000582048F2E471C4F20200C3F6AC71816295
:1023D000016841F020010160016941F020010161C3
:1023E0000121816270470000582048F2E471C4F274
:1023F0000200C3F6AC718162016841F040010160E6
:10240000016941F0400101610121816270470000D2
:10241000582048F2E471C4F20200C3F6AC71816244
:10242000016841F080010160016941F080010161B2
:1024300001218162704700000139102914D238222D
:1024400048F2E473C4F20202C3F6AC7393641368F7
:1024500060F301031360106961F303001061012050
:1024600090640020704700BF80B544F68930C0F604
:1024700000004FF4957101F011FB052080BD0000B4
:102480004C2048F2E471C4F20200C3F6AC7141631F
:10249000016941F400710161016941F480610161E8
:1024A000016941F400610161016941F480510161F8
:1024B000016941F400510161016941F48041016108
:1024C000016941F400410161016941F48031016118
:1024D000016841F010010160016841F020010160D4
:1024E000016841F040010160016841F08001016034
:1024F000016841F480710160016841F4007101607C
:10250000016841F480610160016841F4006101608B
:10251000016A41F0400101620121416370470000FE
:102520002DE9F04784B041F26C02002148F2E47ECC
:10253000C4F20202C4F20201C3F6AC7E52F80CCC23
:102540000868C1F880E0886B032420F00C008863E1
:10255000886C41F2002720F0F00088640120C1F867
:102560008000C1F880E0CB6D9FEDE50A43F00803E1
:10257000CB65CB6CC0F27A0743F00103CB64CB6E22
:1025800043F00803CB66C1F8800048F2E470C1F85C
:1025900080E042F8280C48F63D2042F8280C41F62D
:1025A000EC1042F8280C52F80C0C40F4005042F8A1
:1025B0000C0C52F80C0C40F4805042F80C0C52F801
:1025C0004C3C41F2000043F4807342F84C3C52F81A
:1025D0004C3CCEF2000064F38E2342F84C3C0023C6
:1025E0004360036843F00103036000BF436814685D
:1025F0003D4614F5807F3CBF1468250A01EE105A51
:10260000B8EE411A21EE001ABCEEC11A11EE104AC2
:10261000A342EBD348F2001348F22134C4F203037F
:10262000C0F2800443F8FC4C2B2443F8F84C0024FF
:1026300043F8E84C202443F8D84C112443F8C04C0C
:102640006FF0FF041D5945F001051D5153F8F04C82
:10265000E4050CD453F8F04CE4055CBF53F8F04C9F
:102660005FEAC45403D453F8F04CE405EED56FF0A0
:10267000FF041D5945F004051D511C6844F4003445
:102680001C601C68A40309D41C68A4035CBF1C68FC
:102690005FEA843402D41C68A403F2D553F8AC4C2E
:1026A0001D68122645F400351D6052F84C5C04EBA1
:1026B000D47466F38E2542F84C5C4EF6FC55CEF28F
:1026C00000052E689FED8F0A46F080762E600D681B
:1026D000002645F400350D600D68A6EB640925F071
:1026E00000450D600D6825F440750D600D6845F0DE
:1026F00000450D604660056845F00104046000BFB8
:10270000466814683D4614F5807F3CBF1468250A6E
:1027100001EE105AB8EE411A21EE001ABCEEC11AB1
:1027200011EE104AA642EBD353F8AC4C012514EB42
:10273000090848BFC8F10008CDF800801C6844F4BF
:1027400000341C600C6824F000440C600C6865F3D5
:1027500009240C600C6844F000440C6000244460C0
:10276000046844F001040460466814683D4614F5AA
:10277000807F3CBF1468250A01EE105AB8EE411A5A
:1027800021EE001ABCEEC11A11EE104AA642EBD39C
:1027900053F8AC4C022514EB090A48BFCAF1000AF1
:1027A000CDF804A01C6844F400341C600C6824F0CC
:1027B00000440C600C6865F309240C600C6844F05C
:1027C00000440C6000244460046844F00104046088
:1027D000466814683D4614F5807F3CBF1468250A9E
:1027E00001EE105AB8EE411A21EE001ABCEEC11AE1
:1027F00011EE104AA642EBD353F8AC4C14EB090689
:1028000048BF764202961C6844F400341C600C6891
:1028100024F000440C600C6844F440740C600C68B4
:1028200044F000440C6000244460046844F0010457
:10283000046000BF4568146814F5807F3C463CBFC7
:102840001468240A01EE104AB8EE411A21EE001A6B
:10285000BCEEC11A11EE104AA542EBD353F8AC4CB2
:1028600014EB090448BF644203941D68C24545F453
:1028700000351D600D684FF0000825F000450D6023
:102880000D6825F400350D60056825F0010505602B
:102890004FF000006D4638BF012055F82070BE4251
:1028A0006FF0FF0638BF022055F8205043F806802D
:1028B000C1F880E0CB6D23F00803CB65CB6C23F02F
:1028C0000103CB64CB6D13F0780F03D1CB6E23F0F3
:1028D0000803CB660123AC4238BF0320C1F8803027
:1028E00042F80CCC4FF48032C1F88030C1F880201F
:1028F0004FF40032C1F8802004B0BDE8F08700BF7B
:1029000051499D3AA69BC43A2DE9F0470025C4F2EF
:102910000205A8420C460DD044F68930C0F60000EE
:1029200040F2B71101F0BAF8002C1CBF0520BDE839
:10293000F08725E024B3D4F8048041F6003AC0F2D1
:10294000B70AD04528D041F20020C0F27A00804575
:1029500040F02E81A06849F20051C0F6BA218842A9
:1029600044F63400C0F6000000F01F81A16842F672
:102970008032C0F65332914226D1183015E100BFA3
:1029800044F68930C0F600004FF4DC7101F086F89F
:102990000520BDE8F08700BFA06849F20051C0F6ED
:1029A000BA21884244F63400C0F6000002D1A830B3
:1029B000FBE000BFA16842F68032C0F6533291427C
:1029C0000CD1C030F1E000BFA1684CF20022C0F68B
:1029D000EB3291420CD13030E7E000BFA1684CF2FD
:1029E0000022C0F6EB3291420CD1D830DDE000BFBE
:1029F000A16845F68002C0F6844291420CD148306D
:102A0000D3E000BFA16845F68002C0F6844291423F
:102A10000CD1F030C9E000BFA1684EF60072C0F6DC
:102A20001C5291420CD16030BFE000BFA1684EF64D
:102A30000072C0F61C5291420CD100F58470B4E0D3
:102A4000A16848F28052C0F6B55291420CD178305C
:102A5000ABE000BFA16848F28052C0F6B552914287
:102A60000CD100F59070A0E0A16841F60042C0F6DC
:102A70004E6291420ED1903097E000BFA16841F6BE
:102A80000042C0F64E62914240F0928000F59C7088
:102A90008BE000BFA1684FF28002C0F2FA2291429F
:102AA00002D100F5A87080E0A16843F6C032C0F200
:102AB0004732914202D100F5B47076E0A16848F245
:102AC0000072C0F29332914202D100F5C0706CE006
:102AD000A1684DF24022C0F2DF32914202D100F5EE
:102AE000CC7062E0A16841F68052C0F22C42914263
:102AF00002D100F5D87058E0A16846F6C002C0F2D5
:102B00007842914202D100F5E4704EE0A1684BF2A8
:102B10000042C0F2C442914202D100F5F07044E09C
:102B2000A1684FF64072C0F21052914202D100F5F6
:102B3000FC703AE0A16844F68022C0F25D529142F6
:102B400002D100F5047030E0A16849F2C052C0F231
:102B5000A952914202D100F50A7026E0A1684EF216
:102B60000012C0F2F552914202D100F510701CE043
:102B7000A16842F64042C0F24262914202D100F5A1
:102B8000167012E0A16847F28072C0F28E62914224
:102B900002D100F51C7008E0A1684CF2C022C0F21E
:102BA000DA62914204D100F52270468980893BE0C7
:102BB0002078012811D141F26C00C4F202000168B2
:102BC00011F5807F04D341F20028C0F27A0802E0B8
:102BD00000684FEA1028C4F80480B8F1000F00F034
:102BE000AF80A068FDF780FC064640460F46FDF723
:102BF0007BFC02460B4630463946FDF706FC07468D
:102C00008946FDF77EFC0646FDF76EFC02460B4644
:102C100038464946FDF781FB9FED570B53EC102BCF
:102C2000FDF781FBFDF76DFC48F2E477C3F6AC7766
:102C3000C5F88070296821F00041296021780329B6
:102C400016D001290AD000296CD12A6F42F0010266
:102C50002A672A6822F003020DE000BF2A6F0123D1
:102C600042F010022A672A6863F3010203E000BF02
:102C70002A6842F003022A602A68D04522F40062E2
:102C80002A602A686FF39F3622F4806288BF02F5BB
:102C900080622A606A684FF6FF736FF31D4242EA52
:102CA00006426A606A689A43104468602868022293
:102CB00062F38F302860A0684CF20022C0F6EB323D
:102CC00090420FD101294DD061B941F20020C0F2EC
:102CD0007A00804506D141F26C00C4F202004068DF
:102CE000800F03E0FFF71CFCC5F88070296860F3D3
:102CF00009212960286840F00040286028684000C9
:102D000009D4286840005CBF28685FEA400002D40C
:102D100028684000F2D50120C5F880000020BDE8F9
:102D2000F08700BF44F67D30C0F6000001F0F8FAED
:102D3000217813A001F0F4FA0120BDE8F08700BF6C
:102D400044F67D30C0F6000001F0EAFAD4E9011241
:102D500044F61230C0F6000001F0E2FA0120BDE8AE
:102D6000F08700BF41F26C00C4F20200006800F07E
:102D70000300BBE700BF00BF000000000000F04000
:102D8000504C4C3020434C4B20536F757263652080
:102D900053656C6563742D5B25645D204572726FAD
:102DA00072210A0048F20800C2F200000068704771
:102DB000F0B583B03027C4F20207A7F1300506460C
:102DC000A8420C4606D044F68930C0F6000099218E
:102DD00000F064FE44B1606880B1AE424FF005007F
:102DE00017D003B0F0BD00BF44F68930C0F6000034
:102DF0009A2100F053FE60680028EED144F6893035
:102E0000C0F600009B2100F049FEAE424FF00500E5
:102E1000E7D1002CE5D06068A0B12178032930D833
:102E2000DFE801F00214200A41F26C00C4F2020053
:102E3000026812F5807F21D341F20020C0F27A00AF
:102E40001EE000BF052003B0F0BD00BF41F26C00E2
:102E5000C4F20200C26812F1011F0BD94FF4FA400C
:102E60000EE000BF6278012A00F0AC80002A00F07A
:102E7000B18006E0C068000C02E000BF0068000AF4
:102E80006060A2894FF6F076A2F111039BB2B342C3
:102E90009CBF0222A281E6894FF6F173113EB6B2C1
:102EA0009E423CBF0226E681268A313B413EB6B2B5
:102EB0009BB29E4248F2E4763CBF01232382C3F6D4
:102EC000AC7603293E656DD8DFE801F002340A2CA8
:102ED000386C40F010003864386820F003002DE0B2
:102EE000396801F00301022907D1396C41F0100162
:102EF0003964396821F0030139606178A2688DF87E
:102F00000010CDE9012069462846FFF7FDFC0028A6
:102F10003E6543D13868022161F301003860A2891F
:102F20000DE000BF386C40F001003864386840F0B4
:102F3000030003E03868012161F3010038604FF4B9
:102F40007061386801EB0221090A61F30B203860D7
:102F50003868E1894FF20002CFF6FF7202EB0131CF
:102F6000090B61F30F3038603868218AFC2202EBCC
:102F70008101890861F387003860386840F4803047
:102F80003860386840F400303860386840F4802099
:102F90003860386840F4002038600020012139652D
:102FA00003B0F0BD44F67D30C0F6000001F0B8F982
:102FB00021780DA001F0B4F901200121396503B099
:102FC000F0BD00BF41F26C02C4F20202136813F5B7
:102FD000807F05D341F20022C0F27A02A26050E75E
:102FE0001268120AA2604CE7535953434C4B2053CA
:102FF0006F757263652053656C6563742D5B256422
:103000005D204572726F72210A000000542048F260
:10301000E471C4F20200C3F6AC71C162016841F40C
:1030200000610160016941F4006101610121C16237
:10303000704700005C2048F2E471C4F20200C3F65D
:10304000AC714162016841F002010160016941F027
:10305000020101610121416270470000542048F2E1
:10306000E471C4F20200C3F6AC71C162016841F4BC
:1030700080510160016941F4805101610121C16207
:1030800070470000542048F2E471C4F20200C3F615
:10309000AC71C162016841F400510160016941F401
:1030A000005101610121C16270470000582048F2BF
:1030B000E471C4F20200C3F6AC718162016841F4AC
:1030C00080710160016941F48071016101218162B7
:1030D00070470000582048F2E471C4F20200C3F6C1
:1030E000AC718162016841F400710160016941F4D1
:1030F000007101610121816270470000502048F297
:10310000E471C4F20200C3F6AC710163016841F0DE
:1031100040010160016941F0400101610121016349
:1031200070470000502048F2E471C4F20200C3F678
:10313000AC710163016841F080010160016941F0F7
:103140008001016101210163704700005C2048F2A9
:10315000E471C4F20200C3F6AC714162016841F04F
:1031600001010160016941F0010101610121416238
:103170007047000070470000411E0020B0EB116F47
:103180001CBF012070474EF21002CEF200025160C7
:103190004EF62351CEF20001F0230B700721906010
:1031A00011607047FFF7E6BF70B549F6FF74C4F2CF
:1031B0000104A04218DC4DF6FF72C4F200029042F6
:1031C0002ADD4EF20002C4F2000290423FD048F2E3
:1031D0000002C4F20102904239D049F20002C4F266
:1031E0000102904233D0BBE04AF6FF72C4F2020201
:1031F00090421FDD4BF20002C4F20202904226D040
:103200000022C4F20302904221D041F20002C4F233
:10321000030290421BD0A3E048F20002C4F2000275
:10322000904214D049F20002C4F2000290420ED043
:1032300096E000BF4AF20002C4F20102904206D0BA
:103240004AF20002C4F20202904240F08980002952
:1032500000F09580A0424FF0050217DC4DF6FF7399
:10326000C4F20003984227DD4EF20003C4F20003CB
:10327000984239D048F20003C4F20103984233D097
:1032800049F20003C4F201032CE000BF4AF6FF73C9
:10329000C4F2020398421BDD4BF20003C4F20203A6
:1032A000984221D041F20003C4F2030398421BD09C
:1032B0000023C4F2030315E048F20003C4F2000344
:1032C000984211D049F20003C4F200030AE000BFA3
:1032D0004AF20003C4F20103984205D04AF2000307
:1032E000C4F20203984238D14A6802630A898263B1
:1032F00002684E780B7866F3C3028D7802604268EC
:1033000065F30202426002680E7B66F3820202608D
:10331000CA7A0668002A26F0020608BF023606604E
:10332000026822F0800263F3C7120260C26A8B7ADD
:1033300063F30302C2624A7B026402688B7B63F31D
:10334000461202600268CB7B63F3041202600268DB
:10335000097C61F3092202600022104670BD00BFA3
:1033600044F62B42C0F60002054610460E46E62102
:1033700000F094FB3146284600297FF46BAF44F6F9
:103380002B40C0F60000E72100F088FB052070BD4F
:10339000F0B581B049F6FF76C4F201064AF6FF7433
:1033A0004DF6FF75B042C4F20204C4F2000515DC0C
:1033B000A84227DD4EF20001C4F2000188423BD052
:1033C00048F20001C4F20101884235D049F20001FF
:1033D000C4F2010188422FD056E000BFA0421FDD99
:1033E0004BF20001C4F20201884225D00021C4F250
:1033F0000301884220D041F20001C4F20301884257
:103400001AD041E048F20001C4F20001884213D012
:1034100049F20001C4F2000188420DD034E000BF3F
:103420004AF20001C4F20101884205D04AF20001CB
:10343000C4F20201884227D1B0424FF0050132DCCC
:10344000A84213DD4EF20002C4F2000290424DD0B9
:1034500048F20002C4F20102904247D049F2000251
:10346000C4F20102904241D030E000BF48F20002B5
:10347000C4F20002904239D049F20002C4F20002C4
:10348000904233D022E000BF44F62B41C0F6000149
:103490000746084640F2711100F000FB3846B04282
:1034A0004FF00501CCDDA04214DD4BF20002C4F266
:1034B000020290421AD041F20002C4F2030290428A
:1034C00014D00022C4F2030290420FD0084601B08B
:1034D000F0BD00BF4AF20002C4F20102904205D0E2
:1034E0004AF20002C4F202029042EFD1016841F0B8
:1034F000010101600021084601B0F0BDFEE70000B7
:1035000070470000B0B5054645F200000C46C4F215
:1035100002004FF40061FDF79FFE48F24C01C2F239
:1035200000010A68013213040A6007D478B110461A
:103530006FF3DF30A84202D20BE000BF10B14FF4AE
:10354000004205E010466FF3DF30A04201D30022B5
:103550000A6048F29800C2F200000168D20B62F3E0
:1035600000010160B0BD00007047000048F2380C57
:1035700048F25003C2F2000CC2F20003DCF804204F
:1035800093ED070A531CB2EE041A1A04B4EE410A72
:10359000CCF8043008D4F1EE10FA0DDD19466FF3C3
:1035A000DF3181420ED309E0F1EE10FA06DC184655
:1035B0006FF3DF30884205D3002301E04FF400436E
:1035C000CCF8043048F29000C2F200000168DA0B37
:1035D00062F341010160704700F0D2F8FCF7E0FDB2
:1035E0007047000048F23000C2F2000000787047D7
:1035F00048F230010022C2F20001062828BF10461E
:10360000087048708A80CA808870087800EB400291
:1036100044F2EC70C0F6000050F82220002A08BFE7
:103620007047097801EB410150F821000047000084
:1036300080B500F09DFC00F0B1FC48F29800C2F2A9
:103640000000016821F00201016048F20C00C2F2A2
:10365000000000F0C1FA48F23000C2F2000005217B
:1036600081708188002904BF0121818080BD000014
:1036700010B500F07DFC00F091FC48F29804C2F215
:103680000004206820F00200206048F20C00C2F222
:10369000000000F0A1FAFDF799F82068012120F060
:1036A0000100206048F23000C2F200008170828880
:1036B000002A08BF818010BD10B548F23004C2F264
:1036C00000042078062824BF00202070A08848B37A
:1036D000E088A8B3E0880138E080E088002818BFBF
:1036E00010BDA07860706078062824BF002060704C
:1036F00060782178884211D060782070207800EBC3
:10370000400144F2EC70C0F6000050F8211029B1DD
:10371000217801EB410150F8210080470020A08072
:1037200010BD00BF2078207844F2EC7100EB40001F
:10373000C0F6000101EB80004068BDE81040004782
:103740002078207844F2EC7100EB4000C0F60001D4
:1037500001EB8000806880470120E08010BD000000
:1037600080B5FEF75FFCBDE88040FFF71BBD0000A1
:1037700000281EBF48F20801C2F20001086070472D
:1037800040F200004EF68851C0F60000CEF2000173
:1037900041F8800C41F23000C4F2020048F2E472B9
:1037A0004261026822F0020202604FF480324261FC
:1037B000086840F4700008607047000080B549F662
:1037C000FF71C4F20101884220DC4DF6FF71C4F2A2
:1037D0000001884242DD4EF20001C4F2000188423D
:1037E00008BF80BD48F20001C4F2010188425DD0EB
:1037F00049F20001C4F2010188425FD1FFF72EFCBB
:103800001C20BDE88040FEF777BC00BF4AF6FF7180
:10381000C4F20201884235DD4BF20001C4F202011C
:10382000884261D00021C4F20301884264D041F291
:103830000001C4F20301884240D1FFF7FBFB2420C2
:10384000FEF75AFC2520FEF757FC2620FEF754FC15
:103850002720BDE88040FEF74FBC00BF48F20001C2
:10386000C4F2000188422FD049F20001C4F20001E5
:10387000884223D1FFF756FC1A20BDE88040FEF7AE
:103880003BBC00BF4AF20001C4F20101884223D0D0
:103890004AF20001C4F2020188420FD1FFF706FC90
:1038A0001E20BDE88040FEF727BC00BFFFF7AEFB3F
:1038B0001B20BDE88040FEF71FBC00BF16A02A21D8
:1038C000BDE8804000F0EAB8FFF718FC1920BDE819
:1038D0008040FEF711BC00BFFFF7D4FB1D20BDE800
:1038E0008040FEF709BC00BFFFF7F4FB1F20BDE8D6
:1038F0008040FEF701BC00BFFFF728FC2020FEF748
:10390000FBFB2120FEF7F8FB2220FEF7F5FB23202E
:10391000BDE88040FEF7F0BB746D725F6170702E81
:1039200063000000FEE7000048F2380C48F2500344
:10393000C2F2000CC2F20003DCF8002093ED030A8F
:103940009FED141A531C1A04B4EE410ACCF800304F
:1039500008D4F1EE10FA0DDD19466FF3DF31814224
:103960000ED309E0F1EE10FA06DC18466FF3DF30F3
:10397000884205D3002301E04FF40043CCF8003027
:1039800048F29000C2F200000168DA0B62F3000115
:10399000016070470000704270B588B041F260016C
:1039A0000025C4F2020148F63D22CDE90455CDE9D7
:1039B00006550295ADF80C5000958DF8045041F86D
:1039C0001C2C41F6EC1241F81C2C0A68044622F427
:1039D00000520A600A68022642F4805008604FF4E0
:1039E000003041F81C0C4FF480700321ADF8120038
:1039F0008DF81510ADF8170004A920468DF8145065
:103A00008DF816608DF81950FCF7FAFE40F203109D
:103A1000ADF80B0015208DF80D0002A92046ADF879
:103A20000850FDF70DF94FF4E0606D460090204618
:103A300029468DF80460FDF74FF840F6010000902C
:103A4000204629468DF80460FDF746F84FF4817052
:103A50000090204629468DF80460FDF73DF840F2BD
:103A600003200090204629468DF80460FDF734F8C5
:103A700008B070BD48F20000C4F20300FFF78CBF2D
:103A800048F20000C4F20300016841F00401016043
:103A9000416941F0020141617047000050B10446A4
:103AA00007A00D4600F03CFC08A021462A4600F085
:103AB00037FC00BF00BF00BF00BF00BFFAE700BF78
:103AC0005B45404442475D20000000004173736540
:103AD0007274206661696C656420696E20257320AC
:103AE0006C696E6520257500B0B584B00020029029
:103AF000ADF80C00019003208DF808004FF44070E1
:103B0000ADF80A0001204AF200048DF80C00C8202C
:103B1000C4F2030401AD8DF8070020462946FDF7E5
:103B2000FFF819208DF8070004F580702946FDF78D
:103B3000F7F804B0B0BD000010B54AF20004C4F2BA
:103B400003042046FDF7AEF904F58070BDE810408F
:103B5000FDF7A8B9F0B581B04FF4807049F20004C8
:103B6000ADF801000020C4F203040DF101058DF849
:103B7000030020462946FDF7ADF904F5807630466E
:103B80002946FDF7A7F904F5007738462946FDF7E1
:103B9000A1F920464FF40061FDF714FA30464FF4C6
:103BA0000061FDF70FFA384640F6FF71FDF70AFA9B
:103BB00001B0F0BD10B549F20004C4F20304204680
:103BC000FDF7E8F904F58070FDF7E4F904F50070FD
:103BD000BDE81040FDF7DEB900214FF03F42C0E9DB
:103BE0000011C0E9041282617047000048F24001F0
:103BF000C2F200010A786AB1012A0DD140F60061D3
:103C0000CEF20001D1F88020D2071CBF09685FEA1C
:103C1000C17117D1704700BF4968002908BF7047BC
:103C2000CA6B520709D5CA6B520744BFCA6B5FEA19
:103C3000427202D5CA6B5207F2D402466FF35F227A
:103C40000A6270474FF060410A6862B900BF0A68B3
:103C50004AB900BF0A6832B900BF0A681AB900BF82
:103C60000A68002AF2D0087070470000F0B583B0EF
:103C700044F20004C4F202044FF4006004F58056DC
:103C80006D460027009030462946CDE90177FDF7C3
:103C9000B3F901208DF804004FF44A6000902046EB
:103CA0002946CDF80570FDF7A7F94FF44040009084
:103CB00030462946FDF7A0F9204620210022FDF7D5
:103CC000F9FA204680210022FDF7F4FA20464FF44D
:103CD00080610022FDF7EEFA20464FF400610022D9
:103CE000FDF7E8FA30464FF480410022FDF7E2FA92
:103CF00030464FF400410022FDF7DCFA0F208DF82A
:103D000004005020009020462946CDF80570FDF7AC
:103D100073F903B0F0BD00002DE9F04F9FB00DF135
:103D200004090446002748462C21CDE91277CDE945
:103D30001477CDE91677CDE90C77CDE90E7710979A
:103D4000ADF84470FCF73DFA2046FDF7E7FD48F278
:103D5000281AC2F2000ADAF8000012AEADF84E00DE
:103D600040F2011016902046092132468DF84D7020
:103D70001497ADF849708DF84B70CDE91877CDE9FF
:103D80001A77FDF74FFF20204FF0010818902046CA
:103D9000002132468DF859708DF86D708DF84B808A
:103DA0008DF868701997FDF73DFF4FF0040B204622
:103DB000022132468DF868701997CDF860B002255F
:103DC000FDF730FFDAF80000DAE9031280080CAEE4
:103DD000ADF83400ADF83610ADF838202046092192
:103DE00032468DF83080ADF832808DF83B80FEF79A
:103DF00049F82046002132468DF83C70FEF742F823
:103E0000204602213246FEF73DF808200990102096
:103E10000A90204600214A460397CDE9055BADF89C
:103E20001C708DF81E50ADF82C708DF82E508DF84A
:103E300004808DF80780FDF7F7FD204602214A46F1
:103E4000FDF7F2FD4FF080701C9040F20220C0F2AE
:103E500000101CADCDF87500204600212A468DF8D3
:103E60007480ADF879708DF87B70FDF7B9FB204652
:103E700003212A468DF87880FDF7B2FB2046FDF736
:103E800087FB20460921FDF781FD20460021FDF733
:103E90007DFD20460221FDF779FD1FB0BDE8F08FC2
:103EA00070B594B048F21410C2F2000043F67F617E
:103EB00040F67F44142240F69F73282580E82E00A8
:103EC000046148F22810C2F2000040F2DF1241F60D
:103ED0003F7342F21F1580E82E00016148F23C104A
:103EE0004BF20004C2F20000C4F2030480E82E008A
:103EF00001612046FFF710FF0AAD28462821FCF794
:103F000060F940F20110ADF838004FF6FF100026BE
:103F1000ADF82E00204601212A46ADF8246008960F
:103F2000CDE90666CDE90466CDE90266FDF77AFEC5
:103F30004FF48030009002208DF80A004FF480701A
:103F4000ADF808006A46204600210196FDF7EAF91F
:103F50004FF4FA70ADF8180004AA20460121FDF7CD
:103F600091FF20460121FDF711FD14B070BD000046
:103F70004BF61C70C4F20300016841F0330101608C
:103F8000704700004BF20400C4F20300016841F0E6
:103F9000807141F47F0101607047000010B54BF261
:103FA0000004C4F2030420460021FDF7F7FB20467D
:103FB0000321FDF7F3FB0220C4F8100F1020C4F812
:103FC000100F10BD4BF61870C4F20300016841F0E9
:103FD000330101607047000086B04FF48171ADF885
:103FE00004104CF2002141F26C00C0F6EB31C4F237
:103FF00002000291016811F5807F05D341F2002093
:10400000C0F27A0002E000BF0068000A48F2100522
:1040100003904FF00210C4F2000504900120ADF8A7
:10402000140005F5B83000F57F6001A9FEF7C0FE69
:1040300050B90298FFF79CFB01200421FEF708F914
:1040400001200121FEF7F8F944F20004C4F2020451
:10405000FDF7F6FF0420FEF7AFF83F200021002215
:10406000FEF764F83F20FEF747F8402002210122C6
:10407000FEF75CF8FFF7FAFDFFF712FFFFF7FAFC17
:10408000FFF780FFA5F1100000F0C0F80120FFF756
:10409000AFFAFFF75FFDFFF78DFDFFF725FDFFF797
:1040A0004BFDFFF7EDFC48F298074FF40076C2F2A3
:1040B000000700BF28688005FCD520464FF48061CA
:1040C00001222E60FDF7F6F80A200121FFF71AFA07
:1040D0003868C00708BFFFF7CBFAFFF7EDFA2046B4
:1040E0004FF480610022FDF7E5F8E3E77047000038
:1040F00070470000704700007047000070470000E4
:104100007047000080B5FFF749FFBDE88040FFF72A
:1041100059BF00007047000048F23000C2F20000B2
:10412000032181708188002904BF012181807047AB
:1041300080B5FFF71DFFFFF731FF48F29801C2F28B
:104140000001086820F0020248F20C00C2F20000F0
:104150000A60BDE88040FFF73FBD000070470000E7
:104160007047000048F20C000021C2F20000C4F2C7
:10417000402101604FF03F41C0E9051148F298002D
:10418000C2F20000016841F00201016070470000C6
:104190007047000048F23000C2F200000421817034
:1041A0008188002904BF01218180704710B5FFF785
:1041B000DFFEFFF7F3FE48F29804C2F20004206825
:1041C00020F00200206048F20C00C2F20000FFF76D
:1041D00003FDFCF7FBFA0020C4E9000010BD00005D
:1041E0007047000048F29800C2F200000068C00763
:1041F00008BF704748F23000C2F20000022181700F
:104200008188002904BF01218180704749F6FF7130
:10421000C4F20101884217DC4DF6FF71C4F20001BF
:10422000884227DD4EF20001C4F2000188423AD0F4
:1042300048F20001C4F20101884234D049F2000181
:10424000C4F201012CE000BF4AF6FF71C4F2020182
:1042500088421BDD4BF20001C4F20201884222D0E9
:1042600041F20001C4F2030188421CD00021C4F2D3
:10427000030115E048F20001C4F20001884212D0A7
:1042800049F20001C4F200010AE000BF4AF2000155
:10429000C4F20101884206D04AF20001C4F20201D0
:1042A000884218BF704710B586B00446FFF786FAFB
:1042B000002063210190CDE90300059001200291C7
:1042C00040F2E7318DF80400ADF80C108DF80F00C6
:1042D0008DF8100001A92046FEF766FF4FF400702C
:1042E00020614FF4807020612046FFF751F806B03E
:1042F000BDE81040704740F2A10CC1F2000C6047CD
:1043000040F2B50CC1F2000C604740F2DD0CC1F286
:10431000000C604740F2C90CC1F2000C604700007D
:104320000FB4054B10B503A9044A029800F018F821
:1043300010BC5DF814FB0000ED3B0008A0800020DD
:1043400002E008C8121F08C1002AFAD1704770475E
:10435000002001E001C1121F002AFBD170470000BC
:104360002DE9FF4F8DB00F460546002606E02528B3
:104370000BD0DDE90F1290476D1C761C28780028C1
:10438000F5D111B03046BDE8F08F0024A246A14619
:104390000122EC4900E0044315F8013F203B02FAFA
:1043A00003F00842F7D128782A2810D06FF02F02A6
:1043B0002878A0F13001092914D80AEB8A0102EB10
:1043C000410144F0020400EB010A6D1CF0E701CF4B
:1043D0005FEA000A03D544F40054CAF1000A44F02D
:1043E00002046D1C28782E2817D115F8010F44F00F
:1043F00004042A280ED06FF02F022878A0F1300193
:1044000009290AD809EB890102EB410100EB0109F6
:104410006D1CF2E757F8049B6D1C28786C280FD0B0
:1044200006DC4C2817D068280DD06A2814D104E087
:10443000742810D07A280FD10DE044F400140AE05B
:1044400044F4801401E044F440146978814202D1BC
:1044500004F580146D1C6D1C2A786E2A1FD00CDCAC
:10446000632A31D004DC002A8BD0582A11D1A3E072
:10447000642A68D0692A0CD165E0732A2ED004DC46
:104480006F2A73D0702A04D19BE0752A6FD0782AE6
:104490006ED01046DDE90F129047761C50E1C4F350
:1044A0000250022806D0032809D0042801CF09D0E1
:1044B000066045E101CFF117C0E9006140E101CF9D
:1044C00006803DE106703BE117F8040B8DF8000013
:1044D00000208DF80100EB46012003E057F804BBF3
:1044E0004FF0FF3061074FF0000102D40DE008F1FA
:1044F0000101884649450FDA8045F8DB1BF80810B2
:104500000029F4D108E008F1010188468142FADB74
:104510001BF808100029F6D1DDE90F23AAEB0800EB
:104520008146214600F036F9304400EB080604E0ED
:10453000DDE90F121BF8010B9047B8F10108F7D223
:1045400021464846F7E00A21C4F302534FF0000B1E
:104550000891022B04D001CFC117032B09D00AE028
:10456000FF1D27F00707F7E8020108E032E01FE02F
:1045700020E000B2C117042B01D140B2C117031EC5
:1045800071F1000307DA4FF0000CD0EB0C006CEB7C
:1045900001012D2302E0230504D52B238DF82430BF
:1045A000012303E0E30701D02023F7E7984658E012
:1045B0000A2110E010210EE010204FF0000B0890AF
:1045C0000CE010214FF0000B44F004044FF00809F8
:1045D000089103E008214FF0000B0891C4F3025347
:1045E000022B04D001CF0021032B06D006E0FF1DD3
:1045F00027F00707F7E8020103E080B2042B00D19F
:10460000C0B24FF0000823072BD5702A07D0DDF881
:1046100020C08CF0100C5CEA0B0C05D00EE040239F
:104620008DF82430012308E050EA010306D030233E
:104630008DF824308DF8252002239846DDF820C01F
:104640008CF0080C5CEA0B0C0BD150EA010301D191
:10465000630706D530238DF824304FF00108A9F107
:104660000109582A04D038A20B9208AA0A920BE03A
:104670003AA2F9E75B46089AFBF791FF0B9B9B5C1C
:104680000A9A521E0A92137050EA0102F2D10A9855
:10469000ADEB000000F1200B600702D524F480345C
:1046A00001E04FF00109D94502DDA9EB0B0000E064
:1046B000002000EB0B0141440890AAEB010AE00343
:1046C00006D4DDE90F232146504600F063F8064486
:1046D0004FF0000908E009A911F80900DDE90F12FF
:1046E000904709F10109761CC145F4DBE0030CD5C4
:1046F000DDE90F232146504600F04CF8064404E063
:10470000DDE90F1230209047761C0899481E08906A
:104710000029F5DC08E00A980A990078491C0A91FA
:10472000DDE90F129047761CBBF10001ABF1010BE4
:10473000F1DC21465046DDE90F2300F019F806446C
:104740006D1C1BE609280100303132333435363711
:1047500038396162636465660000000030313233CD
:10476000343536373839414243444546000000006D
:104770002DE9F041044600251E461746880404D45E
:1047800005E039462020B0476D1C641EF9D5284647
:10479000BDE8F0812DE9F041044600251E46904613
:1047A000C80301D5302700E02027880404D505E0A0
:1047B00041463846B0476D1C641EF9D52846BDE811
:1047C000F081000010B5044601E0FFF70FFA14F87D
:1047D000010B04490028F8D1BDE810400A20FFF77A
:1047E00005BA0000A080002000000000F940000889
:1047F00001410008FD400008AD410008E541000806
:10480000E141000805410008194100081541000870
:10481000654100089541000891410008ED400008FD
:10482000F5400008F14000083141000861410008EE
:104830005D41000800127A00002A7515010016007B
:1048400000800000030000000200000000127A0057
:104850000057A6160100170000C00000030000006A
:104860000200000000127A000084D717010019002E
:1048700000000000030000000200000000127A00A7
:1048800000B1081901001A000040000003000000F8
:104890000200000000127A0000DE391A01001B003D
:1048A00000800000030000000200000000127A00F7
:1048B000000B6B1B01001C0000C000000300000087
:1048C0000200000000127A0000389C1C01001E004B
:1048D000000000000300000002000000001BB70001
:1048E000002A751501000F00000000000300000001
:1048F00002000000001BB7000057A61601000F00C1
:1049000055D500000300000002000000001BB700A6
:104910000084D71701001000AAAA000003000000BD
:1049200002000000001BB70000B1081901001100CF
:10493000008000000300000002000000001BB70020
:1049400000DE391A01001200555500000300000076
:1049500002000000001BB700000B6B1B01001300DE
:10496000AA2A00000300000002000000001BB7009C
:1049700000389C1C0100140000000000030000002F
:104980000200000000127A0000E1F50501000600B7
:1049900000400000000000000200000000127A0049
:1049A00080778E060100060000E000000000000095
:1049B0000200000000127A00000E27070100070025
:1049C00000800000000000000200000000127A00D9
:1049D00080A4BF07010008000020000000000000C4
:1049E0000200000000127A00003B58080100080095
:1049F00000C00000000000000200000000127A0069
:104A000080D1F008010009000060000000000000F3
:104A10000200000000127A000068890901000A0003
:104A200000000000000000000200000000127A00F8
:104A300080FE210A01000A0000A000000000000022
:104A40000200000000127A000095BA0A01000B0073
:104A500000400000000000000200000000127A0088
:104A6000802B530B01000B0000E000000000000051
:104A70000200000000127A0000C2EB0B01000C00E3
:104A800000800000000000000200000000127A0018
:104A90008058840C01000D0000200000010000007F
:104AA0000200000000127A0000EF1C0D01000D0052
:104AB00000C00000010000000200000000127A00A7
:104AC0008085B50D01000E000060000001000000AF
:104AD000020000002E2E2F2E2E2F2E2E2F44726914
:104AE000766572732F544145333247353878785F95
:104AF0004472697665722F5372632F746165333225
:104B000067353878785F6C6C5F636F727465782E88
:104B10006300446F6E2774206D6174636820706C4D
:104B20006C305F696E5F667265712D5B25755D2007
:104B3000746F2067656E657261746520706C6C308F
:104B40005F6F75745F667265712D5B25755D2C20D6
:104B5000706C6561736520616464207468652063AE
:104B60006F6E66696720746F207263755F706C6C1E
:104B70005F636667206172726179210A005B45405C
:104B8000524355204C4C5D20002E2E2F2E2E2F2EC2
:104B90002E2F447269766572732F54414533324724
:104BA000353878785F4472697665722F5372632F57
:104BB000746165333267353878785F6C6C5F726327
:104BC000752E63002E2E2F2E2E2F2E2E2F4472691F
:104BD000766572732F544145333247353878785FA4
:104BE0004472697665722F5372632F746165333234
:104BF00067353878785F6C6C5F6770696F2E63001B
:104C0000496E76616C6964204361707475726520C9
:104C10004368616E6E656C2D5B25645D210A005BE7
:104C20004540544D52204C4C5D20002E2E2F2E2EF0
:104C30002F2E2E2F447269766572732F544145339F
:104C40003247353878785F4472697665722F5372CF
:104C5000632F746165333267353878785F6C6C5FC9
:104C6000746D722E63005B4540414443204C4C5DA3
:104C700020002E2E2F2E2E2F2E2E2F447269766579
:104C800072732F544145333247353878785F447218
:104C9000697665722F5372632F746165333267359D
:104CA0003878785F6C6C5F6164632E63002E2E2F02
:104CB0002E2E2F2E2E2F447269766572732F54413B
:104CC00045333247353878785F4472697665722F9C
:104CD0005372632F746165333267353878785F6C4F
:104CE0006C5F6461632E63005B4540434D50204C14
:104CF0004C5D20002E2E2F2E2E2F2E2E2F4472692B
:104D0000766572732F544145333247353878785F72
:104D10004472697665722F5372632F746165333202
:104D200067353878785F6C6C5F636D702E63002E2A
:104D30002E2F2E2E2F2E2E2F447269766572732FF2
:104D4000544145333247353878785F447269766527
:104D5000722F5372632F74616533326735387878F8
:104D60005F6C6C5F687270776D2E6300A04D0008F9
:104D7000000000105806000040430008F8530008E7
:104D80000080002030000000404300082854000844
:104D90003080002024010000504300080000000083
:104DA000704700BF704700BF704700BF70B54BF63B
:104DB000007EC4F2030EDEF8002048F2FF1C42EA37
:104DC0000C02CEF8002000BF00BF00BF00BF48F2B9
:104DD000281200BFC2F20002D2E90031D2E9020477
:104DE0004BF21405C4F20305C5F80811C5F80C010F
:104DF000C5F810411069C5F8140148F23C10C5F817
:104E00000031C2F2000090E85600C5F80823C5F84A
:104E10000C43C5F810630069C5F814039808C5F879
:104E200000132B60E86000BF00BF00BF00BF00BFE1
:104E3000DEF8000020EA0C00CEF8000070BD00BFD4
:104E400048F29000C2F20000016841F004010160E4
:104E500000F0A5BA48F29000C2F20000016841F0EB
:104E60000401016000F09BBA48F29000C2F2000019
:104E7000016841F00401016000F091BA48F290002D
:104E8000C2F20000016841F00401016000F087BA3D
:104E900048F21411C4F203018A6948F2500093B237
:104EA000C2F2000000EE103A90ED031AB8EE400A8C
:104EB0009FED235A80ED010A30EE410A20EE050AEB
:104EC00030EE010A028080ED030A90ED072A90ED92
:104ED0000B3A90ED0F4ACA6993B200EE103AB8EE61
:104EE000400A80ED050A30EE420A20EE050A30EE57
:104EF000020A028280ED070A0A6893B200EE103AB5
:104F0000B8EE400A80ED090A30EE430A20EE050AA9
:104F100030EE030A028480ED0B0A49688AB200EE83
:104F2000102AB8EE400A80ED0D0A30EE440A20EE59
:104F3000050A30EE040A018680ED0F0A704700BFB3
:104F40008D97EE3E48F21411C4F203018A6948F2CB
:104F5000500093B2C2F2000000EE103A90ED031A36
:104F6000B8EE400A9FED235A80ED010A30EE410A67
:104F700020EE050A30EE010A028080ED030A90ED72
:104F8000072A90ED0B3A90ED0F4ACA6993B200EEF2
:104F9000103AB8EE400A80ED050A30EE420A20EEE3
:104FA000050A30EE020A028280ED070A0A6893B20F
:104FB00000EE103AB8EE400A80ED090A30EE430ADE
:104FC00020EE050A30EE030A028480ED0B0A4968E0
:104FD0008AB200EE102AB8EE400A80ED0D0A30EEDB
:104FE000440A20EE050A30EE040A018680ED0F0A1D
:104FF00000F056B88D97EE3E10B590ED070A9FED84
:10500000261A90ED082A20EE010A22EE011A90EDF0
:10501000002A90ED013A90ED035A90ED046A32EEC9
:10502000432A25EE023A90ED024A33EE063AB4EEF8
:10503000403AF1EE10FAC8BFB0EE403AB4EE413A51
:1050400024EE022AF1EE10FAB8BFB0EE413A33EE88
:10505000022AB4EE402A80ED043AF1EE10FAC8BFFD
:10506000B0EE402AB4EE412A0446F1EE10FAB8BF81
:10507000B0EE412A12EE100A00F096F99FED040BF3
:1050800053EC102B00F095F900F098F9606110BD19
:10509000FCA9F1D24D62503F00007A4470470000F5
:1050A00080B500F090F90238022888BF80BD052045
:1050B000012100F08DF90520012100F08EF948F260
:1050C0009000C2F200000168C90706D10168890793
:1050D0005CBF00685FEA407004D5BDE8804000F026
:1050E0005EB900BF80BD000070B544F20006C4F296
:1050F000020648F2100530464FF400610122C4F266
:10510000030500F06FF969682868890740F1298173
:1051100010F0020000F025810220286006F5A03082
:10512000FFF710FF48F29800C2F200000068800705
:1051300040F1178148F25000C2F2000048F20C051D
:10514000C0680021C2F20005C4F24021C5E9001088
:105150002846FFF751FF95ED052AB7EE001A95EDA9
:10516000064AB4EE412ABEEE000AF1EE10FAC8BFBC
:10517000B0EE412AB4EE402AF1EE10FAB0EE403A19
:10518000B4EE414AC8BFB0EE423AF1EE10FAC8BFE1
:10519000B0EE414AB4EE404AB0EE402AF1EE10FAC9
:1051A000C8BFB0EE442AB4EE423AF1EE10FA85EDF3
:1051B000053A0BDD9FED704A32EE042AB4EE432A25
:1051C000F1EE10FAC8BFB0EE432A0FE0B4EE423A57
:1051D000F1EE10FA0ADA9FED674A32EE042AB4EED5
:1051E000432AF1EE10FA01DAB0EE432AB4EE412A76
:1051F000F1EE10FAC8BFB0EE412AB4EE402AB0EE8C
:10520000403AF1EE10FAC8BFB0EE423AB4EE413A7D
:1052100085ED063AF1EE10FAC8BFB0EE413AB4EEB1
:10522000403AF1EE10FAC8BFB0EE430AB5EE400ABC
:10523000F1EE10FA20DD9FED531A9FED532A20EE78
:10524000011A9FED523A31EE021A83EE011AB6EEC0
:10525000002A4FF0FF3131EE021ABCEEC11A11EEF6
:10526000100A420801EB5001431EB1F5F07F98BFD0
:105270004FF4F0711AE000BF9FED401A9FED402AF5
:1052800020EE011A31EE021ABCEEC11A11EE101A0C
:10529000B1F5F07F98BF4FF4F07141F63F70814255
:1052A00028BF01464FF4FA5243F67F6348F22815AF
:1052B000B5EE400AC2F200054FF4F07002F5F0744A
:1052C0000A44F1EE10FAC5E90030C5E902142A617A
:1052D0001EDD9FED2C1A9FED2D2A20EE010A9FED79
:1052E0002A1A4FF0FF3330EE010A82EE000AB6EEC2
:1052F000001A30EE010ABCEEC00A10EE102A510866
:1053000003EB5203013AB3F5F07F88BF184618E06B
:105310009FED1A1A9FED1A2A20EE010A30EE020ABA
:10532000BCEEC00A10EE101AB1F5F07F88BF084637
:1053300041F63F71884228BF08464FF4FA5143F6C0
:105340007F6248F23C13C2F200034FF4F07501F59E
:10535000F0740144C3E90025C3E902041961FFF7B1
:1053600025FD30464FF400610022BDE8704000F09A
:1053700039B800BFACC527B7ACC5273700F86A46B7
:1053800000FCF9450050C3C70050434820BC3E4FC5
:105390004BF20000C4F2030000F029B8704743F25A
:1053A000316CC0F6000C604740F2415CC0F6000C66
:1053B000604740F2273CC0F6000C604740F2675C53
:1053C000C0F6000C604743F2E55CC0F6000C604795
:1053D00043F6291CC0F6000C604743F26D5CC0F632
:1053E000000C604741F2B52CC0F6000C604741F25A
:1053F000FD7CC0F6000C6047010000000F000000BB
:1054000000127A000000404200000000000000404E
:105410000AD7A33C00000000000000BF000000BF4E
:085420000000803F000000BF06
:04000005080001A14D
:00000001FF
