:020000040800F2
:1000000000000120713C0008693C00080907000855
:10001000653C0008FD060008D93C0008000000000F
:10002000000000000000000000000000793C000813
:1000300001070008000000006D3C00087D3C00083E
:100040000507000805070008050700080507000860
:100050000507000805070008050700080507000850
:100060000507000805070008050700080507000840
:100070000507000805070008050700080507000830
:100080000507000805070008050700080507000820
:100090000507000805070008050700080507000810
:1000A0000507000805070008050700080507000800
:1000B00005070008050700080507000805070008F0
:1000C00005070008050700080507000805070008E0
:1000D00005070008050700080507000805070008D0
:1000E00005070008050700080507000805070008C0
:1000F00005070008050700080507000805070008B0
:10010000050700080507000805070008050700089F
:1001100005070008050700089D0D001005070008E9
:10012000050700080507000805070008050700087F
:10013000050700080507000805070008850D0010E1
:10014000050700080507000805070008050700085F
:100150005D0D0010F10600080507000805070008FE
:10016000050700080507000805070008050700083F
:10017000050700080507000805070008050700082F
:10018000050700080507000805070008050700081F
:10019000050700080507000805070008050700080F
:1001A000DFF80CD000F08CFA0048004749490008FD
:1001B00000000120D2B201E000F8012B491EFBD261
:1001C00070470022F6E710B513460A460446194662
:1001D000FFF7F0FF204610BD2DE9FE4F804681EA73
:1001E0000300C00F0C46009021F0004123F00045B1
:1001F000B8EB0200A94105D24046214690461C4674
:100200000B46024623F00040104347D0270DC7F3AA
:100210000A00C3F30A510290401A019040286BDA99
:10022000C3F3130040F4801B0098924620B10023D2
:10023000D2EB030A63EB0B0B01985946C0F1400265
:10024000504600F0AEF906460D4650465946019A12
:1002500000F0C6F910EB08006141002487EA115252
:1002600084EAE7731A4340D0009A62B3019A012AE4
:100270004FEA075215DC001B61EB02014FF0004210
:1002800002EA0752CDE90042001C41F580113246D6
:100290002B4600F0C6F903B0BDE8F08F404621467A
:1002A000F9E7001B61EB0201001C41F58013001807
:1002B0005B412018A2F5001747EB030140EAD57017
:1002C000B6196D4111E06D084FEA360645EAC07572
:1002D0004FEA0752001B61EB0201001C41F580113F
:1002E00049084FEA30000019514132462B4603B00D
:1002F000BDE8F04F00F086B90098012240000023CD
:10030000D0EB020263EBE073009821464FEAE07401
:10031000B8EB000061EB0401E9E783F000435BE721
:1003200081F0004158E72DE9FE4F81EA030404F013
:10033000004421F0004100944FF0000B23F00043F3
:1003400050EA01045ED052EA03045BD0C3F30A54BE
:10035000C1F30A552C44A4F2F3340194A0FB0254D7
:10036000C1F3130141F48011C3F3130343F4801369
:1003700001FB024400FB034E840A970A44EA8154BD
:1003800047EA8357A4FB076802958D0A05FB07859A
:100390004FEA932C04FB0C542705029D4FEA0658A4
:1003A00047EA1637B5EB08056EEB070C870E920E81
:1003B00047EA811742EA8312A7FB0201B6EB0B0161
:1003C00064EB00042B0D43EA0C335E1844EB1C5025
:1003D000DA465146E7FB0201C5F313044FEA0B333B
:1003E00043EA14534FEA0432019C43EA0603A4F1A2
:1003F0000C040294009CCDE900B400F012F903B0A3
:10040000BDE8F08F00200146F9E72DE9F04D81EAC3
:10041000030404F0004B21F0004514464FF0000A9D
:1004200023F0004150EA050220D054EA01021DD019
:10043000C5F30A570246C5F31303C1F31300C1F312
:100440000A5640F4801543F48013A7EB0608101BEE
:10045000D64608F2FD3873EB050002D308F1010817
:1004600001E092185B41B8F1000F03DA0020014669
:10047000BDE8F08D00204FF48011064684460EE062
:10048000171B73EB050705D3121B63EB050306432C
:100490004CEA010C49084FEA300092185B4150EADF
:1004A0000107EDD152EA030012D082EA040083EA88
:1004B0000501084305D0101BAB4106D201220023E1
:1004C00006E000224FF0004302E06FF001025310FB
:1004D0001AEB06004CEB085110EB0A0041EB0B0144
:1004E000BDE8F04D00F08EB80EB540F233410291F8
:1004F0000021CDE900110A460B4600F092F803B046
:1005000000BD70B5C1F30A5201F000450024C1F3EB
:10051000130140F2FF3341F480119A4201DA0020C6
:1005200070BD40F233439A42A2F2334203DC52429E
:1005300000F046F800E090402C43F1D0404270BDFE
:100540002DE9F05F0546002092469B468846064608
:10055000814640241BE0284641464746224600F09B
:100560002FF853465A46C01A914110D311461846E7
:10057000224600F016F82D1A67EB01084F46224676
:100580000120002100F00DF817EB00094E41201E5C
:10059000A4F10104DFDC484631462A464346BDE863
:1005A000F09F202A04DB203A00FA02F10020704775
:1005B0009140C2F1200320FA03F3194390407047A1
:1005C000202A04DB203A21FA02F00021704721FAA8
:1005D00002F3D040C2F1200291400843194670470F
:1005E000202A06DBCB17203A41FA02F043EAE073F7
:1005F00006E041FA02F3D040C2F1200291400843E4
:100600001946704710B5141E73F1000408DA401C37
:1006100041F1000192185B411A4301D120F0010021
:1006200010BD2DE9F04D92469B4611B1B1FA81F211
:1006300002E0B0FA80F220329046FFF7B2FF0446A3
:100640000F4640EA0A0041EA0B0153465A46084366
:1006500013D0114653EA010019D0C8F140025046A8
:10066000FFF7AEFF05460E46504659464246FFF795
:1006700098FF084305D0012004E020463946BDE834
:10068000F08D0020054346EAE0762C4337430A9874
:100690006305E40AA0EB08000022FD0A44EA47547F
:1006A0000A3002D500200146E9E701051019694129
:1006B000DDE9084500196941BDE8F04DA2E70000F9
:1006C0001CB509480090094801900546009C06E0C9
:1006D000E06840F0010394E8070098471034AC420A
:1006E000F6D3FFF761FD00001861000848610008BB
:1006F00048F20040C4F2030000F014BCFEE7000022
:1007000070470000FEE70000FEE7000070B50446F9
:10071000A0F18040A0F560304FEAB026042E0D46CF
:100720000AD29DB1287814281BD26878042823D2D5
:10073000032E2BD930E000BF46F21C00C0F60000AB
:1007400040F2B72103F0F6FC002DEBD146F21C007D
:10075000C0F600004FF42E7103F0ECFC287814284A
:10076000E3D346F21C00C0F6000040F2B92103F0CA
:10077000E1FC68780428DBD346F21C00C0F60000D8
:1007800040F2BA2103F0D6FC032E05D829781329AC
:1007900002D86878032801D9052070BD2268520765
:1007A0005CBF22685FEA02720ED545F6DF70C0F6C4
:1007B000000004F04FFB45F6EB70C0F6000004F0BB
:1007C0009BFD022070BD00BF0C2202EA51022244B0
:1007D0001C26136B06EA810103268E40B34300FA00
:1007E00001F6334313630823D2F830C001F1030E3E
:1007F00003FA01F1AB782CEA010603FA0EF3194073
:1008000031441163A98804EB8002C2F8A01041F2C0
:100810004001C4F20201096801F47F02E988B2F5DF
:10082000003F04F1C00294BF6FF39F316FF3DF31DB
:1008300042F82010002070BD70B50446A0F1804041
:10084000A0F560304FEAB026042E0D4606D27DB1E9
:100850002878142817D2032E1FD921E046F21C0055
:10086000C0F6000040F2922103F064FC002DEFD1AD
:1008700046F21C00C0F6000040F2932103F05AFC3F
:1008800028781428E7D346F21C00C0F600004FF485
:10089000257103F04FFC032E02D82878132801D9C4
:1008A000052070BD216849075CBF21685FEA0171BE
:1008B0000AD545F6DF70C0F6000004F0CBFA28A098
:1008C00004F01AFD022070BDA96804EB0012C2F802
:1008D000941141F24001C4F202010968AE8901F4A9
:1008E0007F0133466FF35F33B1F5003F88BF334676
:1008F000C2F89831D2F890116B7821F0040141EAE6
:100900008301AE7895F803C0C2F89011D2F8903107
:1009100002F5C87123F0080343EAC603C2F8903118
:1009200001228240BCF1010FD4F8843114BF23EAC4
:1009300002021A43C4F884212A79012303FA00F041
:10094000012AD4F88C2114BF22EA00001043C4F815
:100950008C01086840F001000860002070BD00BFF5
:1009600041444320444D412063616E277420436F0E
:100970006E666967207768696C65206974277320E3
:1009800052756E6E696E67210000000070B50446F6
:10099000A0F18040A0F560304FEAB026042E0D464D
:1009A00007D346F21C00C0F6000040F2291103F004
:1009B000C1FB9DB1032E19D8206840075CBF206899
:1009C0005FEA007014D545F6DF70C0F6000004F051
:1009D00041FA39A004F090FC022070BD46F21C00E0
:1009E000C0F600004FF4957103F0A4FB052070BD24
:1009F000E86845F26C36C0F60006002818BF0646C7
:100A0000204600F06BF8A06840F00800A060A068E5
:100A100040F00200A060A06840F00100A060D4F89F
:100A20000003298861F31120C4F80003D4F80003FF
:100A3000A978EA7861F30300C4F80003606862F300
:100A4000CF306060A068317861F30510A06041F29A
:100A50004000C4F20200006800F47F00B0F5003FDF
:100A60000AD9012001F02CFE30B17078616821F4C0
:100A7000804160F38E316160291D204600F08EF8C0
:100A8000002818BF70BD206840F00100206000F011
:100A90005FFF05462069C00508D400F059FF401BE0
:100AA00064284FF00300F5D970BD00BF4FF480708B
:100AB0002061002070BD00BF4144432063616E2768
:100AC0007420496E6974207768696C6520697427A1
:100AD000732052756E6E696E67210000B0B584B0E8
:100AE0000446A0F18040A0F560304FEAB020042811
:100AF00004D324A040F2631103F01CFB00200390F8
:100B0000CDE9010048F20040C4F2030084424FF0F6
:100B10000F008DF808001BD048F20000C4F203005B
:100B200084422CD144F200040620C4F2020401AD38
:100B300001902046294600F0ADFD0120019004F50A
:100B40008050294600F0A6FD01F056FE402014E03A
:100B500044F200041020C4F2020401AD019004F537
:100B60000050294600F096FD50200190204629466D
:100B700000F090FD01F058FE442001F0C1FD04B0EA
:100B8000B0BD00BF2E2E2F2E2E2F2E2E2F415050B7
:100B90002F6164635F6170702E63000070B504465E
:100BA000A0F18040A0F560304FEAB026042E0D463B
:100BB00007D346F21C00C0F600004FF4D67103F0D4
:100BC000B9FA9DB1032E19D8206840075CBF206890
:100BD0005FEA007014D545F6DF70C0F6000004F03F
:100BE00039F91DA004F088FB022070BD46F21C00FC
:100BF000C0F6000040F2AD1103F09CFA052070BD74
:100C000060686A78297862F30B20AB78EE786060D0
:100C1000606806F0010263F30610606060680129F5
:100C200020F0800040EAC21060602879626822F0FB
:100C30000102104460606879626822F0020260F389
:100C400041026260606814BF20F4805040F480501C
:100C50006060002070BD00BF414443204F76657244
:100C600073616D706C652063616E277420436F6ED5
:100C7000666967207768696C6520697427732052FC
:100C8000756E6E696E67210070B50446A0F18040F4
:100C9000A0F560304FEAB026042E0D460AD29DB171
:100CA000687814281BD22878102823D2032E2BD939
:100CB00030E000BF46F21C00C0F6000040F2EF1129
:100CC00003F038FA002DEBD146F21C00C0F600000C
:100CD0004FF4F87103F02EFA68781428E3D346F243
:100CE0001C00C0F6000040F2F11103F023FA28784E
:100CF0001028DBD346F21C00C0F600004FF4F97157
:100D000003F018FA032E05D86878132802D829783A
:100D10000F2901D9052070BD2268520740D4CAB2FC
:100D2000CD235A43920A04EB820302EB8202891A12
:100D300001EB410149001E6CC9B21F228A4026EA1C
:100D4000020200FA01F111431964A269EE7801214F
:100D5000814006F001068A438640324395F802C07E
:100D60002D79A2610C2202EA500222441C23166A49
:100D700003EA80000723834026EA030305F0070601
:100D800006FA00F018431062D4F80401BCF1010F18
:100D90001ABFC94308400843C4F80401002070BDCD
:100DA00045F6DF70C0F6000004F054F802A004F02D
:100DB000A3FA022070BD00BF41444320526567750D
:100DC0006C6172204368616E6E656C2063616E2792
:100DD0007420436F6E666967207768696C65206967
:100DE0007427732052756E6E696E672100000000D3
:100DF00070B50446A0F18040A0F560304FEAB026FF
:100E0000042E0D4607D346F21C00C0F6000040F247
:100E1000CD1103F08FF95DB3032E31D82068400760
:100E200030D460686A78297862F3D750AB78EE786E
:100E30006060606863F353406060606820F48030F5
:100E400061F310406060206D66F30B202065206D1B
:100E5000297920F0C00001F0030140EA81102065EB
:100E6000206D697961F304002065002070BD00BF2A
:100E700046F21C00C0F600004FF4E77103F05AF987
:100E8000052070BD45F6DF70C0F6000003F0E2FFFC
:100E900002A004F031FA022070BD00BF414443209B
:100EA000526567756C617220436F6D6D6F6E206364
:100EB000616E277420436F6E666967207768696C7E
:100EC0006520697427732052756E6E696E67210004
:100ED0007047000070470000704700007047000036
:100EE0007047000070470000704700007047000026
:100EF0007047000070470000704700007047000016
:100F00007047000070470000704700007047000005
:100F100070470000704700007047000070470000F5
:100F2000704700002DE9F04381B00446A0F18040F5
:100F3000A0F560304FEAB020042821D2D4F8045143
:100F4000D4F8006145F21C3900274FF00108C0F6C3
:100F5000000902E00137142F1ED008FA07F02842DA
:100F600018BF10EA0601F5D0C4F8000159F827109F
:100F700020468847F9B22046FFF7D2FFEAE700BFD4
:100F800046F21C00C0F6000040F2346101B0BDE83A
:100F9000F04303F0CFB800BF01B0BDE8F08300001C
:100FA00070B50446A0F18040A0F568304FEA3020CB
:100FB00008280D4622D865B341F240062046C4F207
:100FC000020600F06FF8206820F001002060306811
:100FD00000F47F00B0F5003F24D9042001F070FB3D
:100FE00028B3687A3168012801F47F0052D1B0F546
:100FF000003F1CD9206840F4006017E046F29E00D4
:10100000C0F60000432103F095F8002D1CBF052019
:1010100070BD46F29E00C0F60000442103F08AF83D
:10102000052070BD2068A97961F3CB20206020687D
:10103000E97920F0C00001F0030140EA811020604E
:101040002068297A61F3C300206020682B79297811
:1010500063F305106A78EE78206020686B7963F39B
:101060000A2020606660A06820F001000844A060AB
:10107000A06820F0020062F34100A060A978206817
:10108000012914BF20F4805040F4805020600020DB
:1010900070BD00BFB0F5003FC9D9206820F40060E2
:1010A000C4E7000010B584B0A0F18040A0F568301E
:1010B0004FEA3024092C03D316A0522103F03AF84A
:1010C0000020082CCDE9020001901FD844F2000155
:1010D000C4F2020101F580500222DFE804F010059D
:1010E0001717171717090D000822084607E000BF59
:1010F0004FF48072084602E001F5005020220F21D3
:101100008DF8081001A9019200F0C4FA01F0F0FB7B
:1011100004B010BD2E2E2F2E2E2F2E2E2F415050CC
:101120002F636D705F6170702E630000A0F18041CD
:10113000A1F568314FEA3121092905D2016841F052
:10114000010101600020704780B546F29E00C0F6A4
:101150000000AF2102F0EEFF052080BDB0B5A0F188
:101160008042A2F564324FEA3222082A0C4621D886
:101170005CB3054600F032F8286820F001002860D2
:101180002868217820F0080061F3C3006278A37812
:1011900028602868012B20F0040062F38200286098
:1011A000286814BF20F0020040F0020028600020F0
:1011B000B0BD00BF46F25700C0F60000432102F068
:1011C000B9FF002C1CBF0520B0BD46F25700C0F689
:1011D0000000442102F0AEFF0520B0BDA0F1804028
:1011E000A0F564304FEA3020092838BF01F094BBE5
:1011F00080B504A04A2102F09DFFBDE8804001F0C7
:101200008BBB00BF2E2E2F2E2E2F2E2E2F41505057
:101210002F6461635F6170702E630000A0F18041F4
:10122000A1F564314FEA3121092905D2016841F065
:10123000010101600020704780B546F25700C0F6FA
:101240000000EE2102F076FF052080BDA0F1804273
:10125000A2F564324FEA3222092A05D26FF31F3118
:1012600041600020704700BF80B546F25700C0F6CD
:10127000000040F2171102F05DFF052080BD000064
:101280002DE9F04381B042F20007C4F20207144690
:101290000646B8420D4606D045F6A470C0F60000DA
:1012A000812102F047FF062D06D345F6A470C0F653
:1012B0000000822102F03EFF34B3BE424FF0050031
:1012C00040F06181052D00F25E8141F20C09C4F20B
:1012D0000209D9F83400C0F30740022820D8B4F935
:1012E00006001D2803DCB4F908001E2818DB45F6AB
:1012F0004A70C0F6000003F0ADFDDBA003F0FCFF78
:10130000042001B0BDE8F08345F6A470C0F60000EB
:10131000832102F00FFF052001B0BDE8F08300BF7C
:1013200006EB4516606A56F80C2FCEA1002818BFB0
:10133000014622F040600A784B7802F0030240EA4E
:1013400082608F78C9783060306803F0030220F043
:10135000405040EA02703060306807F0010220F02F
:10136000804040EA82703060306820F0004040EAFF
:10137000C170306030682178627861F305103060A8
:10138000306862F3C30030603068A17861F3861082
:1013900030603068E17820F0800001F0010140EA1F
:1013A000C11030603068217961F30D3030603068F1
:1013B000617961F38F303060D9F8340000F47F0038
:1013C000B0F5003F26D940F200082020CFF6F8788B
:1013D00001F076F9C0B394F8281094F82900A1B36D
:1013E00094F82A10FF2968D048F2E472C9F838202E
:1013F00001F01F02012303FA02F2D9F8003002EAD9
:1014000008021A43C9F80020326861F314423260BE
:101410004FE000BFE1884FF6FF70814207D032688D
:1014200001F01F0122F4F81242EA014131602189E2
:10143000814200F09280306801F01F0120F0787046
:1014400040EA4150306088E00020E188162915D834
:1014500048F2E472C9F8382001228A4008F10043BA
:10146000D9F800701A4027EA0202C9F80020326851
:1014700022F4F81242EA01411AE000BF1D2900F2ED
:10148000858001228A4012F02A5F00F07F8048F2B6
:10149000E473C9F8383008F10043D9F800701A40F5
:1014A0003A43C9F80020326822F4F81202EB0141F5
:1014B00031604FF48031C9F83810C8B194F82B006E
:1014C000FF284AD048F2E471C9F8381000F01F0133
:1014D000012202FA01F1D9F8002001EA08011143C2
:1014E000C9F80010316860F35951316031E000BF34
:1014F0002089162814D848F2E471C9F8381001215F
:10150000814008F10042D9F80030114023EA01017E
:10151000C9F80010316821F0787141EA405017E0B5
:101520001D2847D80121814011F02A5F42D048F29E
:10153000E472C9F8382008F10042D9F800301140AF
:101540001943C9F80010316821F0787101EB40505F
:1015500030604FF48030C9F8380048F28001C5EBA4
:10156000C500C2F2000104F10C0701EB80008ECF30
:1015700000F1080C8CE88E00D4E90721C0E90621AF
:1015800001210171002001B0BDE8F08341F2170292
:101590008A1A082A22D848F2E472C9F8382001F0E1
:1015A0001F0101228A40D9F8003002EA080223EA2A
:1015B00002025AE741F21701411A082922D848F2DB
:1015C000E471C9F8381000F01F0001218140D9F8FA
:1015D000002001EA080122EA010199E744F213021E
:1015E0008A1A0A2A22D848F2E472C9F8382001F08F
:1015F0001F0101228A40D9F8003002EA08021A438A
:1016000033E700BF44F21301411A0A291CD848F2FB
:10161000E471C9F8381000F01F0001218140D9F8A9
:10162000002001EA0801114372E700BF4FF6FF7284
:1016300091423FF442AF326801F01F0122F4F812E8
:1016400042EA0141316038E74FF6FF7188423FF4CA
:1016500084AF316800F01F0021F0787141EA4050FA
:10166000F0E600BF00000001546865206861726404
:10167000776172652076657273696F6E206E6F2078
:10168000737570706F7274207468697320656E75FD
:101690006D2100002DE9F04F81B08046A0F180401F
:1016A000A0F510304FEA3036062E8A460AD2BAF13B
:1016B000000F11D0DAF800000021B1EB104F19D063
:1016C000D0E000BF45F22370C0F60000462102F0D2
:1016D00031FDBAF1000FEDD145F22370C0F60000E4
:1016E000472102F027FDDAF800000021B1EB104F8E
:1016F00040F0B88080B2002800F0B480052E00F2DF
:10170000BB80DAF800100020B0EB114F4FF005005D
:1017100040F0B78089B2002900F0B38008F12409B5
:1017200008F1200C00274FF0010E4FF0000B0026AF
:1017300008E000BF01360BF1020B102E07F1040781
:1017400000F09E80DAF800000EFA06F10840F1D0B1
:101750009AF804104A1E0F2A5CD23A464B46082ECD
:101760002CBF02F01C0263461D680F249440A54361
:101770009140294319609AF808100029D8F83810C8
:1017800014BF01438143C8F838109AF807100029A4
:10179000D8F8481014BF084321EA0000C8F84800F0
:1017A000D8F8300003219AF8052001FA0BF188439C
:1017B00002F0030101FA0BF10843C8F8300041F2CE
:1017C0004000C4F20200006800F47F00B0F5003F62
:1017D000B0D98020644600F073FF4FF0010EA4469C
:1017E0000028A7D09AF80910DAF80000CA07D8F83C
:1017F00040200CBF82430243C8F8402089074FEACB
:101800000040D8F8401054BF21EA00000843C8F84F
:1018100040008FE7C1BB39464A46082E2CBF01F075
:101820001C01624613680F2404FA01F123EA010146
:1018300011609AF806100029B2D0D8F814200323BA
:1018400003FA0BF301F003019A4301FA0BF1114380
:10185000C8F81410C8F81800D8F810100843C8F8D1
:1018600010009DE745F22370C0F60000482102F009
:1018700061FC052E7FF645AF052001B0BDE8F08F75
:10188000002001B0BDE8F08F06A003F0E3FA9AF85B
:10189000043008A04146324603F0DCFA012001B0D2
:1018A000BDE8F08F5B45404750494F204C4C5D20D0
:1018B000000000004750494F2D5B307825303878C4
:1018C0005D2050696E2D5B25645D20616C746572CE
:1018D0006E6174652066756E6374696F6E205B253A
:1018E000645D20636F6E666967204572726F722156
:1018F00021210A0010B5A0F18042A2F510324FEA72
:101900003232052A0C460BD80021B1EB144F16D108
:10191000A1B2A1B14068204018BF012010BD00BF96
:1019200045F22370C0F60000FD2102F003FC002008
:10193000B0EB144F03D1A1B2002918BF10BD45F27E
:101940002370C0F60000FE2102F0F4FB002010BD61
:1019500048F21470C2F20000006870472DE9F041AF
:101960004BF60078C4F20308A8F5706714460646E3
:10197000B8420D4607D046F2D900C0F6000040F24A
:10198000152102F0D7FB002C2CD00A2D34D2BE42F8
:101990004FF0050040F01381002C08BFBDE8F08136
:1019A0004BF65870C4F20300DFE805F006A0567449
:1019B00032B6D08EE24400BFD4E9001240F8281CB1
:1019C00040F8242C50F8541C627A62F3134140F81A
:1019D000541CD8F80010A27A62F31341C8F8001022
:1019E000D7E000BF46F2D900C0F6000040F2162151
:1019F00002F0A0FB0A2DCAD346F2D900C0F60000BF
:101A000040F2172102F096FB0520BDE8F08100BFEF
:101A100050F8081C2268890961F39F1240F8082CCD
:101A20004168627A62F3030141600168A27A62F35D
:101A30000301ADE050F8041C228862F3154140F820
:101A4000041C4168627AA37A62F31751416001680D
:101A500063F317519CE000BFD4E9001240F8181C52
:101A600040F8142C50F8541C627A21F0706102F096
:101A70000F0241EA026140F8541CD8F80010A27A23
:101A800021F0706102F00F0241EA0261C8F8001013
:101A90007FE000BFD4E9001240F8101C40F80C2C85
:101AA00050F8541C627A21F0704141EA027140F80A
:101AB000541CD8F80010A27A21F0704141EA02715A
:101AC000C8F8001065E000BF50F8041C22688909BE
:101AD00061F39F1240F8042C4168627A62F30F317F
:101AE00041600168A27A62F30F3151E0D4E900123B
:101AF00040F8201C40F81C2C50F8541C627A62F309
:101B0000175140F8541CD8F80010A27A62F317510C
:101B1000C8F800103DE000BF50F8081C226862F3CE
:101B20000D2140F8081C4168627A21F0F00102F0B2
:101B30000F0241EA021141600168A27A21F0F0012E
:101B400002F00F0241EA021122E000BF50F8081C27
:101B5000228862F3154140F8081C4168627AA37A32
:101B600062F30B214160016863F30B2110E000BFB9
:101B700050F8041C226862F30D2140F8041C4168EF
:101B8000627A62F3134141600168A27A62F3134101
:101B900001600821042D88BF0C214258052D28BF63
:101BA000053D05EB45035B001F27267A9F40BA439E
:101BB00006F01F0707FA03F31A4342500020BDE85E
:101BC000F0810000704700004BF20001C4F20301F5
:101BD00088420BD080B546F2D900C0F6000040F232
:101BE0005A4102F0A7FA052080BD00BF4BF668708D
:101BF000C4F20300016841F001010160016841F095
:101C00000801016000207047704700007047000025
:101C100070470000704700002DE9F0474BF20007C5
:101C2000C4F2030714460646B8420D4607D046F2F2
:101C3000D900C0F6000040F2FF1102F07BFA002C40
:101C400000F0B280082D80F0BA80BE424FF005004F
:101C500018BFBDE8F087002C00F0A4804BF6807020
:101C6000C4F2030050F8081CA77821F0404141EA73
:101C700087712278637894F805E040F8081C50F8E2
:101C80006C1C4FF0020C21F00101114440F86C1C57
:101C900050F86C1C0C2221F4004163F3CF3140F862
:101CA0006C1C50F8101C277AAB0007F003079E1C31
:101CB0009A40B74091433A40114440F8101C50F804
:101CC000102CE67903F1010806F001060CFA03F97D
:101CD00006FA08F622EA090706EA09063E446FF00A
:101CE000170240F8106C6FF00706052D02EB850215
:101CF00088BF6FF003063758062D38BFAA00D2B24E
:101D00004FF00F0A0AFA02F127EA01010EF00F075D
:101D100007FA02F2114331508168A7790AFA03F2F7
:101D2000914307F00F029A40114381600168677A7E
:101D3000082207F00107DE1C9A40B74091433A4061
:101D40001144016021790CFA05F7012950F86C1C47
:101D500014BF21EA070641EA070640F86C6CE178F7
:101D60000122012902FA03F350F8101C14BF21EAE2
:101D7000030641EA030640F8106C0168E27A6FEA54
:101D8000090702F0010202FA08F2394002EA0902E8
:101D90001143A77A01600168012F14BF99431943C9
:101DA00001600020BDE8F08746F2D900C0F60000CF
:101DB0004FF4007102F0BEF9082DFFF446AF46F271
:101DC000D900C0F6000040F2012102F0B3F905206D
:101DD000BDE8F08770B54BF20004C4F20304A042E2
:101DE0000AD046F2D900C0F600004FF4E761BDE822
:101DF000704002F09FB900BF4BF61470C4F20300AC
:101E00000668D4F8105FB00708D515F0020005D0B9
:101E10000220C4F8100F204603F008F8700708D518
:101E200015F0040005D00420C4F8100F2046FFF779
:101E3000EBFE300708D515F0080005D00820C4F8DF
:101E4000100F2046FFF7E2FEF00608D515F010004F
:101E500005D01020C4F8100F204602F0ECFFB006A9
:101E600008D515F0200005D02020C4F8100F20461A
:101E7000FFF7CEFE700608D515F0400005D04020D3
:101E8000C4F8100F2046FFF7C5FE300608D515F040
:101E9000800005D08020C4F8100F204602F0D0FF4B
:101EA000F00509D515F4807006D04FF48070C4F8A1
:101EB000100F204602F0C9FFF00718BF15F001000F
:101EC00005D00120C4F8100F204600F011F83004AE
:101ED00058BF70BD15F4004008D04FF400412046B3
:101EE000C4F8101FBDE87040FFF76CBE70BD000065
:101EF0007047000080B501464BF20000C4F20300B9
:101F0000814209D046F2D900C0F60000842102F0D7
:101F100011F9052080BD00BF00F002F8002080BD4F
:101F200070B584B0002045F20004ADF80B004FF40A
:101F30004050C4F2020401AD01900E26204629460D
:101F4000ADF80860FFF7A6FB4FF440400190204633
:101F500029468DF80860FFF79DFBC02004F58054EA
:101F60000190204629468DF80860FFF793FB4FF457
:101F700040700190204629468DF80860FFF78AFBE3
:101F800000F0A2FD362000F0BBFB3F2000F0B8FBC4
:101F900004B070BDF0B581B04BF20002C4F2030290
:101FA00090420BD040F20C4146F2D900C0F600003E
:101FB00002F0C0F8052001B0F0BD00BF0D46FFF7EC
:101FC000C7FC092D044611D14BF60875C4F2030570
:101FD000286840F0010028602868C00720D0FFF77B
:101FE000B7FC001B6428F7D917E000BF072D1BD8EA
:101FF0004BF60876C4F203060220316800FA05F7B2
:1020000041EA07000135306030683840E84007D0C9
:10201000FFF79EFC001B6428F6D9032001B0F0BD39
:10202000002001B0F0BD00BF40F21F41BCE700003E
:10203000F0B581B04BF20007C4F203071446064620
:10204000B8420D4607D046F2D900C0F6000040F273
:10205000951102F06FF8002C00F0D280082D80F06E
:10206000DA80BE424FF0050040F0C880002C00F03E
:10207000C580206907EB0521C1F838016069C1F806
:102080003C01D1F87001227E62F30000C1F87001BA
:10209000D1F87001627E62F3C300C1F87001D1F81B
:1020A0007001A27E62F34200C1F87001D1F87001A4
:1020B000227B20F0400062F38610637BC1F8700140
:1020C000D1F8700120F0200063F34510C1F87001D1
:1020D000206AC1F84001606AC1F84401D1F870017A
:1020E00094F8282062F31040C1F87001D1F8700113
:1020F00094F8292062F3D340C1F87001D1F870013F
:1021000094F82A2062F35240C1F87001E07ED1F8C1
:10211000702122F4800260F39652C1F87021207F72
:10212000D1F870314BF6047223F4001360F3555369
:10213000C1F87031D1F87001E37A20F0605003F0FB
:10214000070340EAC360C1F87001637AD1F8707187
:1021500001F5807027F0804763F39E77C1F87071B6
:10216000217A0123C4F20302012903FA05F113685D
:1021700014BF23EA010119431160A17A026F22F012
:10218000007261F359620267416F227821F0010108
:1021900011446378A778E6784167416F21F0020126
:1021A00063F341014167416F21F0040167F382014C
:1021B0004167416F21F0080166F3C301416721794E
:1021C000426F22F0100261F3041242676179426F9C
:1021D00022F0200261F345124267A179426F22F09A
:1021E000400261F386124267E279416F002A14BF10
:1021F00041F0800121F080014167002001B0F0BD75
:1022000046F2D900C0F600004FF4CB7101F092FF06
:10221000082DFFF426AF46F2D900C0F6000040F2C8
:10222000971101F087FF052001B0F0BDB0B514464D
:102230004BF20002C4F2030290420BD046F2D900E6
:10224000C0F60000F32101F075FF002C1CBF052033
:10225000B0BD5DE0002C5BD0092963D1D068A168D6
:10226000400A60F35F21D1604FF6FF71D068C8F279
:10227000000101F1FC410840E1680023C0F2FF13B6
:1022800019400844D0601068217C61F3020010609E
:102290001068617C61F3C3001060607921789061FF
:1022A000E0885061106820F0404040EA8170106082
:1022B000E078116821F0100160F304111160A0783A
:1022C000116821F4806160F38A21116060781168DF
:1022D00021F4006160F3CB2111602079D2F8901FC6
:1022E00021F4803160F31041C2F8901F1068E17C46
:1022F00020F0C00001F0030140EA81101060A07CD2
:10230000116821F0200160F3451100201160B0BD7B
:1023100046F2D900C0F60000F42101F00BFF0520C1
:10232000B0BD00BF082980F0A78002EB0123D3F8DD
:102330000CC1D4F808E04FEADC3060F3DF3EC3F8AC
:102340000CE1D3F80CC1E08903F5807560F31E4CF5
:10235000C3F80CC1D3F800C1207C60F3020CC3F8B1
:1023600000C1D3F800C1607C60F3C30CC3F800C1A6
:10237000607994F803C0C3F81801E088C3F8140129
:10238000D3F8000120F010006CF30410C3F8000132
:1023900094F802C0D3F8000120F480606CF38A2026
:1023A000C3F8000194F801C0D3F800E12EF40060F6
:1023B0006CF3CB20C3F8000120794FF4003303FA0B
:1023C00001F10128D2F8900F14BF20EA0101014366
:1023D000C2F8901FD4E906106965A865286894F8CA
:1023E000201061F3492028602868E17C20F0C000BB
:1023F00001F0030140EA8110A27C2860286820F0E7
:10240000200062F345102860286894F8251020F019
:10241000704040EA01702860286894F8261061F343
:1024200011402860286894F8271061F393402860D1
:1024300094F82100296821F4807160F30821296053
:1024400094F82200296821F4801160F31451296066
:1024500094F82300296821F4001160F35551296094
:1024600094F824002968012814BF21F4800041F465
:10247000800028600020B0BD46F2D900C0F6000000
:1024800040F6B80101F056FE0520B0BD10B5144667
:102490004BF20002C4F2030290420DD046F2D90082
:1024A000C0F6000040F2071101F044FE002C1CBFF2
:1024B000052010BD22E000BF04B3092928D160889F
:1024C000D061A0881062E088506220899062106814
:1024D000217820F0007061F35960A37AE47A1060EB
:1024E000106820F0006063F3DB601060106820F07B
:1024F000806064F39A601060002010BD46F2D9003D
:10250000C0F600004FF4847101F014FE052010BDE8
:10251000082980F08180638802EB0120C0F81C311B
:10252000A188C0F82011E188C0F824112189C0F8E1
:102530002811D0F80011227821F0007162F359615E
:10254000A37A94F80BC094F80CE0C0F80011D0F80E
:10255000001121F0006163F3DB61C0F80011D0F8D5
:10256000001121F080616CF39A61C0F80011D0F87D
:10257000041121F480316EF31041C0F80411617B25
:10258000D0F8042122F4003261F35142C0F8042152
:10259000A17BD0F8042122F4802261F39242C0F89A
:1025A0000421E17BD0F8042122F4002261F3D3421C
:1025B000C0F80421217CD0F8042122F4801261F3B8
:1025C0001452C0F80421617CD0F8042122F40012D6
:1025D00061F35552C0F80421A17CD0F8042122F403
:1025E000800261F39652C0F80421E17CD0F8042106
:1025F00022F4000261F3D752C0F80421227DD0F802
:10260000041100F58270012A14BF21F0807141F09D
:1026100080710160002010BD46F2D900C0F60000B4
:1026200040F6221101F086FD052010BD48F20000A1
:1026300048F21471C2F20000C2F2000100780A6888
:10264000104408607047000010B543F20000C4F267
:102650000200016841F010010160016841F02001B1
:102660000160032000F0ACF80F2000F005F80446EC
:1026700000F032F8204610BDB0B548F20005C2F2B5
:102680000005297861B1044600F0B0FE29784FF4C6
:102690007A72B2FBF1F1B0FBF1F001F041F808B150
:1026A0000420B0BD0F2C84BF0120B0BD4FF0FF301F
:1026B0002146002200F03EF800206C60B0BD000012
:1026C00048F22C11C2F2000109680140081AB0FA60
:1026D00080F040097047000080B500F059F900F023
:1026E0006BF900F07DF900F08FF900F0A1F900F02E
:1026F000B3F900F025F9BDE8804000F035B90000DD
:10270000B0F1FF3F0EDD00F01F01012202FA01F1DE
:102710001C2202EAD0004EF20012CEF200028150DA
:10272000704700BF45F23360C0F6000040F20B1165
:1027300001F000BD70B515460E46102A044606D3BA
:1027400045F23360C0F60000C62101F0F3FC102E04
:1027500006D345F23360C0F60000C72101F0EAFC61
:1027600045EA06000F2888BF70BD4EF60C50CEF229
:10277000000001684FF0FF33C1F3022181F007022E
:10278000042A28BF0422033903FA02F238BF0021C9
:1027900026EA02028A4003FA01F125EA0101114307
:1027A00004F00F02043A104404F16042090102F5FA
:1027B0006442002C48BF00F10C02117070BD000093
:1027C000C11E052910D24EF60C51CEF200010A6846
:1027D0004FF6FF031A4042EA002040F0806040F0CC
:1027E000FD700860704700BF45F23360C0F600001E
:1027F0008C2101F09FBC00004C2048F2E471C4F22F
:102800000200C3F6AC714163016941F00801016146
:10281000016841F001010160016A41F008010162B3
:1028200001214163704700004C2048F2E471C4F27A
:102830000200C3F6AC714163016941F0100101610E
:10284000016841F002010160016A41F00801016282
:1028500001214163704700004A1E102A1CD2382211
:1028600048F2E473C4F20202C3F6AC7393641368D3
:1028700000F0030023F00C0343EA80001060F02313
:10288000106903EB0111090961F3071010610120C0
:1028900090640020704700BF80B545F2E860C0F644
:1028A000000040F2131101F045FC052080BD00003E
:1028B00048F208003021C2F20000C4F202010068B0
:1028C0000968C1F303210131B0FBF1F0704700004A
:1028D00048F208003021C2F20000C4F20201006890
:1028E0000968C1F303310131B0FBF1F0704700001A
:1028F0005C2048F2E471C4F20200C3F6AC7141629C
:10290000016841F480710160016941F020010161B9
:1029100001214162704700005C2048F2E471C4F27A
:102920000200C3F6AC714162016841F080010160B0
:10293000016941F01001016101214162704700000D
:10294000582048F2E471C4F20200C3F6AC7181620F
:10295000016841F001010160016941F0010101617B
:102960000121816270470000582048F2E471C4F2EE
:102970000200C3F6AC718162016841F0020101609E
:10298000016941F00201016101218162704700008B
:10299000582048F2E471C4F20200C3F6AC718162BF
:1029A000016841F004010160016941F00401016125
:1029B0000121816270470000582048F2E471C4F29E
:1029C0000200C3F6AC718162016841F00801016048
:1029D000016941F008010161012181627047000035
:1029E000582048F2E471C4F20200C3F6AC7181626F
:1029F000016841F010010160016941F010010161BD
:102A00000121816270470000582048F2E471C4F24D
:102A10000200C3F6AC718162016841F020010160DF
:102A2000016941F0200101610121816270470000CC
:102A3000582048F2E471C4F20200C3F6AC7181621E
:102A4000016841F040010160016941F0400101610C
:102A50000121816270470000582048F2E471C4F2FD
:102A60000200C3F6AC718162016841F0800101602F
:102A7000016941F08001016101218162704700001C
:102A80000139102914D2382248F2E473C4F2020248
:102A9000C3F6AC739364136860F3010313601069A9
:102AA00061F303001061012090640020704700BFB3
:102AB00080B545F2E860C0F600004FF4957101F072
:102AC00039FB052080BD00004C2048F2E471C4F2BF
:102AD0000200C3F6AC714163016941F40071016108
:102AE000016941F480610161016941F400610161A2
:102AF000016941F480510161016941F400510161B2
:102B0000016941F480410161016941F400410161C1
:102B1000016941F480310161016841F010010160F7
:102B2000016841F020010160016841F0400101604D
:102B3000016841F080010160016841F48071016029
:102B4000016841F400710160016841F48061016035
:102B5000016841F400610160016A41F040010162D5
:102B600001214163704700002DE9F04784B041F234
:102B70006C02002148F2E47EC4F20202C4F20201B7
:102B8000C3F6AC7E52F80CCC0868C1F880E0886BC4
:102B9000032420F00C008863886C41F2002720F0A9
:102BA000F00088640120C1F88000C1F880E0CB6D9E
:102BB0009FEDE50A43F00803CB65CB6CC0F27A07C2
:102BC00043F00103CB64CB6E43F00803CB66C1F83E
:102BD000800048F2E470C1F880E042F8280C48F622
:102BE0003D2042F8280C41F6EC1042F8280C52F82F
:102BF0000C0C40F4005042F80C0C52F80C0C40F451
:102C0000805042F80C0C52F84C3C41F2000043F466
:102C1000807342F84C3C52F84C3CCEF2000064F316
:102C20008E2342F84C3C00234360036843F00103C9
:102C3000036000BF436814683D4614F5807F3CBFC5
:102C40001468250A01EE105AB8EE411A21EE001A56
:102C5000BCEEC11A11EE104AA342EBD348F20013A6
:102C600048F22134C4F20303C0F2800443F8FC4C60
:102C70002B2443F8F84C002443F8E84C202443F874
:102C8000D84C112443F8C04C6FF0FF041D5945F097
:102C900001051D5153F8F04CE4050CD453F8F04CE9
:102CA000E4055CBF53F8F04C5FEAC45403D453F816
:102CB000F04CE405EED56FF0FF041D5945F0040516
:102CC0001D511C6844F400341C601C68A40309D422
:102CD0001C68A4035CBF1C685FEA843402D41C68CF
:102CE000A403F2D553F8AC4C1D68122645F4003508
:102CF0001D6052F84C5C04EBD47466F38E2542F8E8
:102D00004C5C4EF6FC55CEF200052E689FED8F0A06
:102D100046F080762E600D68002645F400350D6083
:102D20000D68A6EB640925F000450D600D6825F4DB
:102D300040750D600D6845F000450D604660056802
:102D400045F00104046000BF466814683D4614F570
:102D5000807F3CBF1468250A01EE105AB8EE411A74
:102D600021EE001ABCEEC11A11EE104AA642EBD3B6
:102D700053F8AC4C012514EB090848BFC8F1000812
:102D8000CDF800801C6844F400341C600C6824F00A
:102D900000440C600C6865F309240C600C6844F076
:102DA00000440C6000244460046844F001040460A2
:102DB000466814683D4614F5807F3CBF1468250AB8
:102DC00001EE105AB8EE411A21EE001ABCEEC11AFB
:102DD00011EE104AA642EBD353F8AC4C022514EB8B
:102DE000090A48BFCAF1000ACDF804A01C6844F4DF
:102DF00000341C600C6824F000440C600C6865F31F
:102E000009240C600C6844F000440C600024446009
:102E1000046844F001040460466814683D4614F5F3
:102E2000807F3CBF1468250A01EE105AB8EE411AA3
:102E300021EE001ABCEEC11A11EE104AA642EBD3E5
:102E400053F8AC4C14EB090648BF764202961C6856
:102E500044F400341C600C6824F000440C600C68DE
:102E600044F440740C600C6844F000440C6000248E
:102E70004460046844F00104046000BF45681468BD
:102E800014F5807F3C463CBF1468240A01EE104ACA
:102E9000B8EE411A21EE001ABCEEC11A11EE104A2A
:102EA000A542EBD353F8AC4C14EB090448BF644281
:102EB00003941D68C24545F400351D600D684FF050
:102EC000000825F000450D600D6825F400350D6003
:102ED000056825F0010505604FF000006D4638BF1C
:102EE000012055F82070BE426FF0FF0638BF022067
:102EF00055F8205043F80680C1F880E0CB6D23F0F0
:102F00000803CB65CB6C23F00103CB64CB6D13F0CE
:102F1000780F03D1CB6E23F00803CB660123AC42BC
:102F200038BF0320C1F8803042F80CCC4FF4803217
:102F3000C1F88030C1F880204FF40032C1F8802001
:102F400004B0BDE8F08700BF51499D3AA69BC43A42
:102F50002DE9F0470025C4F20205A8420C460DD029
:102F600045F2E860C0F6000040F2B71101F0E2F867
:102F7000002C1CBF0520BDE8F08725E024B3D4F861
:102F8000048041F6003AC0F2B70AD04528D041F299
:102F90000020C0F27A00804540F02E81A06849F2FE
:102FA0000051C0F6BA21884245F27030C0F60000E8
:102FB00000F01F81A16842F68032C0F65332914280
:102FC00026D1183015E100BF45F2E860C0F60000D8
:102FD0004FF4DC7101F0AEF80520BDE8F08700BFCA
:102FE000A06849F20051C0F6BA21884245F270301B
:102FF000C0F6000002D1A830FBE000BFA16842F695
:103000008032C0F6533291420CD1C030F1E000BFA3
:10301000A1684CF20022C0F6EB3291420CD1303064
:10302000E7E000BFA1684CF20022C0F6EB3291420B
:103030000CD1D830DDE000BFA16845F68002C0F6B3
:10304000844291420CD14830D3E000BFA16845F6DC
:103050008002C0F6844291420CD1F030C9E000BF3A
:10306000A1684EF60072C0F61C5291420CD160303D
:10307000BFE000BFA1684EF60072C0F61C5291423C
:103080000CD100F58470B4E0A16848F28052C0F61B
:10309000B55291420CD17830ABE000BFA16848F244
:1030A0008052C0F6B55291420CD100F59070A0E06C
:1030B000A16841F60042C0F64E6291420ED19030B6
:1030C00097E000BFA16841F60042C0F64E6291420F
:1030D00040F0928000F59C708BE000BFA1684FF239
:1030E0008002C0F2FA22914202D100F5A87080E07D
:1030F000A16843F6C032C0F24732914202D100F5D6
:10310000B47076E0A16848F20072C0F29332914246
:1031100002D100F5C0706CE0A1684DF24022C0F20F
:10312000DF32914202D100F5CC7062E0A16841F635
:103130008052C0F22C42914202D100F5D87058E082
:10314000A16846F6C002C0F27842914202D100F571
:10315000E4704EE0A1684BF20042C0F2C4429142DA
:1031600002D100F5F07044E0A1684FF64072C0F261
:103170001052914202D100F5FC703AE0A16844F689
:103180008022C0F25D52914202D100F5047030E01D
:10319000A16849F2C052C0F2A952914202D100F591
:1031A0000A7026E0A1684EF20012C0F2F552914278
:1031B00002D100F510701CE0A16842F64042C0F256
:1031C0004262914202D100F5167012E0A16847F206
:1031D0008072C0F28E62914202D100F51C7008E04C
:1031E000A1684CF2C022C0F2DA62914204D100F52B
:1031F0002270468980893BE02078012811D141F274
:103200006C00C4F20200016811F5807F04D341F222
:103210000028C0F27A0802E000684FEA1028C4F8DB
:103220000480B8F1000F00F0AF80A068FDF75CF9F2
:10323000064640460F46FDF757F902460B46304614
:103240003946FDF7E2F807468946FDF75AF9064682
:10325000FDF74AF902460B4638464946FDF75DF848
:103260009FED570B53EC102BFDF75DF8FDF749F977
:1032700048F2E477C3F6AC77C5F88070296821F08E
:10328000004129602178032916D001290AD000299C
:103290006CD12A6F42F001022A672A6822F00302E9
:1032A0000DE000BF2A6F012342F010022A672A684E
:1032B00063F3010203E000BF2A6842F003022A60C0
:1032C0002A68D04522F400622A602A686FF39F368C
:1032D00022F4806288BF02F580622A606A684FF635
:1032E000FF736FF31D4242EA06426A606A689A43BE
:1032F000104468602868022262F38F302860A0685A
:103300004CF20022C0F6EB3290420FD101294DD091
:1033100061B941F20020C0F27A00804506D141F245
:103320006C00C4F202004068800F03E0FFF71CFC51
:10333000C5F88070296860F309212960286840F089
:10334000004028602868400009D4286840005CBF1D
:1033500028685FEA400002D428684000F2D50120C6
:10336000C5F880000020BDE8F08700BF45F2DC60B2
:10337000C0F6000001F06EFD217813A001F06AFD97
:103380000120BDE8F08700BF45F2DC60C0F6000018
:1033900001F060FDD4E9011245F27160C0F6000051
:1033A00001F058FD0120BDE8F08700BF41F26C003C
:1033B000C4F20200006800F00300BBE700BF00BFDA
:1033C000000000000000F040504C4C3020434C4BBB
:1033D00020536F757263652053656C6563742D5B54
:1033E00025645D204572726F72210A0048F2080060
:1033F000C2F2000000687047F0B583B03027C4F215
:103400000207A7F130050646A8420C4606D045F251
:10341000E860C0F60000992100F08CFE44B16068BD
:1034200080B1AE424FF0050017D003B0F0BD00BF31
:1034300045F2E860C0F600009A2100F07BFE60686B
:103440000028EED145F2E860C0F600009B2100F0B4
:1034500071FEAE424FF00500E7D1002CE5D0606868
:10346000A0B12178032930D8DFE801F00214200A46
:1034700041F26C00C4F20200026812F5807F21D391
:1034800041F20020C0F27A001EE000BF052003B028
:10349000F0BD00BF41F26C00C4F20200C26812F13C
:1034A000011F0BD94FF4FA400EE000BF6278012AE9
:1034B00000F0AC80002A00F0B18006E0C068000C8B
:1034C00002E000BF0068000A6060A2894FF6F07653
:1034D000A2F111039BB2B3429CBF0222A281E689F2
:1034E0004FF6F173113EB6B29E423CBF0226E68112
:1034F000268A313B413EB6B29BB29E4248F2E47608
:103500003CBF01232382C3F6AC7603293E656DD808
:10351000DFE801F002340A2C386C40F01000386407
:10352000386820F003002DE0396801F0030102291A
:1035300007D1396C41F010013964396821F0030179
:1035400039606178A2688DF80010CDE901206946E4
:103550002846FFF7FDFC00283E6543D1386802216C
:1035600061F301003860A2890DE000BF386C40F0C3
:1035700001003864386840F0030003E03868012136
:1035800061F3010038604FF47061386801EB02218B
:10359000090A61F30B2038603868E1894FF20002B4
:1035A000CFF6FF7202EB0131090B61F30F30386087
:1035B0003868218AFC2202EB8101890861F38700C7
:1035C0003860386840F480303860386840F4003043
:1035D0003860386840F480203860386840F4002053
:1035E000386000200121396503B0F0BD45F2DC6090
:1035F000C0F6000001F02EFC21780DA001F02AFC9D
:1036000001200121396503B0F0BD00BF41F26C0219
:10361000C4F20202136813F5807F05D341F2002241
:10362000C0F27A02A26050E71268120AA2604CE768
:10363000535953434C4B20536F7572636520536548
:103640006C6563742D5B25645D204572726F722119
:103650000A000000502048F2E471C4F20200C3F6F0
:10366000AC710163016841F008010160016941F03A
:10367000080101610121016370470000502048F2F8
:10368000E471C4F20200C3F6AC710163016841F059
:1036900010010160016941F0100101610121016324
:1036A00070470000502048F2E471C4F20200C3F6F3
:1036B000AC710163016841F020010160016941F0D2
:1036C000200101610121016370470000542048F28C
:1036D000E471C4F20200C3F6AC71C162016841F04A
:1036E00001010160016941F0010101610121C16233
:1036F00070470000542048F2E471C4F20200C3F69F
:10370000AC71C162016841F002010160016941F0E0
:10371000020101610121C162704700007047000091
:10372000411E0020B0EB116F1CBF012070474EF20C
:103730001002CEF2000251604EF62351CEF200018B
:10374000F0230B700721906011607047FFF7E6BF10
:103750002DE9F04381B044F6FF79C4F2000945F247
:1037600000080D4604464845C4F200080EDD4445F5
:1037700015D00020C4F20100844210D041F20000B4
:10378000C4F2010084420AD020E000BF43F20000EE
:10379000C4F20000844202D0B4F1402F16D1F5B13A
:1037A000286830B34C454FF005002DDD444534D03A
:1037B00041F20001C4F201018C422ED00021C4F27A
:1037C00001018C4229D001B0BDE8F08345F60E70AE
:1037D000C0F60000832100F0ADFC002DE0D145F6DD
:1037E0000E70C0F60000842100F0A4FC28680028B8
:1037F000D8D145F60E70C0F60000852100F09AFC85
:103800004C454FF00500D1DC43F20001C4F2000149
:103810008C4202D0B4F1402FD5D12868D0B148F203
:1038200010664C45C2F2000618DD444526D0002043
:10383000C4F20100844200F0A38041F20000C4F20F
:103840000100844240F0B080D036307B002840F048
:103850009C8018E0052001B0BDE8F08343F2000031
:10386000C4F2000084420AD0B4F1402F40F09C80A2
:103870003436307B002840F0888004E06836307BA6
:10388000002840F08280307F00287ED1206898A7F1
:1038900020F001002060022030733077A8680028F3
:1038A00018BF0746204600F029F9206840F01000B4
:1038B0002060206840F0080020602068F9783A799C
:1038C00061F38A207B7997F806C02060206803F0B6
:1038D000010162F349202060606820F0800040EA26
:1038E000C11060602069F979013961F3030020613A
:1038F00020690CF00F0120F0F00040EA0110206177
:10390000206B4FF6FF713A89884310442063387862
:10391000216821F4807160F308212160B878216862
:1039200021F0800160F3C71121607878216821F4CB
:10393000006160F3CB2141F240002160C4F202003B
:10394000006800F47F00B0F5003F09D94FF48020F3
:10395000FEF7B6FE20B12068B97A61F38E302060A0
:10396000E8796168FF2837D041F00801616061683B
:1039700000F0010021F0100141EA00102EE000BF2C
:103980009C36307B00283FF47EAF45F6ED60C0F6F4
:10399000000001F05FFA4DA0214601F05BFA022021
:1039A00001B0BDE8F08300BF45F60E70C0F6000020
:1039B00040F2F77100F0BEFB45F6ED60C0F6000086
:1039C00001F048FA45F6F760C0F6000001F094FCFB
:1039D000012001B0BDE8F08321F00800606060685C
:1039E000AA79697962F382002B7B60606068012BA1
:1039F00061F301006060606820D140F48030606055
:103A00006068A97B6A7B61F351406060E06A20F0E6
:103A1000FF001044E0624C454FF0010015DD41F21B
:103A20000001C4F201018C421CD00021C4F201014A
:103A30008C4217D0444511D01CE000BF20F48030E8
:103A400060604C454FF00100E9DC43F20001C4F234
:103A500000018C4202D0B4F1402F0BD1FEF728FFB9
:103A600002E000BFFEF734FF296800EB5100B0FB15
:103A7000F1F080B2A1684FF6FF7291430844A06054
:103A80002068297905F1100761F30C3020600120CE
:103A9000307330778FCF06F1200C8CE88F00FF2039
:103AA000707370774FF0FF30A063206840F004001F
:103AB0002060206840F002002060206840F0010093
:103AC0002060002001B0BDE8F08300BF5468697336
:103AD00020554152545B3078253038785D20697329
:103AE0006E2774206265696E6720757365640A00CD
:103AF00000000000000000010000000070B584B06C
:103B000044F6FF75C4F2000545F20004A842C4F271
:103B100000040DDDA04214D00021C4F2010188424E
:103B20000FD041F20001C4F20101884209D05BE0EC
:103B300043F20001C4F20001884202D0B0F1402FEC
:103B400052D10021A842CDF809105CDDA04227D057
:103B50000021C4F20101884234D041F20001C4F2D4
:103B6000010188427BD146F200044FF48050C4F238
:103B7000020401AD01900626204629468DF8086012
:103B8000FDF788FD0420019004F5805029468DF84A
:103B90000860FDF77FFDFFF7ADFD07205DE000BF8A
:103BA0004FF44060019006208DF8080046F20000B6
:103BB000C4F2020001A9FDF76DFDFFF773FD0520BA
:103BC0004BE000BF4FF44060019008208DF80800E2
:103BD00046F20000C4F2020001A9FDF75BFDFFF709
:103BE00075FD062039E000BF45F21061C0F6000106
:103BF00006460846802100F09DFA30460021A84282
:103C0000CDF80910A2DC43F20001C4F200018842A1
:103C100014D0B0F1402F22D10C20019008208DF853
:103C2000080046F20000C4F20200A0F5005001A90D
:103C3000FDF730FDFFF722FD04200EE0302001905B
:103C400008208DF8080046F20000C4F2020001A925
:103C5000FDF720FDFFF7FEFC0320FEF751FD04B049
:103C600070BD0000FEE700007047000070470000D4
:103C700000F014F8FCF794FA7047000080B5FEF7E6
:103C8000D5FCBDE88040FFF761BD000000281EBFE5
:103C900048F20801C2F200010860704740F20000DB
:103CA0004EF68851C0F60000CEF2000141F8800CBB
:103CB00041F23000C4F2020048F2E472426102684C
:103CC00022F0020202604FF480324261086840F440
:103CD0007000086070470000FEE7000070B596B005
:103CE00004460020CDE90E00CDE91000CDE9120018
:103CF000CDE9140002A808302421FCF762FA4CF246
:103D0000C060C0F22D000D9003208DF83900FF2017
:103D10008DF83B000DA92046FFF71AFD44F6FF7011
:103D2000C4F20000844213DD45F20000C4F200003A
:103D3000844219D00020C4F20100844216D041F21E
:103D40000000C4F20100844215D10E2011E000BF32
:103D500043F20000C4F20000844209D0B4F1402FC5
:103D600009D1082005E000BF0A2002E00C2000E095
:103D70000620ADF810000120C0F2001002900020D3
:103D8000CFF6FF7003900020059040F20220C0F2B1
:103D9000001042F20005019001A8C4F202050B9048
:103DA00002AA28460021FDF76BFA48F2A056C2F29B
:103DB000000604F120002E606860A8681C2161F3F1
:103DC0000B00A8602068702140F040002060304661
:103DD000FCF7F7F94FF4FF407083286940F00101C8
:103DE0000020296116B070BD2DE9F04F8FB041F26F
:103DF00060000026C4F2020048F63D21CDE90B66C2
:103E0000CDE90D660996ADF8286007968DF820601B
:103E1000CDE90366CDE90566CDE9006640F81C1CD6
:103E200041F6EC1140F81C1C016848F2000421F432
:103E3000005101600168C4F2030441F48051016043
:103E40004FF4003140F81C1C01208DF82F00032096
:103E50008DF831004FF480700BAD0227ADF83300C0
:103E6000204629468DF82E608DF830608DF832702E
:103E70008DF83560FCF78AFD04F580602946FCF773
:103E800085FD15204FF481758DF8290009A920467C
:103E9000ADF82460ADF82750FCF7AAFF4FF400708E
:103EA0000DF11C090790204649468DF82070FCF75B
:103EB000EBFE48F29850C2F200000DF10C0805909C
:103EC00020464146ADF80C50ADF80F60ADF81870C3
:103ED000FCF7B2FCEA464FF0005B20465146ADF8D5
:103EE00000708DF80260CDF804B0FCF70FFC40F2D2
:103EF0000130079020464946FCF7C6FE40F2031009
:103F0000ADF80C0048F27C00C2F20000059020469B
:103F10004146ADF80F60ADF81870FCF78DFC03203A
:103F2000ADF80000204651468DF80260CDF804B08F
:103F3000FCF7ECFB40F60270079020464946FCF780
:103F4000A3FE48F22A50C2F2000040F20F1505907D
:103F500020464146ADF80C50ADF80F60ADF8187032
:103F6000FCF76AFC20465146ADF800508DF802601F
:103F7000CDF804B0FCF7CAFB0FB0BDE8F08F00002D
:103F80002DE9F04F89B048F200441620C4F2030432
:103F9000002540F2031B8DF823000DF11E01204681
:103FA0008DF8205006958DF81C50CDE90255CDE9CD
:103FB0000455CDE90055ADF81E50ADF821B0FCF721
:103FC00017FF4FF480500DF1180806900226204686
:103FD00041468DF81C60FCF757FE48F29450C2F23F
:103FE00000000DF108094FF48877049020464946F7
:103FF000ADF80870ADF80B50ADF81460FCF71CFC80
:10400000ADF800706F464FF0005A204639468DF8E3
:104010000250CDF804A0FCF779FB40F20130069085
:10402000204641468DF81C50FCF72EFE48F2965073
:10403000C2F20000049020464946ADF808B0ADF841
:104040000B50ADF81460FCF7F7FB0320ADF800004F
:10405000204639468DF80250CDF804A0FCF756FBF7
:1040600040F20250069020464146FCF70DFE40F219
:104070000510ADF8080048F22C50C2F20000049080
:1040800020464946ADF80B50ADF81460FCF7D4FB60
:104090000520ADF80000204639468DF80250CDF8D5
:1040A00004A0FCF733FB40F603100690204641467F
:1040B000FCF7EAFD40F20910ADF8080048F228507C
:1040C000C2F20000049020464946ADF80B50ADF80E
:1040D0001460FCF7B1FB0920ADF80000204639461A
:1040E0008DF80250CDF804A0FCF710FB09B0BDE834
:1040F000F08F000080B5FFF777FEBDE88040FFF746
:104100003FBF000048F20000C4F20300016841F024
:1041100004010160D0F8001441F00401C0F800145B
:1041200048F21440C4F20300016841F0020101604A
:104130007047000050B1044607A00D4600F08AFE0B
:1041400008A021462A4600F085FE00BF00BF00BF40
:1041500000BF00BFFAE700BF5B45404150505D2003
:1041600000000000417373657274206661696C65BC
:104170006420696E202573206C696E6520257500AA
:1041800070B584B000200290ADF80C0001900320BF
:104190008DF808004FF44070ADF80A0001204AF293
:1041A00000048DF80C00C820C4F2030401AD8DF8A2
:1041B000070020462946FCF7F3FE192604F5807017
:1041C00029468DF80760FCF7EBFE04F5E060294610
:1041D000FCF7E6FE0220ADF80B0004F5006029466E
:1041E0008DF80760FCF7DCFE04B070BD10B54AF234
:1041F0000004C4F203042046FCF798FF04F5807025
:10420000FCF794FF04F5E060FCF790FF04F5006014
:10421000BDE81040FCF78ABF2DE9F04182B049F2B9
:1042200000040020C4F203040DF104088DF8060018
:10423000ADF8040020464146FCF790FF04F5807677
:1042400030464146FCF78AFF04F5E06738464146B0
:10425000FCF784FF04F5006528464146FCF77EFF25
:1042600048F25410C2F20000B0F8C4132046FCF724
:10427000EDFF304640F60F71FCF7E8FF384640F698
:104280000F71FCF7E3FF284640F63C71FCF7DEFFB8
:1042900002B0BDE8F081000010B549F20004C4F29C
:1042A00003042046FCF7BAFF04F58070FCF7B6FF64
:1042B00004F5E060FCF7B2FF04F50060BDE81040D3
:1042C000FCF7ACBF48F21401C2F200010A786AB1EF
:1042D000012A0DD140F60061CEF20001D1F8802014
:1042E000D2071CBF09685FEAC17117D1704700BFD0
:1042F0004968002908BF7047CA6B520709D5CA6BC5
:10430000520744BFCA6B5FEA427202D5CA6B5207BA
:10431000F2D402466FF35F220A6270474FF06041A9
:104320000A6862B900BF0A684AB900BF0A6832B9B0
:1043300000BF0A681AB900BF0A68002AF2D00870E4
:104340007047000070B584B046F200040620C4F245
:10435000020401AD0026019020462946CDE90266FF
:10436000FDF798F90420019004F580502946FDF7E7
:1043700091F94FF420700190A4F580502946FDF783
:1043800089F90120ADF8080041F601400190A4F53B
:1043900000502946ADF80B60FDF77CF94FF48050D2
:1043A0000190204629468DF80960FDF773F904B0A5
:1043B00070BD00002DE9F04F9FB00446002703A810
:1043C0002C21CDE91477CDE91677CDE91877CDE921
:1043D0000E77CDE910771297ADF84C70FBF7F1FE30
:1043E00020460297CDF80570CDF80170FDF782FDEB
:1043F00048F2445A8DF85570C2F2000ADAF800000B
:1044000014AEADF8560040F2011018902046092174
:1044100032461697ADF851708DF85370CDE91A7782
:10442000CDE91C77FDF702FF4FF00108202520465B
:10443000052132468DF861708DF875708DF85380C6
:104440001B971A95FDF7F2FE4FF0040B204604214E
:1044500032468DF870801B97CDF868B0FDF7E6FE08
:104460002046032132468DF870708DF87570CDE9C5
:104470001A57FDF7DBFE2046022132468DF8708088
:10448000CDE91AB74FF00209FDF7D0FE64208DF890
:104490003880ADF83A00DAF808000EAEADF83C000E
:1044A000DAF80C000921ADF83E00204632468DF8BE
:1044B0004380FDF7EBFF2046052132468DF838801A
:1044C000ADF84380FDF7E2FF204604213246FDF7B8
:1044D000DDFF48F258508DF83880C2F20000416884
:1044E0003246ADF83A108168ADF83C10C168ADF8BD
:1044F0003E1000690321ADF8400040F20110ADF814
:1045000043002046FDF7C2FF204602213246FDF758
:10451000BDFF102003AE4FF0080A08902046052189
:1045200032460597CDF81CA0ADF824708DF8269082
:10453000CDE90B9BADF834708DF836908DF80C807A
:104540008DF80F80ADF81280FDF772FD90252046A2
:10455000042132460895FDF76BFD204603213246C3
:10456000CDE9079BCDE90BA5FDF762FD20460221B1
:104570003246FDF75DFD40F20010C0F20150CDF86B
:1045800002000320C0F201006D46CDF8060020466F
:1045900000212A468DF80070ADF80A70FDF73CFB4B
:1045A0000A20ADF80500204603212A468DF8088030
:1045B000FDF732FB40F20530ADF80500204606213C
:1045C0002A468DF80880FDF727FB204607212A465A
:1045D0008DF80880FDF720FB2046FDF7F5FA204610
:1045E0000921FDF7D7FC20460521FDF7D3FC204625
:1045F0000421FDF7CFFC20460321FDF7CBFC20462C
:104600000221FDF7C7FC1FB0BDE8F08F2DE9F04196
:1046100094B048F23050C2F2000043F67F61142299
:104620000160426002684BF20004D31702EB937200
:10463000921082602822C26040F67F42026148F2F6
:104640006C50C2F2000041F63F72016042604FF4CC
:10465000617282604FF44872C26048F24450C2F204
:104660000000016041F65F514160416848F25852D4
:1046700001F5F07181600168C2F20002A1F5F071EC
:10468000C1600168C4F203041160A0215160416857
:10469000A1F5A07191608168A031D160C068A0F5DA
:1046A000A07010612046FFF785FE0AAD284628213C
:1046B000FBF787FD40F20110ADF8380047F6FF40E8
:1046C0000026ADF82E00204600212A46ADF82460D1
:1046D0000896CDE90666CDE90466CDE90266FDF7E8
:1046E000A5FD4FF400606D4600904FF001084FF4B7
:1046F0008077204600212A4601968DF80A80ADF881
:104700000870FDF72BF94FF4FA70ADF8180004AA01
:1047100020460021FDF7BAFE4FF48050009020465D
:1047200001212A4601968DF80A80ADF80870FDF740
:1047300015F920460021FDF72DFC14B0BDE8F081ED
:104740004BF61C70C4F20300016841F45F61016024
:10475000704700004BF20400C4F20300016841F00E
:10476000807141F4FE010160704700004BF6187043
:10477000C4F20300016841F47061016070470000F9
:10478000B0B548F25410C2F200004FF4F071A0220C
:104790004FF4A0734FF4485C00F16C0E8EE80E10DD
:1047A0004FF0804147F6E1224DF20A7300F53B7C61
:1047B000C3F61462C3F623438CE80E004DF20A716F
:1047C000C3F6A3314AF6CD724BF2177300F5447C61
:1047D000C3F6E602C3F6D1038CE80E004CF2AC5CE3
:1047E000C3F2277CC0E9CD3CC0E9D63C0023C4F22B
:1047F0005623C0F880304AF205334FF07E52CBF694
:1048000052634BF2210C42F6C71E43F2D74400F12B
:10481000A005C3F6827CC3F69A6ECBF6EF5485E80A
:104820000C5048F6CD43C0F8B040C4F2C63347F64A
:104830009A1449F69A1C48F2000E00F1B807CCF21F
:104840002844CCF2DD2CC4F2284E87E818504DF2F3
:10485000456341F69A15C3F6FF734AF6207C00F5CE
:10486000B07ECCF28F35CBF67F7C8EE80C104BF609
:104870000F730021C0F8C850C3F621234DF2642500
:10488000C0E95E31C3F6FF7500F5E07EC0E9763120
:104890004FF239538EE82410C3F6FF734FF69E256E
:1048A00000F5087CCBF67F758CE82C0044F6971356
:1048B000C3F62C0344F69715CBF62C05C0E98E31D0
:1048C00046F63B73C0E99051C3F6FB734EF6D175C3
:1048D00000F5207CC0F80023C0F82423C0F848234A
:1048E000C0F86C234BF60F74CBF67F758CE82C0068
:1048F00047F2016247F20163CBF62124C3F60112AD
:10490000CBF60113C0F83C13C0F86013C0E95B118B
:10491000C0E96041C0F88811C0E97311C0E978416D
:10492000C0F8E811C0E98B11C0F84812C0E9A31122
:10493000C0E9A621C0E9A831C0F8A812A0F8AC13BC
:1049400080F8AE13B0BD000086B04FF48171ADF8B1
:1049500004104CF2002141F26C00C0F6EB31C4F2BD
:1049600002000291016811F5807F05D341F2002019
:10497000C0F27A0002E000BF0068000A45F20004BD
:1049800003904FF00210C4F2000404900120ADF82F
:10499000140004F5D83001A9FEF72EFD50B9029895
:1049A000FFF774F901200421FDF756FF01200121D2
:1049B000FEF766F8FDF748FE0420FDF701FF3F20F3
:1049C00000210022FDF7B6FE442002210122FDF75E
:1049D000B1FE362001210022FDF7ACFEFFF7B2FC4C
:1049E000FFF7CEFE2046FFF779F94FF4003001685B
:1049F00048F24C10C2F2000001600421C0F2020132
:104A00000968B7EE081A416090ED000AB4EE410A59
:104A1000F1EE10FAB6EE000A06DA90ED002AB4EED6
:104A2000402AF1EE10FA02DC4FF07E51016090ED69
:104A3000002A9FED1F3A40F6FF7222EE032ABCEED9
:104A4000C22A12EE101A914238BF0A4648F2541197
:104A5000C2F20001C1F8C42390ED012AB4EE412A4C
:104A6000F1EE10FA06DA90ED011AB4EE401AF1EE0A
:104A700010FA02DC4FF07E514160FFF7C7FDFFF7EF
:104A800039FBFFF7C9FBFFF707FCFFF779FBFFF7DF
:104A9000ADFBFFF75FFEFFF735FB4BF20C00C4F2F6
:104AA0000300016841F00101016000BFFEE700BFA3
:104AB00000D07C452DE9F04348F2541EC2F2000EAE
:104AC0009EF898030338012888BFBDE8F08344F2BC
:104AD0000000C4F202004FF4805101609EED0D0A07
:104AE0009FEDCF1AB4EE410AF1EE10FA40F3C08008
:104AF0009FEDCD2A48F2200C20EE022ABDEEC22AFC
:104B000012EE101A4DF255000122C2F2000C814241
:104B10008CED002A8EF89F2004D8C8097C2804D880
:104B20004FF47A500146CCF8000048F244504FEA66
:104B30005109C2F20000CCF804900160DEF8587010
:104B4000DEE91B52DEF87430EE19C6EB510605EBB8
:104B5000510845608660A8EB0706C660066805EB4D
:104B60004707F61B48F25857C2F200070661396042
:104B7000466816447E608668F61ABE60C6681644AB
:104B8000FE600069C01A3861BE68DEF878007C6893
:104B90000444A64202DD7C680444BC603C69FE68B3
:104BA0000644B44202DDFC6804443C6148F26C56A1
:104BB000C2F20006CCF8049031607560DEF85C70DB
:104BC000EC19A9EB0404B460A8EB0704F4603468A2
:104BD00005EB4707E71B376148F28057C2F2000731
:104BE0003960716811447960B168C91AB960F168B7
:104BF0001144F9603169C91A3961B9687A680244A7
:104C0000914202DD79680144B9603969FA68024469
:104C1000914202DDF968084438619EED052AB2EE42
:104C20000E3AB4EE432AF1EE10FAC0F2C1809EF8BB
:104C30004810DEF85400002940F0E8809EF89823E0
:104C4000042A40F0E3806428C0F2E0804BF618703C
:104C5000C4F20300016841F0F001016001208EF808
:104C6000480000209EED052ACEF85400A5E000BFC4
:104C70009FED6C2A9EED163A20EE022AB8EEC33A5A
:104C800032EE433ABDEEC33ADEF86C3048F2200C07
:104C900013EE101A4FF00008C2F2000C4FF47A50D5
:104CA000A1EB430148F244578EF89F80CCF80000F6
:104CB0003229D8BF3221C2F20007CA18CCF804103A
:104CC00038607B60BA60BA6848F2585602EB43021B
:104CD000FA60FA68C2F20006114439613060DEF809
:104CE000700000EB0309C6F80490B968DEF8742080
:104CF000891AB160F9680144F1603969891A316132
:104D0000B768DEF8781075680D44AF4202DD75684B
:104D10000D44B5603569F468A8EB43070C44A5421F
:104D20004FEA430502DDF4680C4434619EED173A06
:104D30004FF47A56B8EEC33A32EE432ABDEEC22A99
:104D400012EE104A3C4448F26C57C2F20007322C73
:104D5000D8BF3224CCF804403E607B602344BB6063
:104D6000BB682B44FB60FB6823443B6148F28053E3
:104D7000C2F200031E60C3F80490BE68B61A9E60BB
:104D8000FE683044D8603869801A186198685A689B
:104D90000A44904202DD5868084498601869DA684D
:104DA0000A44904202DDD868084418619EED052A45
:104DB0009EF84800B0FA80F04009B4EE410AB2EE25
:104DC000080AF1EE10FA4FF00002B4EE402A4FF05C
:104DD0000001C8BF0122F1EE10FAA8BF01210A426A
:104DE00008BF002802D0BDE8F08300BF4BF6187062
:104DF000C4F20300416841F0F001416000208EF8E8
:104E00004800CEF85400BDE8F08300BF11B1002087
:104E1000D3E700BF0130CEF85400BDE8F08300BFF7
:104E20009A99993E0055D0460055504740F2E52CDE
:104E3000C1F2000C604740F2053CC1F2000C604733
:104E400040F2453CC1F2000C604740F2253CC1F203
:104E5000000C60470FB4054B10B503A9044A029833
:104E600000F018F810BC5DF814FB0000C542000803
:104E70002880002002E008C8121F08C1002AFAD1C9
:104E800070477047002001E001C1121F002AFBD1CA
:104E9000704700002DE9FF4F8DB00F4605460026F4
:104EA00006E025280BD0DDE90F1290476D1C761C1B
:104EB00028780028F5D111B03046BDE8F08F0024E5
:104EC000A246A1460122EC4900E0044315F8013F47
:104ED000203B02FA03F00842F7D128782A2810D0A4
:104EE0006FF02F022878A0F13001092914D80AEBBD
:104EF0008A0102EB410144F0020400EB010A6D1C3F
:104F0000F0E701CF5FEA000A03D544F40054CAF188
:104F1000000A44F002046D1C28782E2817D115F8D9
:104F2000010F44F004042A280ED06FF02F022878D5
:104F3000A0F1300109290AD809EB890102EB4101EE
:104F400000EB01096D1CF2E757F8049B6D1C2878F3
:104F50006C280FD006DC4C2817D068280DD06A28A2
:104F600014D104E0742810D07A280FD10DE044F455
:104F700000140AE044F4801401E044F44014697819
:104F8000814202D104F580146D1C6D1C2A786E2AB2
:104F90001FD00CDC632A31D004DC002A8BD0582AC5
:104FA00011D1A3E0642A68D0692A0CD165E0732A84
:104FB0002ED004DC6F2A73D0702A04D19BE0752AAE
:104FC0006FD0782A6ED01046DDE90F129047761C1C
:104FD00050E1C4F30250022806D0032809D0042867
:104FE00001CF09D0066045E101CFF117C0E90061AA
:104FF00040E101CF06803DE106703BE117F8040B6C
:105000008DF8000000208DF80100EB46012003E040
:1050100057F804BB4FF0FF3061074FF0000102D496
:105020000DE008F10101884649450FDA8045F8DBBB
:105030001BF808100029F4D108E008F101018846A6
:105040008142FADB1BF808100029F6D1DDE90F23B5
:10505000AAEB08008146214600F036F9304400EB07
:10506000080604E0DDE90F121BF8010B9047B8F1C8
:105070000108F7D221464846F7E00A21C4F302535B
:105080004FF0000B0891022B04D001CFC117032B66
:1050900009D00AE0FF1D27F00707F7E8020108E042
:1050A00032E01FE020E000B2C117042B01D140B272
:1050B000C117031E71F1000307DA4FF0000CD0EBAB
:1050C0000C006CEB01012D2302E0230504D52B23FA
:1050D0008DF82430012303E0E30701D02023F7E714
:1050E000984658E00A2110E010210EE010204FF001
:1050F000000B08900CE010214FF0000B44F004046A
:105100004FF00809089103E008214FF0000B0891C7
:10511000C4F30253022B04D001CF0021032B06D08D
:1051200006E0FF1D27F00707F7E8020103E080B261
:10513000042B00D1C0B24FF0000823072BD5702AF2
:1051400007D0DDF820C08CF0100C5CEA0B0C05D009
:105150000EE040238DF82430012308E050EA0103DB
:1051600006D030238DF824308DF825200223984670
:10517000DDF820C08CF0080C5CEA0B0C0BD150EA77
:10518000010301D1630706D530238DF824304FF099
:105190000108A9F10109582A04D038A20B9208AAE3
:1051A0000A920BE03AA2F9E75B46089AFBF7C8F9C6
:1051B0000B9B9B5C0A9A521E0A92137050EA0102E2
:1051C000F2D10A98ADEB000000F1200B600702D588
:1051D00024F4803401E04FF00109D94502DDA9EB48
:1051E0000B0000E0002000EB0B0141440890AAEB0B
:1051F000010AE00306D4DDE90F232146504600F002
:1052000063F806444FF0000908E009A911F8090005
:10521000DDE90F12904709F10109761CC145F4DB65
:10522000E0030CD5DDE90F232146504600F04CF891
:10523000064404E0DDE90F1230209047761C0899FF
:10524000481E08900029F5DC08E00A980A990078C1
:10525000491C0A91DDE90F129047761CBBF1000151
:10526000ABF1010BF1DC21465046DDE90F2300F0E4
:1052700019F806446D1C1BE6092801003031323351
:105280003435363738396162636465660000000082
:10529000303132333435363738394142434445466C
:1052A000000000002DE9F041044600251E46174687
:1052B000880404D405E039462020B0476D1C641EE4
:1052C000F9D52846BDE8F0812DE9F04104460025D6
:1052D0001E469046C80301D5302700E020278804E9
:1052E00004D505E041463846B0476D1C641EF9D52B
:1052F0002846BDE8F081000010B5044601E0FEF745
:10530000E1FF14F8010B04490028F8D1BDE8104072
:105310000A20FEF7D7BF000028800020D10E000829
:10532000FD0E0008010F0008050F0008090F000816
:105330000D0F0008110F0008150F0008190F0008C5
:105340001D0F0008D50E0008D90E0008DD0E00085C
:10535000E10E0008E50E0008E90E0008ED0E000859
:10536000F10E0008F50E0008F90E0008000000001C
:1053700000127A00002A7515010016000080000056
:10538000030000000200000000127A000057A61679
:105390000100170000C00000030000000200000030
:1053A00000127A000084D7170100190000000000E5
:1053B000030000000200000000127A0000B108198A
:1053C00001001A000040000003000000020000007D
:1053D00000127A0000DE391A01001B000080000074
:1053E000030000000200000000127A00000B6B1B9B
:1053F00001001C0000C000000300000002000000CB
:1054000000127A0000389C1C01001E000000000001
:105410000300000002000000001BB700002A751501
:1054200001000F0000000000030000000200000067
:10543000001BB7000057A61601000F0055D500004D
:105440000300000002000000001BB7000084D71713
:1054500001001000AAAA00000300000002000000E2
:10546000001BB70000B10819010011000080000006
:105470000300000002000000001BB70000DE391A24
:10548000010012005555000003000000020000005A
:10549000001BB700000B6B1B01001300AA2A0000C1
:1054A0000300000002000000001BB70000389C1C35
:1054B00001001400000000000300000002000000D2
:1054C00000127A0000E1F50501000600004000002E
:1054D000000000000200000000127A0080778E06B3
:1054E0000100060000E000000000000002000000D3
:1054F00000127A00000E270701000700008000005C
:10550000000000000200000000127A0080A4BF0723
:105510000100080000200000000000000200000060
:1055200000127A00003B58080100080000C000008B
:10553000000000000200000000127A0080D1F00894
:1055400001000900006000000000000002000000EF
:1055500000127A000068890901000A0000000000BA
:10556000000000000200000000127A0080FE210A04
:1055700001000A0000A0000000000000020000007E
:1055800000127A000095BA0A01000B0000400000EA
:10559000000000000200000000127A00802B530B74
:1055A00001000B0000E0000000000000020000000D
:1055B00000127A0000C2EB0B01000C00008000001A
:1055C000000000000200000000127A008058840CE5
:1055D00001000D000020000001000000020000009A
:1055E00000127A0000EF1C0D01000D0000C0000049
:1055F000010000000200000000127A008085B50D55
:1056000001000E0000600000010000000200000028
:105610002E2E2F2E2E2F557365722F5372632F74DB
:105620006165333267353878785F6C6C5F6D7370A5
:105630002E63002E2E2F2E2E2F2E2E2F44726976A3
:105640006572732F544145333247353878785F445B
:1056500072697665722F5372632F74616533326796
:10566000353878785F6C6C5F636F727465782E6321
:1056700000446F6E2774206D6174636820706C6CD9
:10568000305F696E5F667265712D5B25755D207494
:105690006F2067656E657261746520706C6C305F39
:1056A0006F75745F667265712D5B25755D2C20705A
:1056B0006C65617365206164642074686520636F44
:1056C0006E66696720746F207263755F706C6C5FC3
:1056D000636667206172726179210A005B454052FE
:1056E0004355204C4C5D20002E2E2F2E2E2F2E2E7B
:1056F0002F447269766572732F54414533324735B2
:105700003878785F4472697665722F5372632F74AC
:105710006165333267353878785F6C6C5F726375BA
:105720002E63002E2E2F2E2E2F2E2E2F44726976B2
:105730006572732F544145333247353878785F446A
:1057400072697665722F5372632F746165333267A5
:10575000353878785F6C6C5F6770696F2E630055C1
:1057600041525420757365722063616C6C62616391
:105770006B2049442D5B25645D20697320496E765A
:10578000616C6964210A0054686973205541525460
:105790005B3078253038785D2069736E2774206916
:1057A0006E2052785F49542073746174652C2063B5
:1057B000616E27742061626F72742069742074684E
:1057C000726F75676820495420696E7465726661EE
:1057D0006365210A005468697320554152545B3057
:1057E00078253038785D2069736E277420696E20C3
:1057F00054785F49542073746174652C2063616E22
:1058000027742061626F7274206974207468726FEB
:1058100075676820495420696E74657266616365B6
:10582000210A005468697320554152545B30782531
:105830003038785D20697320696E2052785F444D5E
:10584000412073746174652C2063616E277420613C
:10585000626F7274206974207468726F7567682053
:1058600043505520696E74657266616365210A0054
:105870005468697320554152545B3078253038782C
:105880005D20697320696E2054785F444D41207318
:10589000746174652C2063616E27742061626F727D
:1058A00074206974207468726F756768204350555E
:1058B00020696E74657266616365210A00546869C7
:1058C0007320554152545B3078253038785D20691B
:1058D0007320696E2052785F495420737461746537
:1058E0002C2063616E27742061626F72742069746A
:1058F000207468726F7567682043505520696E7414
:10590000657266616365210A0054686973205541B8
:1059100052545B3078253038785D20697320696E89
:105920002054785F49542073746174652C2063613E
:105930006E27742061626F727420697420746872BB
:105940006F7567682043505520696E746572666193
:105950006365210A005468697320554152545B30D5
:1059600078253038785D2052782069736E2774204E
:10597000696E2052656164792073746174652C20AE
:1059800063616E277420656E61626C652072656369
:1059900065697665722074696D656F7574206665DA
:1059A0006174757265210A0054686973205541520B
:1059B000545B3078253038785D2052782069736EDA
:1059C000277420696E205265616479207374617454
:1059D000652C2063616E27742064697361626C6555
:1059E0002072656365697665722074696D656F758F
:1059F000742066656174757265210A005468697364
:105A000020554152545B3078253038785D205278EB
:105A100020697320696E2052657365742073746108
:105A200074652C2063616E277420636F6E666967EE
:105A30002072656365697665722074696D656F753E
:105A4000742076616C7565210A005468697320556D
:105A50004152545B3078253038785D205278206987
:105A6000736E277420696E205265616479207374A7
:105A70006174652C2063616E277420726567697399
:105A80007465722052782048616C6620436F6D7097
:105A90006C6574652063616C6C6261636B210A00E4
:105AA0005468697320554152545B307825303878FA
:105AB0005D2052782069736E277420696E205265CC
:105AC0006164792073746174652C2063616E27743E
:105AD00020756E726567697374657220527820480C
