:020000040800F2
:1000000000000120ED2A0008E52A00080907000881
:10001000E12A0008FD060008552B0008000000003A
:10002000000000000000000000000000F52A0008A9
:100030000107000800000000E92A0008F92A00086A
:100040000507000805070008050700080507000860
:100050000507000805070008050700080507000850
:100060000507000805070008050700080507000840
:100070000507000805070008050700080507000830
:100080000507000805070008050700080507000820
:100090000507000805070008050700080507000810
:1000A0000507000805070008050700080507000800
:1000B00005070008050700080507000805070008F0
:1000C00005070008050700080507000805070008E0
:1000D00005070008050700080507000805070008D0
:1000E00005070008050700080507000805070008C0
:1000F00005070008050700080507000805070008B0
:10010000050700080507000805070008050700089F
:100110000507000805070008890D001005070008FD
:10012000050700080507000805070008050700087F
:10013000050700080507000805070008710D0010F5
:10014000050700080507000805070008050700085F
:10015000490D0010F1060008050700080507000812
:10016000050700080507000805070008050700083F
:10017000050700080507000805070008050700082F
:10018000050700080507000805070008050700081F
:10019000050700080507000805070008050700080F
:1001A000DFF80CD000F08CFA00480047153000084A
:1001B00000000120D2B201E000F8012B491EFBD261
:1001C00070470022F6E710B513460A460446194662
:1001D000FFF7F0FF204610BD2DE9FE4F804681EA73
:1001E0000300C00F0C46009021F0004123F00045B1
:1001F000B8EB0200A94105D24046214690461C4674
:100200000B46024623F00040104347D0270DC7F3AA
:100210000A00C3F30A510290401A019040286BDA99
:10022000C3F3130040F4801B0098924620B10023D2
:10023000D2EB030A63EB0B0B01985946C0F1400265
:10024000504600F0AEF906460D4650465946019A12
:1002500000F0C6F910EB08006141002487EA115252
:1002600084EAE7731A4340D0009A62B3019A012AE4
:100270004FEA075215DC001B61EB02014FF0004210
:1002800002EA0752CDE90042001C41F580113246D6
:100290002B4600F0C6F903B0BDE8F08F404621467A
:1002A000F9E7001B61EB0201001C41F58013001807
:1002B0005B412018A2F5001747EB030140EAD57017
:1002C000B6196D4111E06D084FEA360645EAC07572
:1002D0004FEA0752001B61EB0201001C41F580113F
:1002E00049084FEA30000019514132462B4603B00D
:1002F000BDE8F04F00F086B90098012240000023CD
:10030000D0EB020263EBE073009821464FEAE07401
:10031000B8EB000061EB0401E9E783F000435BE721
:1003200081F0004158E72DE9FE4F81EA030404F013
:10033000004421F0004100944FF0000B23F00043F3
:1003400050EA01045ED052EA03045BD0C3F30A54BE
:10035000C1F30A552C44A4F2F3340194A0FB0254D7
:10036000C1F3130141F48011C3F3130343F4801369
:1003700001FB024400FB034E840A970A44EA8154BD
:1003800047EA8357A4FB076802958D0A05FB07859A
:100390004FEA932C04FB0C542705029D4FEA0658A4
:1003A00047EA1637B5EB08056EEB070C870E920E81
:1003B00047EA811742EA8312A7FB0201B6EB0B0161
:1003C00064EB00042B0D43EA0C335E1844EB1C5025
:1003D000DA465146E7FB0201C5F313044FEA0B333B
:1003E00043EA14534FEA0432019C43EA0603A4F1A2
:1003F0000C040294009CCDE900B400F012F903B0A3
:10040000BDE8F08F00200146F9E72DE9F04D81EAC3
:10041000030404F0004B21F0004514464FF0000A9D
:1004200023F0004150EA050220D054EA01021DD019
:10043000C5F30A570246C5F31303C1F31300C1F312
:100440000A5640F4801543F48013A7EB0608101BEE
:10045000D64608F2FD3873EB050002D308F1010817
:1004600001E092185B41B8F1000F03DA0020014669
:10047000BDE8F08D00204FF48011064684460EE062
:10048000171B73EB050705D3121B63EB050306432C
:100490004CEA010C49084FEA300092185B4150EADF
:1004A0000107EDD152EA030012D082EA040083EA88
:1004B0000501084305D0101BAB4106D201220023E1
:1004C00006E000224FF0004302E06FF001025310FB
:1004D0001AEB06004CEB085110EB0A0041EB0B0144
:1004E000BDE8F04D00F08EB80EB540F233410291F8
:1004F0000021CDE900110A460B4600F092F803B046
:1005000000BD70B5C1F30A5201F000450024C1F3EB
:10051000130140F2FF3341F480119A4201DA0020C6
:1005200070BD40F233439A42A2F2334203DC52429E
:1005300000F046F800E090402C43F1D0404270BDFE
:100540002DE9F05F0546002092469B468846064608
:10055000814640241BE0284641464746224600F09B
:100560002FF853465A46C01A914110D311461846E7
:10057000224600F016F82D1A67EB01084F46224676
:100580000120002100F00DF817EB00094E41201E5C
:10059000A4F10104DFDC484631462A464346BDE863
:1005A000F09F202A04DB203A00FA02F10020704775
:1005B0009140C2F1200320FA03F3194390407047A1
:1005C000202A04DB203A21FA02F00021704721FAA8
:1005D00002F3D040C2F1200291400843194670470F
:1005E000202A06DBCB17203A41FA02F043EAE073F7
:1005F00006E041FA02F3D040C2F1200291400843E4
:100600001946704710B5141E73F1000408DA401C37
:1006100041F1000192185B411A4301D120F0010021
:1006200010BD2DE9F04D92469B4611B1B1FA81F211
:1006300002E0B0FA80F220329046FFF7B2FF0446A3
:100640000F4640EA0A0041EA0B0153465A46084366
:1006500013D0114653EA010019D0C8F140025046A8
:10066000FFF7AEFF05460E46504659464246FFF795
:1006700098FF084305D0012004E020463946BDE834
:10068000F08D0020054346EAE0762C4337430A9874
:100690006305E40AA0EB08000022FD0A44EA47547F
:1006A0000A3002D500200146E9E701051019694129
:1006B000DDE9084500196941BDE8F04DA2E70000F9
:1006C0001CB509480090094801900546009C06E0C9
:1006D000E06840F0010394E8070098471034AC420A
:1006E000F6D3FFF761FD0000C43D0008F43D0008AB
:1006F00048F20040C4F2030000F0C4BAFEE7000074
:1007000070470000FEE70000FEE7000070B50446F9
:10071000A0F18040A0F560304FEAB026042E0D46CF
:1007200007D343F64C50C0F6000040F2291102F006
:1007300099FA9DB1032E19D8206840075CBF206844
:100740005FEA007014D543F64050C0F6000002F096
:1007500083FE39A003F0D2F8022070BD43F64C505E
:10076000C0F600004FF4957102F07CFA052070BDD0
:10077000E86843F67016C0F60006002818BF064663
:10078000204600F06BF8A06840F00800A060A06868
:1007900040F00200A060A06840F00100A060D4F822
:1007A0000003298861F31120C4F80003D4F8000382
:1007B000A978EA7861F30300C4F80003606862F383
:1007C000CF306060A068317861F30510A06041F21D
:1007D0004000C4F20200006800F47F00B0F5003F62
:1007E0000AD9012001F0DEF930B17078616821F496
:1007F000804160F38E316160291D204600F07EF853
:10080000002818BF70BD206840F00100206000F093
:1008100007FC05462069C00508D400F001FC401B18
:1008200064284FF00300F5D970BD00BF4FF480700D
:100830002061002070BD00BF4144432063616E27EA
:100840007420496E6974207768696C652069742723
:10085000732052756E6E696E67210000B0B584B06A
:100860000446A0F18040A0F560304FEAB020042893
:1008700004D31CA040F2351102F0F4F948F2004113
:100880000020C4F20301CDE902000F208C428DF854
:1008900008001FD048F20000C4F20300844216D1C1
:1008A00044F200040320C4F2020401AD019020468A
:1008B000294600F025FA0620019004F5005029464B
:1008C00000F01EFA01F00AFA402001F08BF904B0A2
:1008D000B0BD00BF01F01AFA442004B0BDE8B0403A
:1008E00001F080B92E2E2F2E2E2F2E2E2F4150505C
:1008F0002F6164635F6170702E63000070B5044601
:10090000A0F18040A0F560304FEAB026042E0D46DD
:1009100007D343F64C50C0F600004FF4D67102F0F6
:10092000A1F99DB1032E19D8206840075CBF20684B
:100930005FEA007014D543F64050C0F6000002F0A4
:100940008BFD1DA002F0DAFF022070BD43F64C5073
:10095000C0F6000040F2AD1102F084F9052070BD30
:1009600060686A78297862F30B20AB78EE78606073
:10097000606806F0010263F3061060606068012998
:1009800020F0800040EAC21060602879626822F09E
:100990000102104460606879626822F0020260F32C
:1009A00041026260606814BF20F4805040F48050BF
:1009B0006060002070BD00BF414443204F766572E7
:1009C00073616D706C652063616E277420436F6E78
:1009D000666967207768696C65206974277320529F
:1009E000756E6E696E67210070B50446A0F1804097
:1009F000A0F560304FEAB026042E0D460AD29DB114
:100A0000687814281BD22878102823D2032E2BD9DB
:100A100030E000BF43F64C50C0F6000040F2EF114A
:100A200002F020F9002DEBD143F64C50C0F6000047
:100A30004FF4F87102F016F968781428E3D343F6FE
:100A40004C50C0F6000040F2F11102F00BF928788A
:100A50001028DBD343F64C50C0F600004FF4F97178
:100A600002F000F9032E05D86878132802D82978F7
:100A70000F2901D9052070BD2268520740D4CAB29F
:100A8000CD235A43920A04EB820302EB8202891AB5
:100A900001EB410149001E6CC9B21F228A4026EABF
:100AA000020200FA01F111431964A269EE780121F2
:100AB000814006F001068A438640324395F802C021
:100AC0002D79A2610C2202EA500222441C23166AEC
:100AD00003EA80000723834026EA030305F00706A4
:100AE00006FA00F018431062D4F80401BCF1010FBB
:100AF0001ABFC94308400843C4F80401002070BD70
:100B000043F64050C0F6000002F0A6FC02A002F03E
:100B1000F5FE022070BD00BF414443205265677559
:100B20006C6172204368616E6E656C2063616E2734
:100B30007420436F6E666967207768696C65206909
:100B40007427732052756E6E696E67210000000075
:100B500070B50446A0F18040A0F560304FEAB026A1
:100B6000042E0D4607D343F64C50C0F6000040F269
:100B7000CD1102F077F85DB3032E31D8206840071D
:100B800030D460686A78297862F3D750AB78EE7811
:100B90006060606863F353406060606820F4803098
:100BA00061F310406060206D66F30B202065206DBE
:100BB000297920F0C00001F0030140EA811020658E
:100BC000206D697961F304002065002070BD00BFCD
:100BD00043F64C50C0F600004FF4E77102F042F8C3
:100BE000052070BD43F64050C0F6000002F034FC12
:100BF00002A002F083FE022070BD00BF41444320EA
:100C0000526567756C617220436F6D6D6F6E206306
:100C1000616E277420436F6E666967207768696C20
:100C20006520697427732052756E6E696E672100A6
:100C300070470000704700007047000070470000D8
:100C400070470000704700007047000070470000C8
:100C500070470000704700007047000070470000B8
:100C600070470000704700007047000070470000A8
:100C70007047000070470000704700007047000098
:100C8000704700002DE9F04381B00446A0F1804098
:100C9000A0F560304FEAB020042821D2D4F80451E6
:100CA000D4F8006143F6201900274FF00108C0F680
:100CB000000902E00137142F1ED008FA07F028427D
:100CC00018BF10EA0601F5D0C4F8000159F8271042
:100CD00020468847F9B22046FFF7D2FFEAE700BF77
:100CE00043F64C50C0F6000040F2346101B0BDE85C
:100CF000F04301F0B7BF00BF01B0BDE8F0830000D2
:100D00002DE9F04F81B08046A0F18040A0F5103071
:100D10004FEA3036062E8A460AD2BAF1000F11D0B9
:100D2000DAF800000021B1EB104F19D0D0E000BF7D
:100D300043F60450C0F60000462101F093FFBAF1DB
:100D4000000FEDD143F60450C0F60000472101F03A
:100D500089FFDAF800000021B1EB104F40F0B880B5
:100D600080B2002800F0B480052E00F2BB80DAF8D3
:100D700000100020B0EB114F4FF0050040F0B7809D
:100D800089B2002900F0B38008F1240908F1200C91
:100D900000274FF0010E4FF0000B002608E000BFC7
:100DA00001360BF1020B102E07F1040700F09E80B4
:100DB000DAF800000EFA06F10840F1D09AF80410B3
:100DC0004A1E0F2A5CD23A464B46082E2CBF02F030
:100DD0001C0263461D680F249440A543914029439B
:100DE00019609AF808100029D8F8381014BF014388
:100DF0008143C8F838109AF807100029D8F848102D
:100E000014BF084321EA0000C8F84800D8F83000B1
:100E100003219AF8052001FA0BF1884302F003013F
:100E200001FA0BF10843C8F8300041F24000C4F267
:100E30000200006800F47F00B0F5003FB0D98020C8
:100E4000644600F0AFFE4FF0010EA4460028A7D084
:100E50009AF80910DAF80000CA07D8F840200CBF49
:100E600082430243C8F8402089074FEA0040D8F87F
:100E7000401054BF21EA00000843C8F840008FE743
:100E8000C1BB39464A46082E2CBF01F01C01624600
:100E900013680F2404FA01F123EA010111609AF8A2
:100EA00006100029B2D0D8F81420032303FA0BF35C
:100EB00001F003019A4301FA0BF11143C8F8141031
:100EC000C8F81800D8F810100843C8F810009DE7BB
:100ED00043F60450C0F60000482101F0C3FE052E81
:100EE0007FF645AF052001B0BDE8F08F002001B0CE
:100EF000BDE8F08F06A002F0AFFA9AF8043008A01F
:100F00004146324602F0A8FA012001B0BDE8F08F58
:100F10005B45404750494F204C4C5D20000000008D
:100F20004750494F2D5B3078253038785D20506927
:100F30006E2D5B25645D20616C7465726E617465F5
:100F40002066756E6374696F6E205B25645D206337
:100F50006F6E666967204572726F722121210A00E7
:100F600010B5A0F18042A2F510324FEA3232052AC4
:100F70000C460BD80021B1EB144F16D1A1B2A1B190
:100F80004068204018BF012010BD00BF43F6045048
:100F9000C0F60000FD2101F065FE0020B0EB144F0B
:100FA00003D1A1B2002918BF10BD43F60450C0F60A
:100FB0000000FE2101F056FE002010BD10B5A0F18A
:100FC0008043A3F510334FEA3333052B0C460DD87D
:100FD0000021B1EB144F19D1A1B2B9B10168012AB6
:100FE00014BF41EA04412143016010BD43F604509F
:100FF000C0F6000040F2151101F034FE0020B0EB05
:10100000144F03D1A0B2002818BF10BD43F60450FE
:10101000C0F600004FF48B71BDE8104001F022BE15
:1010200048F29850C2F20000006870472DE9F04184
:101030004BF60078C4F20308A8F57067144606461C
:10104000B8420D4607D043F68750C0F6000040F284
:10105000152101F007FE002C2CD00A2D34D2BE42FF
:101060004FF0050040F01381002C08BFBDE8F0816F
:101070004BF65870C4F20300DFE805F006A0567482
:1010800032B6D08EE24400BFD4E9001240F8281CEA
:1010900040F8242C50F8541C627A62F3134140F853
:1010A000541CD8F80010A27A62F31341C8F800105B
:1010B000D7E000BF43F68750C0F6000040F216218B
:1010C00001F0D0FD0A2DCAD343F68750C0F60000C8
:1010D00040F2172101F0C6FD0520BDE8F08100BFF8
:1010E00050F8081C2268890961F39F1240F8082C07
:1010F0004168627A62F3030141600168A27A62F397
:101100000301ADE050F8041C228862F3154140F859
:10111000041C4168627AA37A62F317514160016846
:1011200063F317519CE000BFD4E9001240F8181C8B
:1011300040F8142C50F8541C627A21F0706102F0CF
:101140000F0241EA026140F8541CD8F80010A27A5C
:1011500021F0706102F00F0241EA0261C8F800104C
:101160007FE000BFD4E9001240F8101C40F80C2CBE
:1011700050F8541C627A21F0704141EA027140F843
:10118000541CD8F80010A27A21F0704141EA027193
:10119000C8F8001065E000BF50F8041C22688909F7
:1011A00061F39F1240F8042C4168627A62F30F31B8
:1011B00041600168A27A62F30F3151E0D4E9001274
:1011C00040F8201C40F81C2C50F8541C627A62F342
:1011D000175140F8541CD8F80010A27A62F3175146
:1011E000C8F800103DE000BF50F8081C226862F308
:1011F0000D2140F8081C4168627A21F0F00102F0EC
:101200000F0241EA021141600168A27A21F0F00167
:1012100002F00F0241EA021122E000BF50F8081C60
:10122000228862F3154140F8081C4168627AA37A6B
:1012300062F30B214160016863F30B2110E000BFF2
:1012400050F8041C226862F30D2140F8041C416828
:10125000627A62F3134141600168A27A62F313413A
:1012600001600821042D88BF0C214258052D28BF9C
:10127000053D05EB45035B001F27267A9F40BA43D7
:1012800006F01F0707FA03F31A4342500020BDE897
:10129000F0810000704700004BF20001C4F203012E
:1012A00088420BD080B543F68750C0F6000040F26C
:1012B0005A4101F0D7FC052080BD00BF4BF6687095
:1012C000C4F20300016841F001010160016841F0CE
:1012D000080101600020704770470000704700005F
:1012E000704700007047000070B54BF20004C4F274
:1012F0000304A0420AD043F68750C0F600004FF422
:10130000E761BDE8704001F0ADBC00BF4BF6147062
:10131000C4F203000668D4F8105FB00708D515F0D2
:10132000020005D00220C4F8100F204602F080F819
:10133000700708D515F0040005D00420C4F8100F7C
:101340002046FFF7C9FF300708D515F0080005D083
:101350000820C4F8100F2046FFF7C0FFF00608D59C
:1013600015F0100005D01020C4F8100F204602F030
:1013700064F8B00608D515F0200005D02020C4F888
:10138000100F2046FFF7ACFF700608D515F040009F
:1013900005D04020C4F8100F2046FFF7A3FF300609
:1013A00008D515F0800005D08020C4F8100F204625
:1013B00002F048F8F00509D515F4807006D04FF416
:1013C0008070C4F8100F204602F041F8F00718BFF3
:1013D00015F0010005D00120C4F8100F204600F0E0
:1013E00011F8300458BF70BD15F4004008D04FF418
:1013F00000412046C4F8101FBDE87040FFF74ABF07
:1014000070BD00007047000080B501464BF200003F
:10141000C4F20300814209D043F68750C0F60000B1
:10142000842101F01FFC052080BD00BF00F002F800
:10143000002080BD70B584B0002044F20004ADF8F7
:101440000B004FF44070C4F2020401AD01900E266F
:1014500020462946ADF80860FFF752FC4FF4405093
:10146000019004F5805029468DF80860FFF748FC8C
:1014700000F054FD04B070BDF0B581B04BF2000235
:10148000C4F2030290420BD040F20C4143F6875065
:10149000C0F6000001F0E6FB052001B0F0BD00BF82
:1014A0000D46FFF7BDFD092D044611D14BF6087519
:1014B000C4F20305286840F0010028602868C007CE
:1014C00020D0FFF7ADFD001B6428F7D917E000BF5F
:1014D000072D1BD84BF60876C4F2030602203168AC
:1014E00000FA05F741EA07000135306030683840FE
:1014F000E84007D0FFF794FD001B6428F6D90320CD
:1015000001B0F0BD002001B0F0BD00BF40F21F41AE
:10151000BCE70000F0B581B04BF20007C4F203074E
:1015200014460646B8420D4607D043F68750C0F62B
:10153000000040F2951101F095FB002C00F0D280E4
:10154000082D80F0DA80BE424FF0050040F0C880E0
:10155000002C00F0C580206907EB0521C1F8380197
:101560006069C1F83C01D1F87001227E62F300008D
:10157000C1F87001D1F87001627E62F3C300C1F856
:101580007001D1F87001A27E62F34200C1F87001CF
:10159000D1F87001227B20F0400062F38610637B5B
:1015A000C1F87001D1F8700120F0200063F34510FC
:1015B000C1F87001206AC1F84001606AC1F84401B5
:1015C000D1F8700194F8282062F31040C1F870013E
:1015D000D1F8700194F8292062F3D340C1F870016A
:1015E000D1F8700194F82A2062F35240C1F87001DA
:1015F000E07ED1F8702122F4800260F39652C1F8A7
:101600007021207FD1F870314BF6047223F400135F
:1016100060F35553C1F87031D1F87001E37A20F0CE
:10162000605003F0070340EAC360C1F87001637AB9
:10163000D1F8707101F5807027F0804763F39E77D1
:10164000C1F87071217A0123C4F20302012903FA5F
:1016500005F1136814BF23EA010119431160A17A4F
:10166000026F22F0007261F359620267416F2278C3
:1016700021F0010111446378A778E6784167416F52
:1016800021F0020163F341014167416F21F0040140
:1016900067F382014167416F21F0080166F3C301DE
:1016A00041672179426F22F0100261F30412426710
:1016B0006179426F22F0200261F345124267A179FD
:1016C000426F22F0400261F386124267E279416F75
:1016D000002A14BF41F0800121F080014167002001
:1016E00001B0F0BD43F68750C0F600004FF4CB7157
:1016F00001F0B8FA082DFFF426AF43F68750C0F684
:10170000000040F2971101F0ADFA052001B0F0BDE4
:10171000B0B514464BF20002C4F2030290420BD063
:1017200043F68750C0F60000F32101F09BFA002C2D
:101730001CBF0520B0BD5DE0002C5BD0092963D142
:10174000D068A168400A60F35F21D1604FF6FF7155
:10175000D068C8F2000101F1FC410840E1680023B3
:10176000C0F2FF1319400844D0601068217C61F377
:10177000020010601068617C61F3C3001060607942
:1017800021789061E0885061106820F0404040EA84
:1017900081701060E078116821F0100160F304118D
:1017A0001160A078116821F4806160F38A211160D2
:1017B0006078116821F4006160F3CB211160207919
:1017C000D2F8901F21F4803160F31041C2F8901FCD
:1017D0001068E17C20F0C00001F0030140EA8110B4
:1017E0001060A07C116821F0200160F345110020F9
:1017F0001160B0BD43F68750C0F60000F42101F03F
:1018000031FA0520B0BD00BF082980F0A78002EBA7
:101810000123D3F80CC1D4F808E04FEADC3060F3C0
:10182000DF3EC3F80CE1D3F80CC1E08903F5807505
:1018300060F31E4CC3F80CC1D3F800C1207C60F3E8
:10184000020CC3F800C1D3F800C1607C60F3C30C84
:10185000C3F800C1607994F803C0C3F81801E088A8
:10186000C3F81401D3F8000120F010006CF3041049
:10187000C3F8000194F802C0D3F8000120F480609E
:101880006CF38A20C3F8000194F801C0D3F800E19A
:101890002EF400606CF3CB20C3F8000120794FF4E4
:1018A000003303FA01F10128D2F8900F14BF20EAA7
:1018B00001010143C2F8901FD4E906106965A865CB
:1018C000286894F8201061F3492028602868E17C9A
:1018D00020F0C00001F0030140EA8110A27C2860E2
:1018E000286820F0200062F345102860286894F8EA
:1018F000251020F0704040EA01702860286894F8B4
:10190000261061F311402860286894F8271061F3CD
:101910009340286094F82100296821F4807160F3D5
:101920000821296094F82200296821F4801160F3CD
:101930001451296094F82300296821F4001160F300
:101940005551296094F824002968012814BF21F416
:10195000800041F4800028600020B0BD43F687502D
:10196000C0F6000040F6B80101F07CF90520B0BDDA
:1019700010B514464BF20002C4F2030290420DD09F
:1019800043F68750C0F6000040F2071101F06AF9F3
:10199000002C1CBF052010BD22E000BF04B30929A4
:1019A00028D16088D061A0881062E08850622089C8
:1019B00090621068217820F0007061F35960A37A7A
:1019C000E47A1060106820F0006063F3DB60106060
:1019D000106820F0806064F39A601060002010BDF1
:1019E00043F68750C0F600004FF4847101F03AF9D5
:1019F000052010BD082980F08180638802EB01205A
:101A0000C0F81C31A188C0F82011E188C0F8241169
:101A10002189C0F82811D0F80011227821F0007136
:101A200062F35961A37A94F80BC094F80CE0C0F803
:101A30000011D0F8001121F0006163F3DB61C0F800
:101A40000011D0F8001121F080616CF39A61C0F8A8
:101A50000011D0F8041121F480316EF31041C0F868
:101A60000411617BD0F8042122F4003261F3514269
:101A7000C0F80421A17BD0F8042122F4802261F374
:101A80009242C0F80421E17BD0F8042122F4002224
:101A900061F3D342C0F80421217CD0F8042122F460
:101AA000801261F31452C0F80421617CD0F8042143
:101AB00022F4001261F35552C0F80421A17CD0F841
:101AC000042122F4800261F39652C0F80421E17CE3
:101AD000D0F8042122F4000261F3D752C0F80421A7
:101AE000227DD0F8041100F58270012A14BF21F084
:101AF000807141F080710160002010BD43F6875075
:101B0000C0F6000040F6221101F0ACF8052010BD2F
:101B100048F2000048F29851C2F20000C2F20001FF
:101B200000780A68104408607047000010B543F25E
:101B30000000C4F20200016841F010010160016878
:101B400041F020010160032000F0ACF80F2000F00C
:101B500005F8044600F032F8204610BDB0B548F252
:101B60000005C2F20005297861B1044600F06AFE62
:101B700029784FF47A72B2FBF1F1B0FBF1F000F08A
:101B800097FF08B10420B0BD0F2C84BF0120B0BD69
:101B90004FF0FF302146002200F03EF800206C603C
:101BA000B0BD000048F28C01C2F20001096801409A
:101BB000081AB0FA80F040097047000080B500F0C4
:101BC00011F900F023F900F035F900F047F900F0C1
:101BD00059F900F06BF900F0DDF8BDE8804000F045
:101BE000EDB80000B0F1FF3F0EDD00F01F01012253
:101BF00002FA01F11C2202EAD0004EF20012CEF2EB
:101C000000028150704700BF43F61440C0F6000048
:101C100040F20B1101F026B870B515460E46102A99
:101C2000044606D343F61440C0F60000C62101F076
:101C300019F8102E06D343F61440C0F60000C72151
:101C400001F010F845EA06000F2888BF70BD4EF677
:101C50000C50CEF2000001684FF0FF33C1F30221B7
:101C600081F00702042A28BF0422033903FA02F292
:101C700038BF002126EA02028A4003FA01F125EA70
:101C80000101114304F00F02043A104404F16042D0
:101C9000090102F56442002C48BF00F10C021170EA
:101CA00070BD0000C11E052910D24EF60C51CEF2B7
:101CB00000010A684FF6FF031A4042EA002040F094
:101CC000806040F0FD700860704700BF43F614402C
:101CD000C0F600008C2100F0C5BF00004C2048F287
:101CE000E471C4F20200C3F6AC714163016941F0D2
:101CF00008010161016841F001010160016A41F0E0
:101D00000801016201214163704700004C2048F244
:101D1000E471C4F20200C3F6AC714163016941F0A1
:101D200010010161016841F002010160016A41F0A6
:101D30000801016201214163704700004A1E102A18
:101D40001CD2382248F2E473C4F20202C3F6AC7328
:101D50009364136800F0030023F00C0343EA80004F
:101D60001060F023106903EB0111090961F30710FA
:101D70001061012090640020704700BF80B543F6D9
:101D8000C940C0F6000040F2131100F06BFF0520BF
:101D900080BD0000582048F2E471C4F20200C3F68E
:101DA000AC718162016841F001010160016941F09B
:101DB000010101610121816270470000582048F251
:101DC000E471C4F20200C3F6AC718162016841F0B3
:101DD00002010160016941F002010161012181629A
:101DE00070470000582048F2E471C4F20200C3F6C4
:101DF000AC718162016841F004010160016941F048
:101E0000040101610121816270470000582048F2FD
:101E1000E471C4F20200C3F6AC718162016841F062
:101E200008010160016941F008010161012181623D
:101E300070470000582048F2E471C4F20200C3F673
:101E4000AC718162016841F010010160016941F0EB
:101E5000100101610121816270470000582048F2A1
:101E6000E471C4F20200C3F6AC718162016841F012
:101E700020010160016941F02001016101218162BD
:101E800070470000582048F2E471C4F20200C3F623
:101E9000AC718162016841F040010160016941F06B
:101EA000400101610121816270470000582048F221
:101EB000E471C4F20200C3F6AC718162016841F0C2
:101EC00080010160016941F08001016101218162AD
:101ED000704700000139102914D2382248F2E47307
:101EE000C4F20202C3F6AC739364136860F3010397
:101EF0001360106961F303001061012090640020F9
:101F0000704700BF80B543F6C940C0F600004FF4EB
:101F1000957100F0A7FE052080BD00004C2048F21E
:101F2000E471C4F20200C3F6AC714163016941F48B
:101F300000710161016941F480610161016941F44D
:101F400000610161016941F480510161016941F45D
:101F500000510161016941F480410161016941F46D
:101F600000410161016941F480310161016841F082
:101F700010010160016841F020010160016841F039
:101F800040010160016841F080010160016841F495
:101F900080710160016841F400710160016841F4E1
:101FA00080610160016841F400610160016A41F0F3
:101FB0004001016201214163704700002DE9F047B3
:101FC00084B041F26C02002148F2E47EC4F20202C5
:101FD000C4F20201C3F6AC7E52F80CCC0868C1F81A
:101FE00080E0886B032420F00C008863886C41F249
:101FF000002720F0F00088640120C1F88000C1F8BB
:1020000080E0CB6D9FEDE50A43F00803CB65CB6C18
:10201000C0F27A0743F00103CB64CB6E43F00803B0
:10202000CB66C1F8800048F2E470C1F880E042F865
:10203000280C48F63D2042F8280C41F6EC1042F8F6
:10204000280C52F80C0C40F4005042F80C0C52F8DA
:102050000C0C40F4805042F80C0C52F84C3C41F20D
:10206000000043F4807342F84C3C52F84C3CCEF2F2
:10207000000064F38E2342F84C3C00234360036865
:1020800043F00103036000BF436814683D4614F544
:10209000807F3CBF1468250A01EE105AB8EE411A41
:1020A00021EE001ABCEEC11A11EE104AA342EBD386
:1020B00048F2001348F22134C4F20303C0F2800452
:1020C00043F8FC4C2B2443F8F84C002443F8E84C2C
:1020D000202443F8D84C112443F8C04C6FF0FF047F
:1020E0001D5945F001051D5153F8F04CE4050CD481
:1020F00053F8F04CE4055CBF53F8F04C5FEAC4546D
:1021000003D453F8F04CE405EED56FF0FF041D59ED
:1021100045F004051D511C6844F400341C601C6823
:10212000A40309D41C68A4035CBF1C685FEA843460
:1021300002D41C68A403F2D553F8AC4C1D681226D7
:1021400045F400351D6052F84C5C04EBD47466F322
:102150008E2542F84C5C4EF6FC55CEF200052E68FA
:102160009FED8F0A46F080762E600D68002645F4BC
:1021700000350D600D68A6EB640925F000450D6083
:102180000D6825F440750D600D6845F000450D6043
:102190004660056845F00104046000BF46681468A5
:1021A0003D4614F5807F3CBF1468250A01EE105AA5
:1021B000B8EE411A21EE001ABCEEC11A11EE104A17
:1021C000A642EBD353F8AC4C012514EB090848BFE9
:1021D000C8F10008CDF800801C6844F400341C608D
:1021E0000C6824F000440C600C6865F309240C6052
:1021F0000C6844F000440C6000244460046844F01F
:1022000001040460466814683D4614F5807F3CBFB5
:102210001468250A01EE105AB8EE411A21EE001A90
:10222000BCEEC11A11EE104AA642EBD353F8AC4CE7
:10223000022514EB090A48BFCAF1000ACDF804A030
:102240001C6844F400341C600C6824F000440C60EA
:102250000C6865F309240C600C6844F000440C60C1
:1022600000244460046844F0010404604668146873
:102270003D4614F5807F3CBF1468250A01EE105AD4
:10228000B8EE411A21EE001ABCEEC11A11EE104A46
:10229000A642EBD353F8AC4C14EB090648BF764288
:1022A00002961C6844F400341C600C6824F000445E
:1022B0000C600C6844F440740C600C6844F00044FA
:1022C0000C6000244460046844F00104046000BF12
:1022D0004568146814F5807F3C463CBF1468240AA6
:1022E00001EE104AB8EE411A21EE001ABCEEC11AF6
:1022F00011EE104AA542EBD353F8AC4C14EB090491
:1023000048BF644203941D68C24545F400351D6012
:102310000D684FF0000825F000450D600D6825F4AC
:1023200000350D60056825F0010505604FF00000DF
:102330006D4638BF012055F82070BE426FF0FF0691
:1023400038BF022055F8205043F80680C1F880E0DD
:10235000CB6D23F00803CB65CB6C23F00103CB647A
:10236000CB6D13F0780F03D1CB6E23F00803CB664F
:102370000123AC4238BF0320C1F8803042F80CCCB6
:102380004FF48032C1F88030C1F880204FF4003221
:10239000C1F8802004B0BDE8F08700BF51499D3AE4
:1023A000A69BC43A000000002DE9F0470025C4F2C6
:1023B0000205A8420C460DD043F6C940C0F6000005
:1023C00040F2B71100F04EFC002C1CBF0520BDE808
:1023D000F08725E024B3D4F8048041F6003AC0F237
:1023E000B70AD04528D041F20020C0F27A008045DB
:1023F00040F02E81A06849F20051C0F6BA2188420F
:1024000043F67410C0F6000000F01F81A16842F688
:102410008032C0F65332914226D1183015E100BF08
:1024200043F6C940C0F600004FF4DC7100F01AFC1E
:102430000520BDE8F08700BFA06849F20051C0F652
:10244000BA21884243F67410C0F6000002D1A830C9
:10245000FBE000BFA16842F68032C0F653329142E1
:102460000CD1C030F1E000BFA1684CF20022C0F6F0
:10247000EB3291420CD13030E7E000BFA1684CF262
:102480000022C0F6EB3291420CD1D830DDE000BF23
:10249000A16845F68002C0F6844291420CD14830D2
:1024A000D3E000BFA16845F68002C0F684429142A5
:1024B0000CD1F030C9E000BFA1684EF60072C0F642
:1024C0001C5291420CD16030BFE000BFA1684EF6B3
:1024D0000072C0F61C5291420CD100F58470B4E039
:1024E000A16848F28052C0F6B55291420CD17830C2
:1024F000ABE000BFA16848F28052C0F6B5529142ED
:102500000CD100F59070A0E0A16841F60042C0F641
:102510004E6291420ED1903097E000BFA16841F623
:102520000042C0F64E62914240F0928000F59C70ED
:102530008BE000BFA1684FF28002C0F2FA22914204
:1025400002D100F5A87080E0A16843F6C032C0F265
:102550004732914202D100F5B47076E0A16848F2AA
:102560000072C0F29332914202D100F5C0706CE06B
:10257000A1684DF24022C0F2DF32914202D100F553
:10258000CC7062E0A16841F68052C0F22C429142C8
:1025900002D100F5D87058E0A16846F6C002C0F23A
:1025A0007842914202D100F5E4704EE0A1684BF20E
:1025B0000042C0F2C442914202D100F5F07044E002
:1025C000A1684FF64072C0F21052914202D100F55C
:1025D000FC703AE0A16844F68022C0F25D5291425C
:1025E00002D100F5047030E0A16849F2C052C0F297
:1025F000A952914202D100F50A7026E0A1684EF27C
:102600000012C0F2F552914202D100F510701CE0A8
:10261000A16842F64042C0F24262914202D100F506
:10262000167012E0A16847F28072C0F28E62914289
:1026300002D100F51C7008E0A1684CF2C022C0F283
:10264000DA62914204D100F52270468980893BE02C
:102650002078012811D141F26C00C4F20200016817
:1026600011F5807F04D341F20028C0F27A0802E01D
:1026700000684FEA1028C4F80480B8F1000F00F099
:10268000AF80A068FDF730FF064640460F46FDF7D5
:102690002BFF02460B4630463946FDF7B6FE07468D
:1026A0008946FDF72EFF0646FDF71EFF02460B4644
:1026B00038464946FDF731FE9FED570B53EC102B82
:1026C000FDF731FEFDF71DFF48F2E477C3F6AC7766
:1026D000C5F88070296821F000412960217803291C
:1026E00016D001290AD000296CD12A6F42F00102CC
:1026F0002A672A6822F003020DE000BF2A6F012337
:1027000042F010022A672A6863F3010203E000BF67
:102710002A6842F003022A602A68D04522F4006247
:102720002A602A686FF39F3622F4806288BF02F520
:1027300080622A606A684FF6FF736FF31D4242EAB7
:1027400006426A606A689A431044686028680222F8
:1027500062F38F302860A0684CF20022C0F6EB32A2
:1027600090420FD101294DD061B941F20020C0F251
:102770007A00804506D141F26C00C4F20200406844
:10278000800F03E0FFF71AFCC5F88070296860F33A
:1027900009212960286840F000402860286840002E
:1027A00009D4286840005CBF28685FEA400002D472
:1027B00028684000F2D50120C5F880000020BDE85F
:1027C000F08700BF43F6BD40C0F6000000F044FEB5
:1027D000217813A000F040FE0120BDE8F08700BF83
:1027E00043F6BD40C0F6000000F036FED4E9011209
:1027F00043F65240C0F6000000F02EFE0120BDE876
:10280000F08700BF41F26C00C4F20200006800F0E3
:102810000300BBE700BF00BF000000000000F04065
:10282000504C4C3020434C4B20536F7572636520E5
:1028300053656C6563742D5B25645D204572726F12
:1028400072210A0048F20800C2F2000000687047D6
:10285000F0B583B03027C4F20207A7F13005064671
:10286000A8420C4606D043F6C940C0F600009921A4
:1028700000F0F8F944B1606880B1AE424FF0050055
:1028800017D003B0F0BD00BF43F6C940C0F600004A
:102890009A2100F0E7F960680028EED143F6C940BC
:1028A000C0F600009B2100F0DDF9AE424FF00500BC
:1028B000E7D1002CE5D06068A0B12178032930D899
:1028C000DFE801F00214200A41F26C00C4F20200B9
:1028D000026812F5807F21D341F20020C0F27A0015
:1028E0001EE000BF052003B0F0BD00BF41F26C0048
:1028F000C4F20200C26812F1011F0BD94FF4FA4072
:102900000EE000BF6278012A00F0AC80002A00F0DF
:10291000B18006E0C068000C02E000BF0068000A59
:102920006060A2894FF6F076A2F111039BB2B34228
:102930009CBF0222A281E6894FF6F173113EB6B226
:102940009E423CBF0226E681268A313B413EB6B21A
:102950009BB29E4248F2E4763CBF01232382C3F639
:10296000AC7603293E656DD8DFE801F002340A2C0D
:10297000386C40F010003864386820F003002DE017
:10298000396801F00301022907D1396C41F01001C7
:102990003964396821F0030139606178A2688DF8E3
:1029A0000010CDE9012069462846FFF7FDFC00280C
:1029B0003E6543D13868022161F301003860A28985
:1029C0000DE000BF386C40F001003864386840F01A
:1029D000030003E03868012161F3010038604FF41F
:1029E0007061386801EB0221090A61F30B2038603D
:1029F0003868E1894FF20002CFF6FF7202EB013135
:102A0000090B61F30F3038603868218AFC2202EB31
:102A10008101890861F387003860386840F48030AC
:102A20003860386840F400303860386840F48020FE
:102A30003860386840F40020386000200121396592
:102A400003B0F0BD43F6BD40C0F6000000F004FD49
:102A500021780DA000F000FD01200121396503B0AF
:102A6000F0BD00BF41F26C02C4F20202136813F51C
:102A7000807F05D341F20022C0F27A02A26050E7C3
:102A80001268120AA2604CE7535953434C4B20532F
:102A90006F757263652053656C6563742D5B256487
:102AA0005D204572726F72210A00000070470000BD
:102AB000411E0020B0EB116F1CBF012070474EF289
:102AC0001002CEF2000251604EF62351CEF2000108
:102AD000F0230B700721906011607047FFF7E6BF8D
:102AE000FEE70000704700007047000000F014F897
:102AF000FDF756FB7047000080B5FFF709F8BDE809
:102B00008040FFF7EBBF000000281EBF48F208011D
:102B1000C2F200010860704740F200004EF6885192
:102B2000C0F60000CEF2000141F8800C41F2300006
:102B3000C4F2020048F2E4724261026822F002022A
:102B400002604FF480324261086840F4700008600F
:102B500070470000FEE70000F0B589B041F2600068
:102B60000025C4F2020048F63D21CDE90555CDE926
:102B700007550395ADF8105001958DF8085040F8B1
:102B80001C1C41F6EC1140F81C1C016848F20004C2
:102B900021F4005101600168C4F2030441F4805142
:102BA00001604FF4003140F81C1C03204FF4807783
:102BB00002268DF8190005A92046ADF816708DF88B
:102BC00018508DF81A60ADF81B708DF81D50FDF788
:102BD0009DFD4FF48170ADF80F0015208DF81100A8
:102BE00003A92046ADF80C50FDF7B2FF4FF4E060AA
:102BF00001AD0190204629468DF80860FDF7F4FEEE
:102C00004FF400600190204629468DF80860FDF7DA
:102C1000EBFE2046294601978DF80860FDF7E4FE9B
:102C20004FF400700190204629468DF80860FDF7AA
:102C3000DBFE09B0F0BD0000FFF78EBF48F20000D8
:102C4000C4F20300016841F004010160D0F80014EF
:102C500041F00401C0F80014416941F002014161F2
:102C60007047000050B1044607A00D4600F0F4FB89
:102C700008A021462A4600F0EFFB00BF00BF00BFBE
:102C800000BF00BFFAE700BF5B45404150505D20E8
:102C900000000000417373657274206661696C65A1
:102CA0006420696E202573206C696E65202575008F
:102CB00048F22401C2F200010A786AB1012A0DD15A
:102CC00040F60061CEF20001D1F88020D2071CBF8F
:102CD00009685FEAC17117D1704700BF49680029D0
:102CE00008BF7047CA6B520709D5CA6B520744BF69
:102CF000CA6B5FEA427202D5CA6B5207F2D402462F
:102D00006FF35F220A6270474FF060410A6862B950
:102D100000BF0A684AB900BF0A6832B900BF0A6832
:102D20001AB900BF0A68002AF2D008707047000084
:102D300070B584B0002044F2000503900121CDF865
:102D400009004FF44060C4F2020501AE8DF808108E
:102D5000019028463146FDF7D3FF4FF4404005F57A
:102D60008054019020463146FDF7CAFF28464FF4B3
:102D700080610022FEF722F928464FF4006100220C
:102D8000FEF71CF920464FF480410022FEF716F9A9
:102D900020464FF400410022FEF710F904B070BD48
:102DA0002DE9F04F9DB00DF1040804460027404680
:102DB0002C21CDE91277CDE91477CDE91677CDE94D
:102DC0000C77CDE90E771097ADF84470FDF7F9F95F
:102DD0002046FEF719FB48F2A44B8DF84D70C2F265
:102DE000000BDBF8000012AEADF84E0040F201100F
:102DF00016902046092132461497ADF849708DF897
:102E00004B70CDE91877CDE91A77FEF781FC4FF0CA
:102E1000010A20252046002132468DF859708DF890
:102E20006D708DF84BA08DF8687019971895FEF7A6
:102E30006FFC204602213246CDE918574FF00209B7
:102E4000FEF766FC8DF830A0DBF804000CAEADF8A0
:102E50003200DBF808000921ADF83400DBF80C0083
:102E60003246ADF83600DBF810008DF83BA0ADF827
:102E700038002046FEF77CFD2046002132468DF8C2
:102E80003C70FEF775FD204602213246FEF770FDCC
:102E9000042006900820099010200A902046002166
:102EA00042460397CDF81490ADF81C708DF81E9033
:102EB000ADF82C708DF82E908DF804708DF806709A
:102EC000FEF728FB204602214246FEF723FB204660
:102ED000FEF7E2F920460921FEF7CEFA204600214E
:102EE000FEF7CAFA20460221FEF7C6FA1DB0BDE879
:102EF000F08F000070B594B048F29040C2F200002C
:102F000043F67F61142201604260026842F21F159D
:102F1000D31702EB9372921082602822C26040F6AF
:102F20007F42026148F2A440C2F2000040F2DF1288
:102F300041F63F73016042608360C560016148F201
:102F4000E0404BF20004C2F20000C4F2030401604E
:102F500042608360C56001612046FFF721FF0AAD32
:102F600028462821FDF72DF940F20110ADF8380070
:102F70004FF6FF100026ADF82E00204601212A460C
:102F8000ADF824600896CDE90666CDE90466CDE982
:102F90000266FEF7BDFB4FF48030009002208DF8F2
:102FA0000A004FF48070ADF808006A462046002100
:102FB0000196FEF73BF84FF4FA70ADF8180004AA3A
:102FC00020460121FEF7D4FC20460121FEF754FAE9
:102FD00014B070BD4BF61C70C4F20300016841F4DC
:102FE0005F610160704700004BF20400C4F203000F
:102FF000016841F0807141F47F0101607047000079
:103000004BF61870C4F20300016841F0330101600F
:103010007047000086B04FF48171ADF804104CF297
:10302000002141F26C00C0F6EB31C4F202000291C3
:10303000016811F5807F05D341F20020C0F27A00CB
:1030400002E000BF0068000A03904FF002100490F5
:103050000120ADF814000020C4F2020001A9FFF71E
:10306000F7FB50B90298FFF74FFD01200421FEF74E
:1030700065FE01200121FEF72DFFFEF757FD04201C
:103080000424FEF70FFE442002210122FEF7C4FDB6
:10309000FFF74EFEFFF72EFFFFF7CEFDFFF7A4FF71
:1030A00048F2B400C2F2000080F89843FFF7A8FF8E
:1030B000FFF7C4FDFEE700002DE9F04348F2B40E2F
:1030C000C2F2000E9EF898030338012888BFBDE8BD
:1030D000F08344F20000C4F202004FF4805101601A
:1030E0009EED0D0A9FEDCF1AB4EE410AF1EE10FAF3
:1030F00040F3C0809FEDCD2A48F2300C20EE022A2A
:10310000BDEEC22A12EE101A4DF255000122C2F293
:10311000000C81428CED002A8EF89F2004D8C8094B
:103120007C2804D84FF47A500146CCF8000048F2CD
:10313000B8404FEA5109C2F20000CCF80490016097
:10314000DEF85870DEE91B52DEF87430EE19C6EB7B
:10315000510605EB510845608660A8EB0706C6607E
:10316000066805EB4707F61B48F2CC47C2F200079A
:1031700006613960466816447E608668F61ABE604D
:10318000C6681644FE600069C01A3861BE68DEF881
:1031900078007C680444A64202DD7C680444BC607C
:1031A0003C69FE680644B44202DDFC6804443C61AC
:1031B00048F2F446C2F20006CCF804903160756023
:1031C000DEF85C70EC19A9EB0404B460A8EB07040A
:1031D000F460346805EB4707E71B376148F208578E
:1031E000C2F200073960716811447960B168C91A88
:1031F000B960F1681144F9603169C91A3961B96877
:103200007A680244914202DD79680144B960396903
:10321000FA680244914202DDF968084438619EED83
:10322000052AB2EE0E3AB4EE432AF1EE10FAC0F2DD
:10323000C1809EF84810DEF85400002940F0E88074
:103240009EF89823042A40F0E3806428C0F2E080CE
:103250004BF61870C4F20300016841F0F001016000
:1032600001208EF8480000209EED052ACEF854007B
:10327000A5E000BF9FED6C2A9EED163A20EE022AD3
:10328000B8EEC33A32EE433ABDEEC33ADEF86C30E4
:1032900048F2300C13EE101A4FF00008C2F2000C86
:1032A0004FF47A50A1EB430148F2B8478EF89F8063
:1032B000CCF800003229D8BF3221C2F20007CA1868
:1032C000CCF8041038607B60BA60BA6848F2CC462B
:1032D00002EB4302FA60FA68C2F200061144396157
:1032E0003060DEF8700000EB0309C6F80490B9689E
:1032F000DEF87420891AB160F9680144F160396917
:10330000891A3161B768DEF8781075680D44AF42EC
:1033100002DD75680D44B5603569F468A8EB4307B4
:103320000C44A5424FEA430502DDF4680C443461C5
:103330009EED173A4FF47A56B8EEC33A32EE432A6E
:10334000BDEEC22A12EE104A3C4448F2F447C2F2E3
:103350000007322CD8BF3224CCF804403E607B609A
:103360002344BB60BB682B44FB60FB6823443B6188
:1033700048F20853C2F200031E60C3F80490BE680E
:10338000B61A9E60FE683044D8603869801A1861A9
:1033900098685A680A44904202DD58680844986068
:1033A0001869DA680A44904202DDD8680844186156
:1033B0009EED052A9EF84800B0FA80F04009B4EE70
:1033C000410AB2EE080AF1EE10FA4FF00002B4EE34
:1033D000402A4FF00001C8BF0122F1EE10FAA8BF49
:1033E00001210A4208BF002802D0BDE8F08300BFD7
:1033F0004BF61870C4F20300416841F0F0014160DF
:1034000000208EF84800CEF85400BDE8F08300BFDD
:1034100011B10020D3E700BF0130CEF85400BDE861
:10342000F08300BF9A99993E0055D0460055504709
:1034300040F2E52CC1F2000C604740F2053CC1F2BD
:10344000000C604740F2453CC1F2000C604740F27E
:10345000253CC1F2000C60470FB4054B10B503A921
:10346000044A029800F018F810BC5DF814FB000044
:10347000B12C00083880002002E008C8121F08C1E3
:10348000002AFAD170477047002001E001C1121FE5
:10349000002AFBD1704700002DE9FF4F8DB00F4689
:1034A0000546002606E025280BD0DDE90F129047DF
:1034B0006D1C761C28780028F5D111B03046BDE887
:1034C000F08F0024A246A1460122EC4900E004430B
:1034D00015F8013F203B02FA03F00842F7D12878A3
:1034E0002A2810D06FF02F022878A0F13001092986
:1034F00014D80AEB8A0102EB410144F0020400EB0C
:10350000010A6D1CF0E701CF5FEA000A03D544F41D
:103510000054CAF1000A44F002046D1C28782E28D9
:1035200017D115F8010F44F004042A280ED06FF0CB
:103530002F022878A0F1300109290AD809EB890166
:1035400002EB410100EB01096D1CF2E757F8049B07
:103550006D1C28786C280FD006DC4C2817D0682802
:103560000DD06A2814D104E0742810D07A280FD125
:103570000DE044F400140AE044F4801401E044F443
:1035800040146978814202D104F580146D1C6D1CD1
:103590002A786E2A1FD00CDC632A31D004DC002A82
:1035A0008BD0582A11D1A3E0642A68D0692A0CD1A3
:1035B00065E0732A2ED004DC6F2A73D0702A04D100
:1035C0009BE0752A6FD0782A6ED01046DDE90F1285
:1035D0009047761C50E1C4F30250022806D003281D
:1035E00009D0042801CF09D0066045E101CFF117C9
:1035F000C0E9006140E101CF06803DE106703BE19A
:1036000017F8040B8DF8000000208DF80100EB4640
:10361000012003E057F804BB4FF0FF3061074FF083
:10362000000102D40DE008F10101884649450FDA96
:103630008045F8DB1BF808100029F4D108E008F1F8
:10364000010188468142FADB1BF808100029F6D1F7
:10365000DDE90F23AAEB08008146214600F036F988
:10366000304400EB080604E0DDE90F121BF8010B03
:103670009047B8F10108F7D221464846F7E00A2101
:10368000C4F302534FF0000B0891022B04D001CF7A
:10369000C117032B09D00AE0FF1D27F00707F7E841
:1036A000020108E032E01FE020E000B2C117042B65
:1036B00001D140B2C117031E71F1000307DA4FF0C8
:1036C000000CD0EB0C006CEB01012D2302E0230574
:1036D00004D52B238DF82430012303E0E30701D028
:1036E0002023F7E7984658E00A2110E010210EE069
:1036F00010204FF0000B08900CE010214FF0000B51
:1037000044F004044FF00809089103E008214FF049
:10371000000B0891C4F30253022B04D001CF002107
:10372000032B06D006E0FF1D27F00707F7E802018C
:1037300003E080B2042B00D1C0B24FF00008230791
:103740002BD5702A07D0DDF820C08CF0100C5CEA75
:103750000B0C05D00EE040238DF82430012308E047
:1037600050EA010306D030238DF824308DF825204F
:1037700002239846DDF820C08CF0080C5CEA0B0CA4
:103780000BD150EA010301D1630706D530238DF830
:1037900024304FF00108A9F10109582A04D038A2B9
:1037A0000B9208AA0A920BE03AA2F9E75B46089A44
:1037B000FCF7C6FE0B9B9B5C0A9A521E0A92137082
:1037C00050EA0102F2D10A98ADEB000000F1200BA3
:1037D000600702D524F4803401E04FF00109D94597
:1037E00002DDA9EB0B0000E0002000EB0B014144DF
:1037F0000890AAEB010AE00306D4DDE90F23214675
:10380000504600F063F806444FF0000908E009A9AB
:1038100011F80900DDE90F12904709F10109761C42
:10382000C145F4DBE0030CD5DDE90F23214650460A
:1038300000F04CF8064404E0DDE90F123020904718
:10384000761C0899481E08900029F5DC08E00A98C3
:103850000A990078491C0A91DDE90F129047761CFD
:10386000BBF10001ABF1010BF1DC21465046DDE973
:103870000F2300F019F806446D1C1BE6092801000F
:1038800030313233343536373839616263646566D6
:103890000000000030313233343536373839414298
:1038A00043444546000000002DE9F0410446002550
:1038B0001E461746880404D405E039462020B04748
:1038C0006D1C641EF9D52846BDE8F0812DE9F04154
:1038D000044600251E469046C80301D5302700E067
:1038E0002027880404D505E041463846B0476D1CC2
:1038F000641EF9D52846BDE8F081000010B50446E5
:1039000001E0FFF7D5F914F8010B04490028F8D1BC
:10391000BDE810400A20FFF7CBB900003880002036
:10392000310C00085D0C0008610C0008650C0008F3
:10393000690C00086D0C0008710C0008750C00087B
:10394000790C00087D0C0008350C0008390C0008C3
:103950003D0C0008410C0008450C0008490C00080B
:103960004D0C0008510C0008550C0008590C0008BB
:103970000000000000127A00002A751501001600F0
:1039800000800000030000000200000000127A0026
:103990000057A6160100170000C000000300000039
:1039A0000200000000127A000084D71701001900FD
:1039B00000000000030000000200000000127A0076
:1039C00000B1081901001A000040000003000000C7
:1039D0000200000000127A0000DE391A01001B000C
:1039E00000800000030000000200000000127A00C6
:1039F000000B6B1B01001C0000C000000300000056
:103A00000200000000127A0000389C1C01001E0019
:103A1000000000000300000002000000001BB700CF
:103A2000002A751501000F000000000003000000CF
:103A300002000000001BB7000057A61601000F008F
:103A400055D500000300000002000000001BB70075
:103A50000084D71701001000AAAA0000030000008C
:103A600002000000001BB70000B10819010011009E
:103A7000008000000300000002000000001BB700EF
:103A800000DE391A01001200555500000300000045
:103A900002000000001BB700000B6B1B01001300AD
:103AA000AA2A00000300000002000000001BB7006B
:103AB00000389C1C010014000000000003000000FE
:103AC0000200000000127A0000E1F5050100060086
:103AD00000400000000000000200000000127A0018
:103AE00080778E060100060000E000000000000064
:103AF0000200000000127A00000E270701000700F4
:103B000000800000000000000200000000127A00A7
:103B100080A4BF0701000800002000000000000092
:103B20000200000000127A00003B58080100080063
:103B300000C00000000000000200000000127A0037
:103B400080D1F008010009000060000000000000C2
:103B50000200000000127A000068890901000A00D2
:103B600000000000000000000200000000127A00C7
:103B700080FE210A01000A0000A0000000000000F1
:103B80000200000000127A000095BA0A01000B0042
:103B900000400000000000000200000000127A0057
:103BA000802B530B01000B0000E000000000000020
:103BB0000200000000127A0000C2EB0B01000C00B2
:103BC00000800000000000000200000000127A00E7
:103BD0008058840C01000D0000200000010000004E
:103BE0000200000000127A0000EF1C0D01000D0021
:103BF00000C00000010000000200000000127A0076
:103C00008085B50D01000E0000600000010000007D
:103C1000020000002E2E2F2E2E2F2E2E2F447269E2
:103C2000766572732F544145333247353878785F63
:103C30004472697665722F5372632F7461653332F3
:103C400067353878785F6C6C5F636F727465782E57
:103C50006300446F6E2774206D6174636820706C1C
:103C60006C305F696E5F667265712D5B25755D20D6
:103C7000746F2067656E657261746520706C6C305E
:103C80005F6F75745F667265712D5B25755D2C20A5
:103C9000706C65617365206164642074686520637D
:103CA0006F6E66696720746F207263755F706C6CED
:103CB0005F636667206172726179210A005B45402B
:103CC000524355204C4C5D20002E2E2F2E2E2F2E91
:103CD0002E2F447269766572732F544145333247F3
:103CE000353878785F4472697665722F5372632F26
:103CF000746165333267353878785F6C6C5F7263F6
:103D0000752E63002E2E2F2E2E2F2E2E2F447269ED
:103D1000766572732F544145333247353878785F72
:103D20004472697665722F5372632F746165333202
:103D300067353878785F6C6C5F6770696F2E6300E9
:103D40005B4540414443204C4C5D20002E2E2F2EDD
:103D50002E2F2E2E2F447269766572732F54414593
:103D6000333247353878785F4472697665722F53FD
:103D700072632F746165333267353878785F6C6CA5
:103D80005F6164632E63002E2E2F2E2E2F2E2E2F7A
:103D9000447269766572732F544145333247353822
:103DA00078785F4472697665722F5372632F7461FD
:103DB00065333267353878785F6C6C5F687270771E
:103DC0006D2E6300F43D0008000000107416000022
:103DD0007834000868540008008000200C000000BF
:103DE00078340008745400080C800020900500000E
:103DF000883400084BF61870C4F20300016841F4DF
:103E0000A0610160704700BF4BF61C70C4F2030054
:103E1000016841F4A0610160704700BF10B54CF229
:103E2000000044F20004C4F200004AF6AA21C4F2E1
:103E3000020401604FF40060206048F2B400C2F256
:103E4000000090ED050AB3EE041A90F8AC13B4EE3E
:103E5000410AF1EE10FA53DD90F89823042A4FD16D
:103E600000294DD190ED0B2A90ED0C3AB4EE432A87
:103E7000F1EE10FA0EDDB0F8B0134A1C0021A0F8E4
:103E8000B023A0F8B21312B242F210739A422DDAA4
:103E900036E000BFB4EE432AF1EE10FA02DDB0F8CE
:103EA000B21307E0B0F8B2230021A0F8B013511C00
:103EB000A0F8B2130AB242F20F718A424FF0000129
:103EC00042F21073C8BF01219A424FF0000206DB94
:103ED000A0F8B223012280F8AE23A0F8AC23B0F8FA
:103EE000B02312B242F210739A4209DB0021A0F80B
:103EF000B01380F8AE1340F20111A0F8AC13012109
:103F0000B4EE410AF1EE10FA0ADDC90708D001F05B
:103F100035FA01F08FFA4FF00060206010BD00BF4D
:103F20000021C0F84413C0F82C13C0E91611C0F8E2
:103F30006813C0F8501301F07DFA4FF00060206064
:103F400010BD00BF10B54BF60070C4F2030001684D
:103F500048F2FF121143016000BF00BF00BF00BF65
:103F600048F2B40100BFC2F2000191F898234BF26D
:103F7000140448F2B84EC4F20304012AC2F2000E3F
:103F800018D14FF2247CCFF6FF7C40F2DF1340F8CB
:103F90000C304FF2287CCFF6FF7C4FF4FA5340F8F8
:103FA0000C304FF2147CCFF6FF7C43F67F6340F871
:103FB0000C3073E048F20C03C2F200031A684FF2AF
:103FC0001C71CFF6FF71425059684FF22072CFF644
:103FD000FF72815099684FF22472CFF6FF728150C0
:103FE000D9684FF22872CFF6FF728150DEF80010C8
:103FF0004FF21472CFF6FF72815048F2CC41C2F2F8
:1040000000014A684FF22053C4F808248A68CFF6AA
:10401000FF73C250CA684FF22453CFF6FF73C250E9
:104020000A694FF22853CFF6FF73C25009684FF266
:104030001C63C4F8001448F2F441C2F200014A685B
:10404000CFF6FF73C2508A684FF22063CFF6FF733A
:10405000C250CA684FF22463CFF6FF73C2500A6998
:104060004FF22863CFF6FF73C25009684FF2146213
:10407000CFF6FF72815048F20851C2F200014A683F
:10408000C4F808238A68C4F80C23CA68C4F810234B
:104090000A69C4F814230968C4F80013DEF8001094
:1040A0002160DEF80010CA1701EB92718910E160FF
:1040B000DEF800104FF61842CFF6FF7202EBA101B6
:1040C000A16000BF00BF00BF00BF00BF016848F291
:1040D000FF129143016010BD48F2B400C2F200002B
:1040E000C18841F00101C180052180F898130121A8
:1040F00080F84C10704700BF48F2B400C2F20000D4
:10410000C18841F00201C180052180F89813012186
:1041100080F84C10704700BF48F2B400C2F20000B3
:10412000C18841F00401C180052180F89813012164
:1041300080F84C10704700BF48F2B400C2F2000093
:10414000C18841F00801C180052180F89813012140
:1041500080F84C107047000048F28C40C2F200001A
:10416000B0F9000048F2AC0100EE100A9FED3F1AD2
:10417000C2F2000148F28A42B8EEC00A91ED012A6B
:10418000C2F2000220EE010A48F2B400B2F90020A7
:1041900020EE020AC2F2000080ED030A00EE102AAF
:1041A00048F28842C2F20002B2F90020B8EEC00A1A
:1041B00001EE102AB8EEC11A9FED2D2A30EE410A09
:1041C00020EE020A9FED2B1A91ED002A48F21C51B5
:1041D000C2F2000130EE010AB1F9001020EE020A2D
:1041E00080ED050A00EE101A48F21E51C2F20001DD
:1041F000B1F900109FED201A02EE101A48F220517A
:10420000C2F20001B1F90010B8EEC00AB8EEC22A3D
:10421000890020EE010A22EE011A02EE101AB8EE11
:10422000C22A80ED062A90ED092A90ED0B4A80ED16
:10423000070A32EE000A9FED112A90ED0A3A30EE9D
:10424000440A90ED0C5A80ED090A20EE020A80ED36
:104250000B0A33EE010A30EE450A80ED0A0A20EE21
:10426000020A80ED081A80ED0C0A70479A99F33B18
:104270000000113C0038F93EDFF26D3B6F12033B4A
:10428000B0B548F28C40C2F20000B0F900009FEDDA
:104290005B1A00EE100A48F2AC00C2F2000048F2CD
:1042A0008A41B8EEC00A90ED012AC2F2000120EE68
:1042B000010A48F2B404B1F9001020EE020AC2F279
:1042C000000484ED030A00EE101A48F28841C2F29D
:1042D0000001B1F90010B8EEC00A01EE101AB8EEF4
:1042E000C11A9FED472A30EE410A20EE020A9FEDE7
:1042F000451A90ED002A48F21C50C2F2000030EE40
:10430000010AB0F9000020EE020A84ED050A00EE71
:10431000100A48F21E50C2F20000B0F900009FEDF2
:104320003A1A02EE100A48F22050C2F20000B0F928
:104330000000B8EEC00AB8EEC22A800020EE010AE2
:1043400022EE011A02EE100AB8EEC22A84ED062A05
:1043500094ED092A94ED0B4A84ED070A32EE000A27
:104360009FED2A2A94ED0A3A30EE440A94ED0C5A55
:1043700084ED090A20EE020A84ED0B0A33EE010AED
:1043800030EE450A84ED0A0A20EE020A84ED081A8E
:1043900084ED0C0A00F002FC00F0D0FF48F2245536
:1043A000C2F200052868411C0228296018BFB0BD70
:1043B0004CF20000C4F200004AF6AA21016048F263
:1043C0002850E1686269C2F2000094ED220A94ED7F
:1043D000251AD4F89031C0E90012D4F8FC12D4F8B0
:1043E000202330EE410A836080ED030AC0E9041205
:1043F0000020002400F00CF82C60B0BD9A99F33B2B
:104400000000113C0038F93EDFF26D3B6F12033BB8
:1044100042F214024101C4F202025158490758BF46
:10442000704742F20001C4F2020141EA4010042147
:104430004161016941F001010161704790ED043A69
:1044400090ED012A90ED065A90ED054A23EE003AD0
:1044500032EE033A30EE452A22EE042A90ED084A65
:1044600090ED031AB4EE443A21EE001AF1EE10FA80
:1044700080ED001A80ED013A80ED022A06DCB5EEEF
:10448000403AF1EE10FA05DA9FED0F4AB0EE443AE9
:1044900080ED014A32EE011A31EE032AB7EE001A1E
:1044A000B4EE412AF1EE10FA80ED072A06DCB5EEF3
:1044B000402AF1EE10FA03DA9FED031A80ED071A95
:1044C00080ED060A704700BF0000000090ED043A3E
:1044D00090ED012A90ED065A90ED054A23EE003A40
:1044E00032EE033A30EE452A22EE042A90ED084AD5
:1044F00090ED031AB4EE443A21EE001AF1EE10FAF0
:1045000080ED001A80ED013A80ED022A06DCB1EE62
:10451000444AB4EE443AF1EE10FA03DAB0EE443A0B
:1045200080ED014A32EE011A31EE032AB7EE001A8D
:10453000B4EE412AF1EE10FA80ED072A04DD80ED99
:10454000071A80ED060A7047BFEE001AB4EE412A42
:10455000F1EE10FAB8BF80ED071A80ED060A704739
:1045600090ED061A90ED072A90ED0F6A90ED083A4B
:1045700090ED107A90ED094A90ED0A5A21EE001A5A
:10458000D0ED110AD0ED121A22EE062A23EE073AD8
:1045900032EE011A24EE204A25EE215A31EE031A9A
:1045A00090ED142A90ED153AD0ED011AD0ED022AC3
:1045B00031EE041A90ED164AD0ED033A31EE051AA9
:1045C00090ED175AD0ED044A61EE821A62EE832A0A
:1045D00063EE843A72EEA11A24EE855A71EEA31AA4
:1045E00031EE855AFFEE001AB4EE615AF7EE002A5A
:1045F00080ED0E0A80ED0B1AF1EE10FAB8BFB0EEA6
:10460000615AB4EE625AF1EE10FAC8BFB0EE625AC7
:1046100035EE011AB4EE621A80ED055A80ED131AD8
:10462000C0ED120A80ED117A80ED106A80ED0F0A5C
:1046300080ED163A80ED174A80ED152A80ED141AA8
:10464000F1EE10FAC8BFB0EE621AB4EE611AF1EEE4
:1046500010FAB8BFB0EE611A80ED0C1A7047000076
:1046600010B548F2B404C2F2000494F89E0018B1E8
:10467000012821D010BD00BF45F20000C4F20200A5
:10468000802100F0DCFE98B9B4F89800013001B246
:10469000B1F5FA7FA4F898000ADDE188012084F8DA
:1046A0009E0021F08000E0800020A4F89A0003E042
:1046B00094F89E000128DDD145F20000C4F202000A
:1046C000802100F0BCFE0128D4D1B4F89A0001305A
:1046D00001B20B29A4F89A00B8BF10BDE1880020F0
:1046E00084F89E00C4F8980041F08000E08010BD7E
:1046F00048F2B400C2F2000090ED030A9FED151AD3
:10470000B4EE410AF1EE10FA0ADDC2880121A0F8E8
:10471000601042F02001C1800021A0F8A41370476E
:104720009FED0D1AB4EE410AF1EE10FA11DCB0F96A
:10473000A4134A1CB1F57A7FA0F8A423B8BF704730
:10474000C2880021A0F8A413A0F8601022F0200174
:10475000C18070470000644200004842B0B548F292
:10476000B404C2F2000447F2000094F84950C4F2C5
:104770000200042100F063FE012D15D1012814D19F
:1047800048F21C00C2F20000018801318AB2062AF8
:10479000018010D3E2880021018042F4006084F897
:1047A0004910E080B0BD00BF30B148F21C00C2F239
:1047B000000000210180B0BD48F21C00C2F20000E0
:1047C000018840F6C51301318AB29A42018038BF90
:1047D000B0BD0121E28884F849100021018022F453
:1047E0000060E080B0BD00BF48F2B400C2F200003B
:1047F00090ED050A9FED1B1AB4EE410AF1EE10FA96
:1048000008DDC2880121A0F8621042F04001C18099
:10481000704700BF9FED141AB4EE410AF1EE10FA92
:1048200018DD48F21C0CC2F2000CDCF8042042F245
:104830001171531C8A42CCF8043038BF70470021F4
:10484000C288CCF804100121A0F8621042F0800167
:10485000C180704748F21C00C2F200000021416094
:10486000704700BF6666764233336B4248F2B4004D
:10487000C2F2000090ED060A9FED0F1AB4EE410A55
:10488000F1EE10FA08DAC188012241F48071C1808A
:10489000A0F86620704700BF9FED081AB4EE410AE9
:1048A000F1EE10FAD8BF7047C188002221F4807160
:1048B000C180A0F8662070470018944500E81946AA
:1048C00048F2B400C2F2000090ED030A9FED101A06
:1048D0000023B4EE410A90F89813F1EE10FAD8BF15
:1048E000012313F00103B0F8AA2318BF531C4FF0A3
:1048F000000C032918BF634619B2B1F5FA7FA0F87E
:10490000AA33B8BF7047C18841F48061C180704745
:104910000000564270B548F2B405C2F2000595EDAC
:10492000030A9FED801AB4EE410AF1EE10FA0BDD96
:10493000E9880120A5F8600041F02000E88000200F
:10494000A5F8A40318E000BF9FED771AB4EE410A62
:10495000F1EE10FA10DCB5F9A403411CB0F57A7F32
:10496000A5F8A41308DBE9880020A5F8A403A5F89E
:10497000600021F02000E88045F20004C4F2020447
:1049800095F8496004F50050042100F058FD012E0F
:1049900014D1012815D148F21C00C2F20000018890
:1049A00001318AB2062A018011D3EA8800210180F0
:1049B00042F4006085F84910E88008E0002800F023
:1049C000998048F21C00C2F200000021018095EDA0
:1049D000050A9FED561AB4EE410AF1EE10FA0BDD0E
:1049E000E9880120A5F8620041F04000E88095F8D0
:1049F0009E00F8B928E000BF9FED4D1A48F21C0058
:104A0000B4EE410AC2F20000F1EE10FA16DD416880
:104A100042F211734A1C9942426008D3002141605E
:104A2000E9880120A5F8620041F08000E88095F84F
:104A30009E0048B1012825D03BE000BF0021416025
:104A400095F89E000028F5D12046802100F0F7FC63
:104A5000A0B9B5F89800013001B2B1F5FA7FA5F818
:104A600098000BDDE988012085F89E0021F0800088
:104A7000E8800020A5F89A0004E000BF95F89E00A9
:104A8000012816D12046802100F0D9FC012810D140
:104A9000B5F89A00013001B20B29A5F89A0008DB9D
:104AA000E988002085F89E00C5F8980041F0800054
:104AB000E88095ED060A9FED1F1AB4EE410AF1EE6B
:104AC00010FA07DAE888012140F48070E880A5F840
:104AD000661070BD9FED181AB4EE410AF1EE10FA9F
:104AE000D8BF70BDE888002120F48070E880A5F868
:104AF000661070BD48F21C00C2F20000018840F64A
:104B0000C51301318AB29A420180FFF460AF0121DE
:104B1000EA8885F849100021018022F40060E880CD
:104B200055E700BF000064420000484266667642D6
:104B300033336B420018944500E8194648F21040A0
:104B4000C4F2030042680168920758BF704711F031
:104B5000020105D0022140F81019FFF791BB00BFF8
:104B6000704700BF4CF20001C4F200014AF6AA22CD
:104B700001F53C300A6000F067BC00BF4BF2080052
:104B8000C4F2030042680168D20714BF11F00101AA
:104B90007047012140F80819FFF740B910B5FFF739
:104BA000B9FE48F2B404C2F2000494F89803052850
:104BB00004D8DFE800F003313B3F7D8194F84900E1
:104BC00000284FF005006FD0B4F8621000296BD1B7
:104BD000B4F86010002967D1B4F86610002963D1D9
:104BE000B4F8681000295FD1B4F86A1000295BD1CD
:104BF00094F89E10002957D094ED030A9FEDBF1A38
:104C00000120B4EE410AF1EE10FAC8BFB0EE410A3D
:104C100084ED210A48E000BF94F84A0000286FD0D4
:104C2000B4F8500000B2022874DA7EE000F040FAD6
:104C30007BE000BF94F8490000284FF0050033D016
:104C4000B4F8621081BBB4F8601069BBB4F86610A8
:104C500051BBB4F8681039BBB4F86A1021BB94F8A2
:104C60009E1009B394ED211A9FEDDC2A94ED200AE1
:104C700031EE021AB4EE401AF1EE10FA84ED211A68
:104C8000A4BF84ED210AB0EE401AB4EE401AF1EE52
:104C900010FA4ADB94ED230A94ED241AB4EE401A7C
:104CA000F1EE10FA41DB042084F898033DE000BFE8
:104CB00000F09CFA39E000BF00F0CBFB062094F82E
:104CC0004C10C4F84E000020C4F8B4006063C4E97E
:104CD0003300C4F8E40284F84A00C4E9C100606506
:104CE000C4E93600C4E93800C4E93B00C4F8F40064
:104CF000C4F8F800002918BF052184F8981314E0BF
:104D0000FFF778F8B4F850000130A4F8500000B272
:104D100002280ADB012084F84A00FFF775F8022018
:104D200084F898030020A4F8500094F898030338FE
:104D3000012800F2EE8094ED030A94ED211A9FED14
:104D4000A82A31EE400A20EE021A9FEDA62A04F5A9
:104D5000B07020EE020A84ED251AFFF701FC94EDF5
:104D6000250A04F5E07030EE000AFFF7F9FB94ED38
:104D7000250AB0EE041A20EE010A04F50870FFF7C8
:104D8000EFFB94F8A11394F8A00359B150B984F83B
:104D9000A10340F69F709FED941AA4F8A20300208F
:104DA0003FE000BFB4F8A2139FED8F1A01390AB299
:104DB00084F8A10321EAE270002AA4F8A20301DD2D
:104DC00000202EE094ED052A94EDE70A9FED873A46
:104DD0009FED874A30EE030A22EE042AB4EE420A1F
:104DE000F1EE10FA84EDE70AA4BF84EDE72AB0EEF5
:104DF000420A9FED802AB4EE420AF1EE10FA0DDA73
:104E0000B5EE400AF1EE10FA4FF0010009DD94F81A
:104E10009813033901290DD936E000BF0120B0EE07
:104E2000421AB0EE410A84EDE71A94F89813033958
:104E3000012929D894ED051AB2EE042AB4EE421ADB
:104E4000F1EE10FA20DB94EDBF1A94EDC82A002190
:104E5000B4EE421AF1EE10FA80F00100A8BF012171
:104E6000084311D194ED642A94ED251A94ED7C3A0F
:104E700020EE020A94ED944A30EE010A30EE030A65
:104E800030EE040A02E000BF94ED250A04F5387004
:104E900084ED220AFFF7D2FA94ED050A9FED561A27
:104EA00004F5417031EE400AFFF7C8FA94EDBF0AED
:104EB00094EDC81AB4EE410AF1EE10FA06DA0020B9
:104EC00084F8A00384ED0D0AA4F8A603B4EE410A09
:104ED000F1EE10FA1DDBB4F9A613481CB1F57A7F88
:104EE000A4F8A6030CDD40F2E930A4F8A6030120E3
:104EF00084ED0D1A84F8A0030BE000BF00005642B9
:104F000000B2B0F57A7FDEBF002084F8A00384ED04
:104F10000D0AE16F481CDA29C8BFDC20D4F8D01391
:104F2000E0674A1C1E29C4F8D02309DD94ED251A38
:104F30000021B0EE410AC4F8D01384EDF21A03E068
:104F400094ED250A94EDF21A9FED2C2A30EE411AC9
:104F5000B4EE420A9FED2A0A0021F1EE10FA4FF05A
:104F60000002B4EE401AC8BF0122F1EE10FAA8BF49
:104F700001211143012984EDF31A1ED1C9281CDB3C
:104F800094EDBF0A94EDC81AB4EE410AF1EE10FA9E
:104F900013DA94ED050AB3EE0E1AB4EE410AF1EEFF
:104FA00010FA0ADC0020E06743F23330C3F6B36046
:104FB0006063C4F8E402C4F8FC0294ED030A9FEDB8
:104FC000111AB4EE410AF1EE10FAD8BF10BD00205C
:104FD0006063C4F8E402C4F8FC0210BD6F12833BA6
:104FE0001A1F993CE0663F3D000000006F12833AB3
:104FF000CDCC4C3D6666A640000060421A1F193DAC
:105000008FC2753C00005E4248F2B400C2F200005C
:1050100090F8491000294FF005011FD0B0F8622028
:10502000E2B9B0F86020CAB9B0F86620B2B9B0F8F9
:1050300068209AB9B0F86A2082B990F89E206AB1C7
:1050400090ED030A9FED071A0121B4EE410AF1EE3B
:1050500010FAC8BFB0EE410A80ED210A80F898131B
:10506000704700BF0000564210B548F2B404C2F2C7
:10507000000494F84A0018B1B4F8500007E000BFEB
:10508000FEF7B8FEB4F850000130A4F8500000B2AA
:105090000228B8BF10BD012084F84A00FEF7B4FE14
:1050A000022084F898030020A4F8500010BD00BF2F
:1050B00010B548F2B404C2F2000494F84900002884
:1050C00040D0B4F86200E8BBB4F86000D0BBB4F8DC
:1050D0006600B8BBB4F86800A0BBB4F86A0088BB2F
:1050E00094F89E0070B3B4F84E0078B3042824D12D
:1050F00048F2B840C2F200004FF4F07141604268DB
:1051000032328260826802F5F072C260C268323266
:10511000026145F25532026048F2F440C2F20000EA
:105120004160416832318160816801F5F071C16090
:10513000C16832310161026004200138A4F84E00D8
:1051400010BD00BF052084F8980310BD032084F82B
:10515000980300F083F9B4F84E000138A4F84E002B
:1051600010BD00BF48F2B400C2F2000090F8491030
:1051700000294FF0050134D0B0F862208ABBB0F8A6
:10518000602072BBB0F866205ABBB0F8682042BB02
:10519000B0F86A202ABB90F89E2012B390ED211A35
:1051A0009FED112A90ED200A31EE021AB4EE401A5A
:1051B000F1EE10FA80ED211AA4BF80ED210AB0EEC5
:1051C000401AB4EE401AF1EE10FA0CDB90ED230A0F
:1051D00090ED241AB4EE401AF1EE10FAB8BF704701
:1051E000042180F8981370476F12833B48F2B40093
:1051F000C2F2000090F8491021B3B0F8621009BB68
:10520000B0F86010F1B9B0F86610D9B9B0F868100C
:10521000C1B9B0F86A10A9B990F89E1091B190F890
:105220009F104FF07C520129C0F8BC230ED00029FA
:105230004AD147F6E1224FF07E51C3F69452C0E9BD
:10524000BB123EE0052180F89813704790ED050AE7
:10525000B2EE041A00214BF67762B4EE410AC4F2B2
:105260002001C3F69F62F1EE10FAC0F8EC12C0F80C
:10527000F02217DBB3EE002AB4EE420AF1EE10FA88
:1052800010DCD0F8C0134A1C6529C0F8C02318DB15
:105290006421C0F8C0134DF63B71C3F60F71C0F81E
:1052A000F0120EE0B4EE410AF1EE10FA06DBB3EEB6
:1052B000001AB4EE410AF1EE10FA02DD0021C0F846
:1052C000C0130021C0F8F412B0F8A213002908BFDF
:1052D00070474FF07E5147F6E12200F53B70C3F670
:1052E000945200230EC0704780B500F0B2F848F227
:1052F000B400C2F20000062190F84C20C0F84E1015
:105300000021C0F8B4104163C0E93311C0F8E412C1
:1053100080F84A10C0E9C1114165C0E93611C0E901
:105320003811C0E93B11C0F8F410C0F8F810002A99
:1053300018BF052280F8982380BD00BF48F2B40052
:10534000C2F2000090ED050AB3EE041AB4EE410A71
:10535000B2EE0E1AF1EE10FA46F20000B4EE410A77
:10536000C4F20200C4BF4FF480510160F1EE10FAA4
:10537000BCBF4FF080510160704700BF10B548F2CC
:10538000B404C2F2000494ED0B0A94ED0C1A94F8E4
:10539000AD1394F8AE0330EE410A84ED0F0A01B369
:1053A000F8B99FED211A0020E065C4F8500320EE03
:1053B000010A04F54A70FFF741F894EDD10A9FED18
:1053C0001B1A20EE010ABDEEC00A10EE102AB2F53B
:1053D000486FA8BF4FF4486294F8AD1394F8AE0339
:1053E000A26501BB002808BF10BD94ED0F0A9FED18
:1053F000101A0020A065C4F82C0320EE010A04F561
:105400005370FFF71BF894EDDA0A9FED081A20EEAF
:10541000010ABDEEC00A10EE100AB0F5486FA8BF31
:105420004FF44860E06510BDD9B5093D00555047BF
:10543000D9B509BD43F2B90CC0F6000C604740F67F
:10544000617CC0F6000C604741F2E92CC0F6000C0C
:10545000604742F6D57CC0F6000C604743F2010C71
:10546000C0F6000C60470000010000000F000000C3
:0454700000127A00AC
:04000005080001A14D
:00000001FF
