:020000040800F2
:10000000000001206D3000081530000809070008C5
:1000100011300008FD060008213300080000000030
:100020000000000000000000000000007530000823
:100030000107000800000000693000085D31000879
:100040000507000805070008050700080507000860
:100050000507000805070008050700080507000850
:100060000507000805070008050700080507000840
:100070000507000805070008050700080507000830
:100080000507000805070008050700080507000820
:100090000507000805070008050700080507000810
:1000A0000507000805070008050700080507000800
:1000B00005070008050700080507000805070008F0
:1000C00005070008050700080507000805070008E0
:1000D00005070008050700080507000805070008D0
:1000E00005070008050700080507000805070008C0
:1000F00005070008050700080507000805070008B0
:10010000050700080507000805070008050700089F
:1001100005070008050700089502001005070008FC
:10012000050700080507000805070008050700087F
:100130000507000805070008050700087D020010F4
:100140003902001005070008050700080507000828
:1001500005070008F1060008050700080507000864
:10016000050700080507000805070008050700083F
:10017000050700080507000805070008050700082F
:10018000050700080507000805070008050700081F
:10019000050700080507000805070008050700080F
:1001A000DFF80CD000F08CFA004800470538000852
:1001B00000000120D2B201E000F8012B491EFBD261
:1001C00070470022F6E710B513460A460446194662
:1001D000FFF7F0FF204610BD2DE9FE4F804681EA73
:1001E0000300C00F0C46009021F0004123F00045B1
:1001F000B8EB0200A94105D24046214690461C4674
:100200000B46024623F00040104347D0270DC7F3AA
:100210000A00C3F30A510290401A019040286BDA99
:10022000C3F3130040F4801B0098924620B10023D2
:10023000D2EB030A63EB0B0B01985946C0F1400265
:10024000504600F0AEF906460D4650465946019A12
:1002500000F0C6F910EB08006141002487EA115252
:1002600084EAE7731A4340D0009A62B3019A012AE4
:100270004FEA075215DC001B61EB02014FF0004210
:1002800002EA0752CDE90042001C41F580113246D6
:100290002B4600F0C6F903B0BDE8F08F404621467A
:1002A000F9E7001B61EB0201001C41F58013001807
:1002B0005B412018A2F5001747EB030140EAD57017
:1002C000B6196D4111E06D084FEA360645EAC07572
:1002D0004FEA0752001B61EB0201001C41F580113F
:1002E00049084FEA30000019514132462B4603B00D
:1002F000BDE8F04F00F086B90098012240000023CD
:10030000D0EB020263EBE073009821464FEAE07401
:10031000B8EB000061EB0401E9E783F000435BE721
:1003200081F0004158E72DE9FE4F81EA030404F013
:10033000004421F0004100944FF0000B23F00043F3
:1003400050EA01045ED052EA03045BD0C3F30A54BE
:10035000C1F30A552C44A4F2F3340194A0FB0254D7
:10036000C1F3130141F48011C3F3130343F4801369
:1003700001FB024400FB034E840A970A44EA8154BD
:1003800047EA8357A4FB076802958D0A05FB07859A
:100390004FEA932C04FB0C542705029D4FEA0658A4
:1003A00047EA1637B5EB08056EEB070C870E920E81
:1003B00047EA811742EA8312A7FB0201B6EB0B0161
:1003C00064EB00042B0D43EA0C335E1844EB1C5025
:1003D000DA465146E7FB0201C5F313044FEA0B333B
:1003E00043EA14534FEA0432019C43EA0603A4F1A2
:1003F0000C040294009CCDE900B400F012F903B0A3
:10040000BDE8F08F00200146F9E72DE9F04D81EAC3
:10041000030404F0004B21F0004514464FF0000A9D
:1004200023F0004150EA050220D054EA01021DD019
:10043000C5F30A570246C5F31303C1F31300C1F312
:100440000A5640F4801543F48013A7EB0608101BEE
:10045000D64608F2FD3873EB050002D308F1010817
:1004600001E092185B41B8F1000F03DA0020014669
:10047000BDE8F08D00204FF48011064684460EE062
:10048000171B73EB050705D3121B63EB050306432C
:100490004CEA010C49084FEA300092185B4150EADF
:1004A0000107EDD152EA030012D082EA040083EA88
:1004B0000501084305D0101BAB4106D201220023E1
:1004C00006E000224FF0004302E06FF001025310FB
:1004D0001AEB06004CEB085110EB0A0041EB0B0144
:1004E000BDE8F04D00F08EB80EB540F233410291F8
:1004F0000021CDE900110A460B4600F092F803B046
:1005000000BD70B5C1F30A5201F000450024C1F3EB
:10051000130140F2FF3341F480119A4201DA0020C6
:1005200070BD40F233439A42A2F2334203DC52429E
:1005300000F046F800E090402C43F1D0404270BDFE
:100540002DE9F05F0546002092469B468846064608
:10055000814640241BE0284641464746224600F09B
:100560002FF853465A46C01A914110D311461846E7
:10057000224600F016F82D1A67EB01084F46224676
:100580000120002100F00DF817EB00094E41201E5C
:10059000A4F10104DFDC484631462A464346BDE863
:1005A000F09F202A04DB203A00FA02F10020704775
:1005B0009140C2F1200320FA03F3194390407047A1
:1005C000202A04DB203A21FA02F00021704721FAA8
:1005D00002F3D040C2F1200291400843194670470F
:1005E000202A06DBCB17203A41FA02F043EAE073F7
:1005F00006E041FA02F3D040C2F1200291400843E4
:100600001946704710B5141E73F1000408DA401C37
:1006100041F1000192185B411A4301D120F0010021
:1006200010BD2DE9F04D92469B4611B1B1FA81F211
:1006300002E0B0FA80F220329046FFF7B2FF0446A3
:100640000F4640EA0A0041EA0B0153465A46084366
:1006500013D0114653EA010019D0C8F140025046A8
:10066000FFF7AEFF05460E46504659464246FFF795
:1006700098FF084305D0012004E020463946BDE834
:10068000F08D0020054346EAE0762C4337430A9874
:100690006305E40AA0EB08000022FD0A44EA47547F
:1006A0000A3002D500200146E9E701051019694129
:1006B000DDE9084500196941BDE8F04DA2E70000F9
:1006C0001CB509480090094801900546009C06E0C9
:1006D000E06840F0010394E8070098471034AC420A
:1006E000F6D3FFF761FD0000C8460008F846000891
:1006F00048F20040C4F2030000F0C4BAFEE7000074
:1007000070470000FEE70000FEE7000070B50446F9
:10071000A0F18040A0F560304FEAB026042E0D46CF
:1007200007D344F24E60C0F6000040F2291102F0F7
:100730007FFE9DB1032E19D8206840075CBF20685A
:100740005FEA007014D544F24260C0F6000003F086
:10075000ADFA39A003F0FCFC022070BD44F24E60FB
:10076000C0F600004FF4957102F062FE052070BDE6
:10077000E86844F2C416C0F60006002818BF064612
:10078000204600F06BF8A06840F00800A060A06868
:1007900040F00200A060A06840F00100A060D4F822
:1007A0000003298861F31120C4F80003D4F8000382
:1007B000A978EA7861F30300C4F80003606862F383
:1007C000CF306060A068317861F30510A06041F21D
:1007D0004000C4F20200006800F47F00B0F5003F62
:1007E0000AD9012001F012FA30B17078616821F461
:1007F000804160F38E316160291D204600F07EF853
:10080000002818BF70BD206840F00100206000F093
:100810003BFC05462069C00508D400F035FC401BB0
:1008200064284FF00300F5D970BD00BF4FF480700D
:100830002061002070BD00BF4144432063616E27EA
:100840007420496E6974207768696C652069742723
:10085000732052756E6E696E67210000B0B584B06A
:100860000446A0F18040A0F560304FEAB020042893
:1008700004D31CA04FF49D7102F0DAFD48F2004150
:100880000020C4F20301CDE902000F208C428DF854
:1008900008001FD048F20000C4F20300844216D1C1
:1008A00044F200040320C4F2020401AD019020468A
:1008B000294600F025FA0620019004F5005029464B
:1008C00000F01EFA01F03EFA402001F0BFF904B03A
:1008D000B0BD00BF01F04EFA442004B0BDE8B04006
:1008E00001F0B4B92E2E2F2E2E2F2E2E2F41505028
:1008F0002F6164635F6170702E63000070B5044601
:10090000A0F18040A0F560304FEAB026042E0D46DD
:1009100007D344F24E60C0F600004FF4D67102F0E7
:1009200087FD9DB1032E19D8206840075CBF206861
:100930005FEA007014D544F24260C0F6000003F094
:10094000B5F91DA003F004FC022070BD44F24E6016
:10095000C0F6000040F2AD1102F06AFD052070BD46
:1009600060686A78297862F30B20AB78EE78606073
:10097000606806F0010263F3061060606068012998
:1009800020F0800040EAC21060602879626822F09E
:100990000102104460606879626822F0020260F32C
:1009A00041026260606814BF20F4805040F48050BF
:1009B0006060002070BD00BF414443204F766572E7
:1009C00073616D706C652063616E277420436F6E78
:1009D000666967207768696C65206974277320529F
:1009E000756E6E696E67210070B50446A0F1804097
:1009F000A0F560304FEAB026042E0D460AD29DB114
:100A0000687814281BD22878102823D2032E2BD9DB
:100A100030E000BF44F24E60C0F6000040F2EF113B
:100A200002F006FD002DEBD144F24E60C0F600004E
:100A30004FF4F87102F0FCFC68781428E3D344F218
:100A40004E60C0F6000040F2F11102F0F1FC28788F
:100A50001028DBD344F24E60C0F600004FF4F97169
:100A600002F0E6FC032E05D86878132802D829780E
:100A70000F2901D9052070BD2268520740D4CAB29F
:100A8000CD235A43920A04EB820302EB8202891AB5
:100A900001EB410149001E6CC9B21F228A4026EABF
:100AA000020200FA01F111431964A269EE780121F2
:100AB000814006F001068A438640324395F802C021
:100AC0002D79A2610C2202EA500222441C23166AEC
:100AD00003EA80000723834026EA030305F00706A4
:100AE00006FA00F018431062D4F80401BCF1010FBB
:100AF0001ABFC94308400843C4F80401002070BD70
:100B000044F24260C0F6000003F0D0F802A003F007
:100B10001FFB022070BD00BF414443205265677532
:100B20006C6172204368616E6E656C2063616E2734
:100B30007420436F6E666967207768696C65206909
:100B40007427732052756E6E696E67210000000075
:100B500070B50446A0F18040A0F560304FEAB026A1
:100B6000042E0D4607D344F24E60C0F6000040F25A
:100B7000CD1102F05DFC5DB3032E31D82068400733
:100B800030D460686A78297862F3D750AB78EE7811
:100B90006060606863F353406060606820F4803098
:100BA00061F310406060206D66F30B202065206DBE
:100BB000297920F0C00001F0030140EA811020658E
:100BC000206D697961F304002065002070BD00BFCD
:100BD00044F24E60C0F600004FF4E77102F028FCCA
:100BE000052070BD44F24260C0F6000003F05EF8DC
:100BF00002A003F0ADFA022070BD00BF41444320C3
:100C0000526567756C617220436F6D6D6F6E206306
:100C1000616E277420436F6E666967207768696C20
:100C20006520697427732052756E6E696E672100A6
:100C300070470000704700007047000070470000D8
:100C400070470000704700007047000070470000C8
:100C500070470000704700007047000070470000B8
:100C600070470000704700007047000070470000A8
:100C70007047000070470000704700007047000098
:100C8000704700002DE9F04381B00446A0F1804098
:100C9000A0F560304FEAB020042821D2D4F80451E6
:100CA000D4F8006144F2741900274FF00108C0F62F
:100CB000000902E00137142F1ED008FA07F028427D
:100CC00018BF10EA0601F5D0C4F8000159F8271042
:100CD00020468847F9B22046FFF7D2FFEAE700BF77
:100CE00044F24E60C0F6000040F2346101B0BDE84D
:100CF000F04302F09DBB00BF01B0BDE8F0830000EF
:100D00002DE9F04F81B08046A0F18040A0F5103071
:100D10004FEA3036062E8A460AD2BAF1000F11D0B9
:100D2000DAF800000021B1EB104F19D0D0E000BF7D
:100D300044F2A050C0F60000462102F079FBBAF15F
:100D4000000FEDD144F2A050C0F60000472102F0A0
:100D50006FFBDAF800000021B1EB104F40F0B880D3
:100D600080B2002800F0B480052E00F2BB80DAF8D3
:100D700000100020B0EB114F4FF0050040F0B7809D
:100D800089B2002900F0B38008F1240908F1200C91
:100D900000274FF0010E4FF0000B002608E000BFC7
:100DA00001360BF1020B102E07F1040700F09E80B4
:100DB000DAF800000EFA06F10840F1D09AF80410B3
:100DC0004A1E0F2A5CD23A464B46082E2CBF02F030
:100DD0001C0263461D680F249440A543914029439B
:100DE00019609AF808100029D8F8381014BF014388
:100DF0008143C8F838109AF807100029D8F848102D
:100E000014BF084321EA0000C8F84800D8F83000B1
:100E100003219AF8052001FA0BF1884302F003013F
:100E200001FA0BF10843C8F8300041F24000C4F267
:100E30000200006800F47F00B0F5003FB0D98020C8
:100E4000644600F0E3FE4FF0010EA4460028A7D050
:100E50009AF80910DAF80000CA07D8F840200CBF49
:100E600082430243C8F8402089074FEA0040D8F87F
:100E7000401054BF21EA00000843C8F840008FE743
:100E8000C1BB39464A46082E2CBF01F01C01624600
:100E900013680F2404FA01F123EA010111609AF8A2
:100EA00006100029B2D0D8F81420032303FA0BF35C
:100EB00001F003019A4301FA0BF11143C8F8141031
:100EC000C8F81800D8F810100843C8F810009DE7BB
:100ED00044F2A050C0F60000482102F0A9FA052E05
:100EE0007FF645AF052001B0BDE8F08F002001B0CE
:100EF000BDE8F08F06A002F0D9FE9AF8043008A0F1
:100F00004146324602F0D2FE012001B0BDE8F08F2A
:100F10005B45404750494F204C4C5D20000000008D
:100F20004750494F2D5B3078253038785D20506927
:100F30006E2D5B25645D20616C7465726E617465F5
:100F40002066756E6374696F6E205B25645D206337
:100F50006F6E666967204572726F722121210A00E7
:100F600010B5A0F18042A2F510324FEA3232052AC4
:100F70000C460BD80021B1EB144F16D1A1B2A1B190
:100F80004068204018BF012010BD00BF44F2A050AF
:100F9000C0F60000FD2102F04BFA0020B0EB144F28
:100FA00003D1A1B2002918BF10BD44F2A050C0F671
:100FB0000000FE2102F03CFA002010BD10B5A0F1A7
:100FC0008042A2F510324FEA3232052A0C460FD881
:100FD0000021B1EB144F1BD1A1B2C9B181682142EC
:100FE00001680CBF214341EA0441016010BD00BF0C
:100FF00044F2A050C0F6000040F2291102F018FAA5
:101000000020B0EB144F03D1A0B2002818BF10BDD0
:1010100044F2A050C0F600004FF49571BDE81040B6
:1010200002F006BA10B5A0F18043A3F510334FEAE1
:101030003333052B0C460DD80021B1EB144F19D1D9
:10104000A1B2B9B10168012A14BF41EA04412143A8
:10105000016010BD44F2A050C0F6000040F215112E
:1010600002F0E6F90020B0EB144F03D1A0B2002843
:1010700018BF10BD44F2A050C0F600004FF48B71B1
:10108000BDE8104002F0D4B948F2AC40C2F2000012
:10109000006870472DE9F0414BF60078C4F2030870
:1010A000A8F5706714460646B8420D4607D044F2CC
:1010B0008960C0F6000040F2152102F0B9F9002C59
:1010C0002CD00A2D34D2BE424FF0050040F01381DF
:1010D000002C08BFBDE8F0814BF65870C4F2030045
:1010E000DFE805F006A0567432B6D08EE24400BFA9
:1010F000D4E9001240F8281C40F8242C50F8541C65
:10110000627A62F3134140F8541CD8F80010A27AB6
:1011100062F31341C8F80010D7E000BF44F28960C1
:10112000C0F6000040F2162102F082F90A2DCAD35F
:1011300044F28960C0F6000040F2172102F078F90D
:101140000520BDE8F08100BF50F8081C226889091D
:1011500061F39F1240F8082C4168627A62F3030140
:1011600041600168A27A62F30301ADE050F8041C0B
:10117000228862F3154140F8041C4168627AA37A20
:1011800062F317514160016863F317519CE000BF9F
:10119000D4E9001240F8181C40F8142C50F8541CE4
:1011A000627A21F0706102F00F0241EA026140F8B8
:1011B000541CD8F80010A27A21F0706102F00F02DE
:1011C00041EA0261C8F800107FE000BFD4E90012D4
:1011D00040F8101C40F80C2C50F8541C627A21F096
:1011E000704141EA027140F8541CD8F80010A27A0C
:1011F00021F0704141EA0271C8F8001065E000BFBB
:1012000050F8041C2268890961F39F1240F8042CED
:101210004168627A62F30F3141600168A27A62F339
:101220000F3151E0D4E9001240F8201C40F81C2C8A
:1012300050F8541C627A62F3175140F8541CD8F8E5
:101240000010A27A62F31751C8F800103DE000BF09
:1012500050F8081C226862F30D2140F8081C416810
:10126000627A21F0F00102F00F0241EA02114160BE
:101270000168A27A21F0F00102F00F0241EA0211A6
:1012800022E000BF50F8081C228862F3154140F8A4
:10129000081C4168627AA37A62F30B2141600168FD
:1012A00063F30B2110E000BF50F8041C226862F3C6
:1012B0000D2140F8041C4168627A62F313414160D9
:1012C0000168A27A62F3134101600821042D88BFEE
:1012D0000C214258052D28BF053D05EB45035B0059
:1012E0001F27267A9F40BA4306F01F0707FA03F329
:1012F0001A4342500020BDE8F08100007047000012
:101300004BF20001C4F2030188420BD080B544F2D5
:101310008960C0F6000040F25A4102F089F80520C9
:1013200080BD00BF4BF66870C4F20300016841F055
:1013300001010160016841F008010160002070476F
:1013400070470000704700007047000070470000C1
:1013500070B54BF20004C4F20304A0420AD044F278
:101360008960C0F600004FF4E761BDE8704002F00C
:101370005FB800BF4BF61470C4F203000668D4F8DF
:10138000105FB00708D515F0020005D00220C4F8A0
:10139000100F204602F071FC700708D515F004000C
:1013A00005D00420C4F8100F2046FFF7C9FF30070E
:1013B00008D515F0080005D00820C4F8100F204605
:1013C000FFF7C0FFF00608D515F0100005D010207B
:1013D000C4F8100F204602F055FCB00608D515F0F1
:1013E000200005D02020C4F8100F2046FFF7ACFFE6
:1013F000700608D515F0400005D04020C4F8100F45
:101400002046FFF7A3FF300608D515F0800005D071
:101410008020C4F8100F204602F039FCF00509D5F1
:1014200015F4807006D04FF48070C4F8100F204679
:1014300002F032FCF00718BF15F0010005D00120C2
:10144000C4F8100F204600F011F8300458BF70BDEA
:1014500015F4004008D04FF400412046C4F8101F96
:10146000BDE87040FFF74ABF70BD00007047000044
:1014700080B501464BF20000C4F20300814209D05E
:1014800044F28960C0F60000842101F0D1FF0520FC
:1014900080BD00BF00F002F8002080BD70B584B0B0
:1014A000002044F20004ADF80B004FF44070C4F289
:1014B000020401AD01900E2620462946ADF80860D1
:1014C000FFF71EFC4FF44050019004F58050294670
:1014D0008DF80860FFF714FC00F054FD04B070BDF7
:1014E000F0B581B04BF20002C4F2030290420BD07F
:1014F00040F20C4144F28960C0F6000001F098FF10
:10150000052001B0F0BD00BF0D46FFF7BDFD092D60
:10151000044611D14BF60875C4F20305286840F063
:10152000010028602868C00720D0FFF7ADFD001B30
:101530006428F7D917E000BF072D1BD84BF60876B3
:10154000C4F203060220316800FA05F741EA0700F9
:101550000135306030683840E84007D0FFF794FD2F
:10156000001B6428F6D9032001B0F0BD002001B0B3
:10157000F0BD00BF40F21F41BCE70000F0B581B0F4
:101580004BF20007C4F2030714460646B8420D4664
:1015900007D044F28960C0F6000040F2951101F0D6
:1015A00047FF002C00F0D280082D80F0DA80BE4288
:1015B0004FF0050040F0C880002C00F0C580206985
:1015C00007EB0521C1F838016069C1F83C01D1F889
:1015D0007001227E62F30000C1F87001D1F8700141
:1015E000627E62F3C300C1F87001D1F87001A27E7F
:1015F00062F34200C1F87001D1F87001227B20F043
:10160000400062F38610637BC1F87001D1F870016D
:1016100020F0200063F34510C1F87001206AC1F882
:101620004001606AC1F84401D1F8700194F82820A3
:1016300062F31040C1F87001D1F8700194F82920CC
:1016400062F3D340C1F87001D1F8700194F82A20F8
:1016500062F35240C1F87001E07ED1F8702122F4AB
:10166000800260F39652C1F87021207FD1F870316A
:101670004BF6047223F4001360F35553C1F8703134
:10168000D1F87001E37A20F0605003F0070340EADC
:10169000C360C1F87001637AD1F8707101F5807090
:1016A00027F0804763F39E77C1F87071217A012398
:1016B000C4F20302012903FA05F1136814BF23EAF7
:1016C000010119431160A17A026F22F0007261F3E7
:1016D00059620267416F227821F001011144637859
:1016E000A778E6784167416F21F0020163F3410179
:1016F0004167416F21F0040167F382014167416F47
:1017000021F0080166F3C30141672179426F22F09D
:10171000100261F3041242676179426F22F02002E5
:1017200061F345124267A179426F22F0400261F3F2
:1017300086124267E279416F002A14BF41F08001AE
:1017400021F080014167002001B0F0BD44F28960C2
:10175000C0F600004FF4CB7101F06AFE082DFFF4D3
:1017600026AF44F28960C0F6000040F2971101F004
:101770005FFE052001B0F0BDB0B514464BF200028B
:10178000C4F2030290420BD044F28960C0F600001C
:10179000F32101F04DFE002C1CBF0520B0BD5DE023
:1017A000002C5BD0092963D1D068A168400A60F39E
:1017B0005F21D1604FF6FF71D068C8F2000101F1DE
:1017C000FC410840E1680023C0F2FF1319400844BF
:1017D000D0601068217C61F3020010601068617CA9
:1017E00061F3C3001060607921789061E0885061F6
:1017F000106820F0404040EA81701060E078116885
:1018000021F0100160F304111160A078116821F437
:10181000806160F38A2111606078116821F40061B1
:1018200060F3CB2111602079D2F8901F21F4803130
:1018300060F31041C2F8901F1068E17C20F0C000F6
:1018400001F0030140EA81101060A07C116821F0D2
:10185000200160F3451100201160B0BD44F28960A1
:10186000C0F60000F42101F0E3FD0520B0BD00BF8B
:10187000082980F0A78002EB0123D3F80CC1D4F82B
:1018800008E04FEADC3060F3DF3EC3F80CE1D3F848
:101890000CC1E08903F5807560F31E4CC3F80CC1E0
:1018A000D3F800C1207C60F3020CC3F800C1D3F868
:1018B00000C1607C60F3C30CC3F800C1607994F888
:1018C00003C0C3F81801E088C3F81401D3F800017D
:1018D00020F010006CF30410C3F8000194F802C06B
:1018E000D3F8000120F480606CF38A20C3F8000173
:1018F00094F801C0D3F800E12EF400606CF3CB2023
:10190000C3F8000120794FF4003303FA01F10128F4
:10191000D2F8900F14BF20EA01010143C2F8901FD2
:10192000D4E906106965A865286894F8201061F369
:10193000492028602868E17C20F0C00001F0030104
:1019400040EA8110A27C2860286820F0200062F321
:1019500045102860286894F8251020F0704040EA6F
:1019600001702860286894F8261061F311402860FF
:10197000286894F8271061F39340286094F82100B8
:10198000296821F4807160F30821296094F822000D
:10199000296821F4801160F31451296094F8230020
:1019A000296821F4001160F35551296094F824004E
:1019B0002968012814BF21F4800041F480002860C8
:1019C0000020B0BD44F28960C0F6000040F6B801C6
:1019D00001F02EFD0520B0BD10B514464BF20002FB
:1019E000C4F2030290420DD044F28960C0F60000B8
:1019F00040F2071101F01CFD002C1CBF052010BD9A
:101A000022E000BF04B3092928D16088D061A088F2
:101A10001062E0885062208990621068217820F07E
:101A2000007061F35960A37AE47A1060106820F0C6
:101A3000006063F3DB601060106820F0806064F386
:101A40009A601060002010BD44F28960C0F600006A
:101A50004FF4847101F0ECFC052010BD082980F0E2
:101A60008180638802EB0120C0F81C31A188C0F896
:101A70002011E188C0F824112189C0F82811D0F87C
:101A80000011227821F0007162F35961A37A94F871
:101A90000BC094F80CE0C0F80011D0F8001121F050
:101AA000006163F3DB61C0F80011D0F8001121F090
:101AB00080616CF39A61C0F80011D0F8041121F430
:101AC00080316EF31041C0F80411617BD0F804211D
:101AD00022F4003261F35142C0F80421A17BD0F816
:101AE000042122F4802261F39242C0F80421E17BB8
:101AF000D0F8042122F4002261F3D342C0F804217B
:101B0000217CD0F8042122F4801261F31452C0F831
:101B10000421617CD0F8042122F4001261F35552B3
:101B2000C0F80421A17CD0F8042122F4800261F3E2
:101B30009652C0F80421E17CD0F8042122F400027E
:101B400061F3D752C0F80421227DD0F8041100F5CA
:101B50008270012A14BF21F0807141F08071016010
:101B6000002010BD44F28960C0F6000040F622114A
:101B700001F05EFC052010BD48F2000048F2AC41C7
:101B8000C2F20000C2F2000100780A681044086046
:101B90007047000010B543F20000C4F20200016873
:101BA00041F010010160016841F020010160032053
:101BB00000F0ACF80F2000F005F8044600F032F811
:101BC000204610BDB0B548F20005C2F200052978E4
:101BD00061B1044600F06AFE29784FF47A72B2FBD4
:101BE000F1F1B0FBF1F001F051F808B10420B0BD03
:101BF0000F2C84BF0120B0BD4FF0FF3021460022E2
:101C000000F03EF800206C60B0BD000048F27C019E
:101C1000C2F2000109680140081AB0FA80F04009D8
:101C20007047000080B500F011F900F023F900F0D2
:101C300035F900F047F900F059F900F06BF900F0C0
:101C4000DDF8BDE8804000F0EDB80000B0F1FF3FE6
:101C50000EDD00F01F01012202FA01F11C2202EA4E
:101C6000D0004EF20012CEF200028150704700BF49
:101C700044F2B040C0F6000040F20B1101F0D8BBB6
:101C800070B515460E46102A044606D344F2B040FD
:101C9000C0F60000C62101F0CBFB102E06D344F2A3
:101CA000B040C0F60000C72101F0C2FB45EA0600C3
:101CB0000F2888BF70BD4EF60C50CEF200000168B0
:101CC0004FF0FF33C1F3022181F00702042A28BF3D
:101CD0000422033903FA02F238BF002126EA020285
:101CE0008A4003FA01F125EA0101114304F00F02D1
:101CF000043A104404F16042090102F56442002CE8
:101D000048BF00F10C02117070BD0000C11E052912
:101D100010D24EF60C51CEF200010A684FF6FF03C6
:101D20001A4042EA002040F0806040F0FD700860F8
:101D3000704700BF44F2B040C0F600008C2101F0B3
:101D400077BB00004C2048F2E471C4F20200C3F6F5
:101D5000AC714163016941F008010161016841F022
:101D600001010160016A41F0080101620121416342
:101D7000704700004C2048F2E471C4F20200C3F640
:101D8000AC714163016941F010010161016841F0EA
:101D900002010160016A41F0080101620121416311
:101DA000704700004A1E102A1CD2382248F2E47301
:101DB000C4F20202C3F6AC739364136800F003002C
:101DC00023F00C0343EA80001060F023106903EB5A
:101DD0000111090961F307101061012090640020CE
:101DE000704700BF80B544F26550C0F6000040F275
:101DF000131101F01DFB052080BD0000582048F2A2
:101E0000E471C4F20200C3F6AC718162016841F072
:101E100001010160016941F001010161012181625B
:101E200070470000582048F2E471C4F20200C3F683
:101E3000AC718162016841F002010160016941F009
:101E4000020101610121816270470000582048F2BF
:101E5000E471C4F20200C3F6AC718162016841F022
:101E600004010160016941F0040101610121816205
:101E700070470000582048F2E471C4F20200C3F633
:101E8000AC718162016841F008010160016941F0B3
:101E9000080101610121816270470000582048F269
:101EA000E471C4F20200C3F6AC718162016841F0D2
:101EB00010010160016941F010010161012181629D
:101EC00070470000582048F2E471C4F20200C3F6E3
:101ED000AC718162016841F020010160016941F04B
:101EE000200101610121816270470000582048F201
:101EF000E471C4F20200C3F6AC718162016841F082
:101F000040010160016941F04001016101218162EC
:101F100070470000582048F2E471C4F20200C3F692
:101F2000AC718162016841F080010160016941F09A
:101F3000800101610121816270470000013910298F
:101F400014D2382248F2E473C4F20202C3F6AC732E
:101F50009364136860F301031360106961F3030075
:101F60001061012090640020704700BF80B544F2EA
:101F70006550C0F600004FF4957101F059FA052044
:101F800080BD00004C2048F2E471C4F20200C3F6A8
:101F9000AC714163016941F400710161016941F46F
:101FA00080610161016941F400610161016941F4ED
:101FB00080510161016941F400510161016941F4FD
:101FC00080410161016941F400410161016941F40D
:101FD00080310161016841F010010160016841F048
:101FE00020010160016841F040010160016841F099
:101FF00080010160016841F480710160016841F471
:1020000000710160016841F480610160016841F480
:1020100000610160016A41F04001016201214163F8
:10202000704700002DE9F04784B041F26C020021B6
:1020300048F2E47EC4F20202C4F20201C3F6AC7EAE
:1020400052F80CCC0868C1F880E0886B032420F0BB
:102050000C008863886C41F2002720F0F00088644F
:102060000120C1F88000C1F880E0CB6D9FEDE50A4A
:1020700043F00803CB65CB6CC0F27A0743F0010351
:10208000CB64CB6E43F00803CB66C1F8800048F206
:10209000E470C1F880E042F8280C48F63D2042F890
:1020A000280C41F6EC1042F8280C52F80C0C40F4C5
:1020B000005042F80C0C52F80C0C40F4805042F8DE
:1020C0000C0C52F84C3C41F2000043F4807342F88F
:1020D0004C3C52F84C3CCEF2000064F38E2342F8A4
:1020E0004C3C00234360036843F00103036000BFDE
:1020F000436814683D4614F5807F3CBF1468250A88
:1021000001EE105AB8EE411A21EE001ABCEEC11AC7
:1021100011EE104AA342EBD348F2001348F22134E7
:10212000C4F20303C0F2800443F8FC4C2B2443F8B0
:10213000F84C002443F8E84C202443F8D84C1124F0
:1021400043F8C04C6FF0FF041D5945F001051D51C7
:1021500053F8F04CE4050CD453F8F04CE4055CBFA4
:1021600053F8F04C5FEAC45403D453F8F04CE40540
:10217000EED56FF0FF041D5945F004051D511C6894
:1021800044F400341C601C68A40309D41C68A40334
:102190005CBF1C685FEA843402D41C68A403F2D5D7
:1021A00053F8AC4C1D68122645F400351D6052F8FA
:1021B0004C5C04EBD47466F38E2542F84C5C4EF60E
:1021C000FC55CEF200052E689FED8F0A46F0807612
:1021D0002E600D68002645F400350D600D68A6EBF5
:1021E000640925F000450D600D6825F440750D600B
:1021F0000D6845F000450D604660056845F0010436
:10220000046000BF466814683D4614F5807F3CBFFB
:102210001468250A01EE105AB8EE411A21EE001A90
:10222000BCEEC11A11EE104AA642EBD353F8AC4CE7
:10223000012514EB090848BFC8F10008CDF800805B
:102240001C6844F400341C600C6824F000440C60EA
:102250000C6865F309240C600C6844F000440C60C1
:1022600000244460046844F0010404604668146873
:102270003D4614F5807F3CBF1468250A01EE105AD4
:10228000B8EE411A21EE001ABCEEC11A11EE104A46
:10229000A642EBD353F8AC4C022514EB090A48BF15
:1022A000CAF1000ACDF804A01C6844F400341C6094
:1022B0000C6824F000440C600C6865F309240C6081
:1022C0000C6844F000440C6000244460046844F04E
:1022D00001040460466814683D4614F5807F3CBFE5
:1022E0001468250A01EE105AB8EE411A21EE001AC0
:1022F000BCEEC11A11EE104AA642EBD353F8AC4C17
:1023000014EB090648BF764202961C6844F4003478
:102310001C600C6824F000440C600C6844F44074A9
:102320000C600C6844F000440C60002444600468B5
:1023300044F00104046000BF4568146814F5807F10
:102340003C463CBF1468240A01EE104AB8EE411A1C
:1023500021EE001ABCEEC11A11EE104AA542EBD3D1
:1023600053F8AC4C14EB090448BF644203941D6855
:10237000C24545F400351D600D684FF0000825F09A
:1023800000450D600D6825F400350D60056825F0E9
:10239000010505604FF000006D4638BF012055F87B
:1023A0002070BE426FF0FF0638BF022055F8205063
:1023B00043F80680C1F880E0CB6D23F00803CB65BD
:1023C000CB6C23F00103CB64CB6D13F0780F03D1FA
:1023D000CB6E23F00803CB660123AC4238BF032049
:1023E000C1F8803042F80CCC4FF48032C1F8803014
:1023F000C1F880204FF40032C1F8802004B0BDE85D
:10240000F08700BF51499D3AA69BC43A00000000E6
:102410002DE9F0470025C4F20205A8420C460DD074
:1024200044F26550C0F6000040F2B71101F000F828
:10243000002C1CBF0520BDE8F08725E024B3D4F8AC
:10244000048041F6003AC0F2B70AD04528D041F2E4
:102450000020C0F27A00804540F02E81A06849F249
:102460000051C0F6BA21884244F21020C0F60000A4
:1024700000F01F81A16842F68032C0F653329142CB
:1024800026D1183015E100BF44F26550C0F60000B7
:102490004FF4DC7100F0CCFF0520BDE8F08700BFF1
:1024A000A06849F20051C0F6BA21884244F21020D7
:1024B000C0F6000002D1A830FBE000BFA16842F6E0
:1024C0008032C0F6533291420CD1C030F1E000BFEF
:1024D000A1684CF20022C0F6EB3291420CD13030B0
:1024E000E7E000BFA1684CF20022C0F6EB32914257
:1024F0000CD1D830DDE000BFA16845F68002C0F6FF
:10250000844291420CD14830D3E000BFA16845F627
:102510008002C0F6844291420CD1F030C9E000BF85
:10252000A1684EF60072C0F61C5291420CD1603088
:10253000BFE000BFA1684EF60072C0F61C52914287
:102540000CD100F58470B4E0A16848F28052C0F666
:10255000B55291420CD17830ABE000BFA16848F28F
:102560008052C0F6B55291420CD100F59070A0E0B7
:10257000A16841F60042C0F64E6291420ED1903001
:1025800097E000BFA16841F60042C0F64E6291425A
:1025900040F0928000F59C708BE000BFA1684FF284
:1025A0008002C0F2FA22914202D100F5A87080E0C8
:1025B000A16843F6C032C0F24732914202D100F521
:1025C000B47076E0A16848F20072C0F29332914292
:1025D00002D100F5C0706CE0A1684DF24022C0F25B
:1025E000DF32914202D100F5CC7062E0A16841F681
:1025F0008052C0F22C42914202D100F5D87058E0CE
:10260000A16846F6C002C0F27842914202D100F5BC
:10261000E4704EE0A1684BF20042C0F2C442914225
:1026200002D100F5F07044E0A1684FF64072C0F2AC
:102630001052914202D100F5FC703AE0A16844F6D4
:102640008022C0F25D52914202D100F5047030E068
:10265000A16849F2C052C0F2A952914202D100F5DC
:102660000A7026E0A1684EF20012C0F2F5529142C3
:1026700002D100F510701CE0A16842F64042C0F2A1
:102680004262914202D100F5167012E0A16847F251
:102690008072C0F28E62914202D100F51C7008E097
:1026A000A1684CF2C022C0F2DA62914204D100F576
:1026B0002270468980893BE02078012811D141F2BF
:1026C0006C00C4F20200016811F5807F04D341F26E
:1026D0000028C0F27A0802E000684FEA1028C4F827
:1026E0000480B8F1000F00F0AF80A068FDF7FCFE99
:1026F000064640460F46FDF7F7FE02460B463046BB
:102700003946FDF782FE07468946FDF7FAFE064682
:10271000FDF7EAFE02460B4638464946FDF7FDFD49
:102720009FED570B53EC102BFDF7FDFDFDF7E9FE78
:1027300048F2E477C3F6AC77C5F88070296821F0D9
:10274000004129602178032916D001290AD00029E7
:102750006CD12A6F42F001022A672A6822F0030234
:102760000DE000BF2A6F012342F010022A672A6899
:1027700063F3010203E000BF2A6842F003022A600B
:102780002A68D04522F400622A602A686FF39F36D7
:1027900022F4806288BF02F580622A606A684FF680
:1027A000FF736FF31D4242EA06426A606A689A4309
:1027B000104468602868022262F38F302860A068A5
:1027C0004CF20022C0F6EB3290420FD101294DD0DD
:1027D00061B941F20020C0F27A00804506D141F291
:1027E0006C00C4F202004068800F03E0FFF71AFC9F
:1027F000C5F88070296860F309212960286840F0D5
:10280000004028602868400009D4286840005CBF68
:1028100028685FEA400002D428684000F2D5012011
:10282000C5F880000020BDE8F08700BF44F2595091
:10283000C0F6000001F03AFA217813A001F036FA50
:102840000120BDE8F08700BF44F25950C0F60000F7
:1028500001F02CFAD4E9011244F2EE40C0F6000077
:1028600001F024FA0120BDE8F08700BF41F26C00BE
:10287000C4F20200006800F00300BBE700BF00BF25
:10288000000000000000F040504C4C3020434C4B06
:1028900020536F757263652053656C6563742D5B9F
:1028A00025645D204572726F72210A0048F20C00A7
:1028B000C2F2000000687047F0B583B03027C4F260
:1028C0000207A7F130050646A8420C4606D044F29E
:1028D0006550C0F60000992100F0AAFD44B160687F
:1028E00080B1AE424FF0050017D003B0F0BD00BF7D
:1028F00044F26550C0F600009A2100F099FD60682E
:102900000028EED144F26550C0F600009B2100F093
:102910008FFDAE424FF00500E7D1002CE5D0606896
:10292000A0B12178032930D8DFE801F00214200A91
:1029300041F26C00C4F20200026812F5807F21D3DC
:1029400041F20020C0F27A001EE000BF052003B073
:10295000F0BD00BF41F26C00C4F20200C26812F187
:10296000011F0BD94FF4FA400EE000BF6278012A34
:1029700000F0AC80002A00F0B18006E0C068000CD6
:1029800002E000BF0068000A6060A2894FF6F0769E
:10299000A2F111039BB2B3429CBF0222A281E6893D
:1029A0004FF6F173113EB6B29E423CBF0226E6815D
:1029B000268A313B413EB6B29BB29E4248F2E47653
:1029C0003CBF01232382C3F6AC7603293E656DD854
:1029D000DFE801F002340A2C386C40F01000386453
:1029E000386820F003002DE0396801F00301022966
:1029F00007D1396C41F010013964396821F00301C5
:102A000039606178A2688DF80010CDE9012069462F
:102A10002846FFF7FDFC00283E6543D138680221B7
:102A200061F301003860A2890DE000BF386C40F00E
:102A300001003864386840F0030003E03868012181
:102A400061F3010038604FF47061386801EB0221D6
:102A5000090A61F30B2038603868E1894FF20002FF
:102A6000CFF6FF7202EB0131090B61F30F303860D2
:102A70003868218AFC2202EB8101890861F3870012
:102A80003860386840F480303860386840F400308E
:102A90003860386840F480203860386840F400209E
:102AA000386000200121396503B0F0BD44F259506F
:102AB000C0F6000001F0FAF821780DA001F0F6F858
:102AC00001200121396503B0F0BD00BF41F26C0265
:102AD000C4F20202136813F5807F05D341F200228D
:102AE000C0F27A02A26050E71268120AA2604CE7B4
:102AF000535953434C4B20536F7572636520536594
:102B00006C6563742D5B25645D204572726F722164
:102B10000A000000542048F2E471C4F20200C3F637
:102B2000AC71C162016841F400610160016941F466
:102B3000006101610121C162704700005C2048F220
:102B4000E471C4F20200C3F6AC714162016841F065
:102B500002010160016941F002010161012141624C
:102B600070470000542048F2E471C4F20200C3F63A
:102B7000AC71C162016841F480510160016941F4A6
:102B8000805101610121C16270470000542048F268
:102B9000E471C4F20200C3F6AC71C162016841F491
:102BA00000510160016941F4005101610121C162DC
:102BB00070470000582048F2E471C4F20200C3F6E6
:102BC000AC718162016841F480710160016941F476
:102BD000807101610121816270470000582048F234
:102BE000E471C4F20200C3F6AC718162016841F481
:102BF00000710160016941F400710161012181628C
:102C000070470000502048F2E471C4F20200C3F69D
:102C1000AC710163016841F040010160016941F05C
:102C2000400101610121016370470000502048F21A
:102C3000E471C4F20200C3F6AC710163016841F0B3
:102C400080010160016941F080010161012101639E
:102C5000704700005C2048F2E471C4F20200C3F641
:102C6000AC714162016841F001010160016941F00C
:102C700001010161012141627047000044F200003E
:102C8000C4F202004FF40061FEF798B9411E002023
:102C9000B0EB116F1CBF012070474EF21002CEF254
:102CA000000251604EF62351CEF20001F0230B706A
:102CB0000721906011607047FFF7E0BF70B549F6DB
:102CC000FF74C4F20104A04218DC4DF6FF72C4F296
:102CD000000290422ADD4EF20002C4F2000290424D
:102CE0003FD048F20002C4F20102904239D049F2CA
:102CF0000002C4F20102904233D0BBE04AF6FF72F8
:102D0000C4F2020290421FDD4BF20002C4F2020242
:102D1000904226D00022C4F20302904221D041F218
:102D20000002C4F2030290421BD0A3E048F200026A
:102D3000C4F20002904214D049F20002C4F2000230
:102D400090420ED096E000BF4AF20002C4F20102A7
:102D5000904206D04AF20002C4F20202904240F0D1
:102D60008980002900F09580A0424FF0050217DC11
:102D70004DF6FF73C4F20003984227DD4EF20003C4
:102D8000C4F20003984239D048F20003C4F20103B0
:102D9000984233D049F20003C4F201032CE000BF93
:102DA0004AF6FF73C4F2020398421BDD4BF20003A4
:102DB000C4F20203984221D041F20003C4F203039B
:102DC00098421BD00023C4F2030315E048F200032D
:102DD000C4F20003984211D049F20003C4F2000388
:102DE0000AE000BF4AF20003C4F20103984205D092
:102DF0004AF20003C4F20203984238D14A680263DF
:102E00000A89826302684E780B7866F3C3028D7874
:102E10000260426865F30202426002680E7B66F35C
:102E200082020260CA7A0668002A26F0020608BFFB
:102E300002360660026822F0800263F3C712026065
:102E4000C26A8B7A63F30302C2624A7B026402683D
:102E50008B7B63F3461202600268CB7B63F3041240
:102E600002600268097C61F30922026000221046B8
:102E700070BD00BF44F20762C0F60002054610466E
:102E80000E46E62100F0D4FA3146284600297FF4A8
:102E90006BAF44F20760C0F60000E72100F0C8FA0B
:102EA000052070BDF0B581B049F6FF76C4F2010689
:102EB0004AF6FF744DF6FF75B042C4F20204C4F244
:102EC000000515DCA84227DD4EF20001C4F2000126
:102ED00088423BD048F20001C4F20101884235D05B
:102EE00049F20001C4F2010188422FD056E000BF30
:102EF000A0421FDD4BF20001C4F20201884225D03E
:102F00000021C4F20301884220D041F20001C4F242
:102F1000030188421AD041E048F20001C4F20001E6
:102F2000884213D049F20001C4F2000188420DD05A
:102F300034E000BF4AF20001C4F20101884205D02A
:102F40004AF20001C4F20201884227D1B0424FF098
:102F5000050132DCA84213DD4EF20002C4F2000289
:102F600090424DD048F20002C4F20102904247D094
:102F700049F20002C4F20102904241D030E000BFA9
:102F800048F20002C4F20002904239D049F2000235
:102F9000C4F20002904233D022E000BF44F2076145
:102FA000C0F600010746084640F2711100F040FAF1
:102FB0003846B0424FF00501CCDDA04214DD4BF2A3
:102FC0000002C4F2020290421AD041F20002C4F29E
:102FD0000302904214D00022C4F2030290420FD0A8
:102FE000084601B0F0BD00BF4AF20002C4F201027F
:102FF000904205D04AF20002C4F202029042EFD1A0
:10300000016841F0010101600021084601B0F0BDF6
:10301000FEE7000070470000B0B5054645F200002D
:103020000C46C4F202004FF40061FDF799FF48F22C
:103030002401C2F200010A68013213040A6009D4B3
:1030400070B16FF3DF32AA4238BFB0BD4FF4004019
:1030500007E000BF0028F9D16FF3DF32A24201D3AD
:1030600000200860B0BD00007047000000F086F846
:10307000FDF796F87047000048F210010022C2F2F6
:103080000001062828BF1046087048708A708A80A0
:10309000C870087800EB400244F2C810C0F6000087
:1030A00050F82220002A08BF7047097801EB41013F
:1030B00050F821000047000010B548F21004C2F299
:1030C00000042078062824BF00202070A078012862
:1030D00026D1A08890B301380104A08018BF10BD8C
:1030E000E07860706078062824BF00206070607807
:1030F0002178884211D060782070207800EB400160
:1031000044F2C810C0F6000050F8211029B121780F
:1031100001EB410150F8210080470020A07010BD54
:103120002078207844F2C81100EB4000C0F600017E
:1031300001EB80004068BDE810400047207820780F
:1031400044F2C81100EB4000C0F6000101EB800022
:10315000806880470120A08010BD000080B5FEF788
:103160000BFDBDE88040FFF7A7BD000000281EBF93
:1031700048F20C01C2F200010860704740F2000002
:103180004EF68851C0F60000CEF2000141F8800CE6
:1031900041F23000C4F2020048F2E4724261026877
:1031A00022F0020202604FF480324261086840F46B
:1031B000700008607047000080B549F6FF71C4F2E6
:1031C0000101884220DC4DF6FF71C4F20001884203
:1031D00042DD4EF20001C4F20001884208BF80BD0A
:1031E00048F20001C4F2010188425DD049F20001B9
:1031F000C4F2010188425FD1FFF7B4FC1C20BDE896
:103200008040FEF723BD00BF4AF6FF71C4F2020101
:10321000884235DD4BF20001C4F20201884261D0E0
:103220000021C4F20301884264D041F20001C4F2DB
:103230000301884240D1FFF781FC2420FEF706FD00
:103240002520FEF703FD2620FEF700FD2720BDE820
:103250008040FEF7FBBC00BF48F20001C4F2000151
:1032600088422FD049F20001C4F20001884223D1E4
:10327000FFF7DCFC1A20BDE88040FEF7E7BC00BF8A
:103280004AF20001C4F20101884223D04AF200014F
:10329000C4F2020188420FD1FFF78CFC1E20BDE86A
:1032A0008040FEF7D3BC00BFFFF734FC1B20BDE815
:1032B0008040FEF7CBBC00BF16A02A21BDE88040AD
:1032C00000F0B6B8FFF79EFC1920BDE88040FEF77D
:1032D000BDBC00BFFFF75AFC1D20BDE88040FEF7D3
:1032E000B5BC00BFFFF77AFC1F20BDE88040FEF7A9
:1032F000ADBC00BFFFF7AEFC2020FEF7A7FC2120ED
:10330000FEF7A4FC2220FEF7A1FC2320BDE88040AC
:10331000FEF79CBC746D725F6170702E63000000DC
:10332000FEE70000F0B589B041F260000025C4F26C
:10333000020048F63D21CDE90555CDE90755039535
:10334000ADF8105001958DF8085040F81C1C41F65E
:10335000EC1140F81C1C016848F2000421F40051F3
:1033600001600168C4F2030441F4805101604FF42C
:10337000003140F81C1C03204FF4807702268DF8A2
:10338000190005A92046ADF816708DF818508DF873
:103390001A60ADF81B708DF81D50FDF7B7F94FF4AA
:1033A0008170ADF80F0015208DF8110003A920469B
:1033B000ADF80C50FDF7CCFB4FF4E06001AD01908F
:1033C000204629468DF80860FDF70EFB4FF400609B
:1033D0000190204629468DF80860FDF705FB204640
:1033E000294601978DF80860FDF7FEFA4FF400704A
:1033F0000190204629468DF80860FDF7F5FA09B0DE
:10340000F0BD0000FFF78EBF48F20000C4F20300D9
:10341000016841F004010160D0F8001441F004019A
:10342000C0F80014416941F0020141617047000099
:1034300050B1044607A00D4600F038FC08A0214614
:103440002A4600F033FC00BF00BF00BF00BF00BF32
:10345000FAE700BF5B45404442475D2000000000A2
:10346000417373657274206661696C656420696E6E
:10347000202573206C696E652025750048F21801BF
:10348000C2F200010A786AB1012A0DD140F600614A
:10349000CEF20001D1F88020D2071CBF09685FEA94
:1034A000C17117D1704700BF4968002908BF704734
:1034B000CA6B520709D5CA6B520744BFCA6B5FEA91
:1034C000427202D5CA6B5207F2D402466FF35F22F2
:1034D0000A6270474FF060410A6862B900BF0A682B
:1034E0004AB900BF0A6832B900BF0A681AB900BFFA
:1034F0000A68002AF2D0087070470000F0B583B067
:1035000044F20005C4F202054FF4006005F5805452
:103510006E460027009020463146CDE90177FDF741
:10352000EFFB01208DF804004FF44F600090284617
:103530003146CDF80570FDF7E3FB4FF440400090B5
:1035400020463146FDF7DCFB284610210022FDF71E
:1035500069FD284620210022FDF764FD2846402110
:103560000022FDF75FFD284680210022FDF75AFD6D
:1035700028464FF480610022FDF754FD28464FF4A1
:1035800000610022FDF74EFD20464FF480410022ED
:10359000FDF748FD20464FF400410022FDF742FDB3
:1035A00003B0F0BD2DE9F04F9DB00DF104080446C5
:1035B000002740462C21CDE91277CDE91477CDE9DB
:1035C0001677CDE90C77CDE90E771097ADF84470FA
:1035D000FCF7F7FD2046FDF74BFF48F28449C2F2A5
:1035E0000009D9F8000012AEADF84E0040F201100B
:1035F00016902046092132468DF84D701497ADF88B
:1036000049708DF84B70CDE91877CDE91A77FEF740
:10361000B3F82020012518902046002132468DF86D
:1036200059708DF86D708DF84B508DF86870199742
:10363000FEF7A2F84FF0040A2046022132468DF828
:1036400068501997CDF860A04FF0020BFEF794F880
:10365000D9F80000D9E9031280080CAEADF83400A7
:10366000ADF83610ADF838202046092132468DF8E5
:103670003050ADF832508DF83B50FEF7ADF9204692
:10368000002132468DF83C70FEF7A6F92046022153
:103690003246FEF7A1F90820099010200A90204632
:1036A000002142460397CDE905BAADF81C708DF8AC
:1036B0001EB0ADF82C708DF82EB08DF804708DF81A
:1036C0000670FDF75BFF204602214246FDF756FFDC
:1036D0002046FDF715FE20460921FDF701FF204693
:1036E0000021FDF7FDFE20460221FDF7F9FE1DB089
:1036F000BDE8F08F70B594B048F27040C2F200009F
:1037000043F67F6140F67F44142240F69F732825DC
:1037100080E82E00046148F28440C2F2000040F2CA
:10372000DF1241F63F7342F21F1580E82E0001615F
:1037300048F298404BF20004C2F20000C4F20304C5
:1037400080E82E0001612046FFF72CFF0AAD2846D5
:103750002821FCF736FD40F20110ADF838004FF695
:10376000FF100026ADF82E00204601212A46ADF8B4
:1037700024600896CDE90666CDE90466CDE90266C7
:10378000FDF7FAFF4FF48030009002208DF80A0018
:103790004FF48070ADF808006A462046002101967B
:1037A000FDF778FC4FF4FA70ADF8180004AA204633
:1037B0000121FEF711F920460121FDF791FE14B019
:1037C00070BD00004BF61C70C4F20300016841F0AC
:1037D00033010160704700004BF20400C4F20300A3
:1037E000016841F0807141F47F0101607047000081
:1037F0004BF61870C4F20300016841F03301016018
:103800007047000086B04FF48171ADF804104CF29F
:10381000002141F26C00C0F6EB31C4F202000291CB
:10382000016811F5807F05D341F20020C0F27A00D3
:1038300002E000BF0068000A48F2100503904FF054
:103840000210C4F2000504900120ADF8140005F543
:10385000B83000F57F6001A9FFF72EF850B9029843
:10386000FFF784FC01200421FEF79CFA01200121CE
:10387000FEF764FB44F20004C4F20204FEF78AF986
:1038800004200426FEF742FA442002210122FEF71A
:10389000F7F9FFF733FEFFF72DFFFFF7B3FDFFF753
:1038A0009BFFA5F1100000F073F948F29C00C2F2F2
:1038B000000080F89863FFF7A7FD0120FFF7DCFB0D
:1038C0004FF4007628688005FCD520464FF48061CF
:1038D00001222E60FDF7A6FBFFF7EEFB20464FF41A
:1038E00080610022FDF79EFBECE7000048F2080033
:1038F000C2F2000090ED002AB7EE001AB4EE412AA1
:10390000F1EE10FA0EDA9FED720A32EE002AB7EEEF
:10391000000AB4EE402AF1EE10FAC8BFB0EE402A19
:1039200010E000BFB4EE412AF1EE10FA0ADD9FED7F
:10393000670A32EE002AB4EE412AF1EE10FAB8BF5F
:10394000B0EE412A80B5B4EE412ABEEE000AF1EE97
:1039500010FAC8BFB0EE412AB4EE402AB0EE403AA9
:10396000F1EE10FAC8BFB0EE423AB4EE413A80ED43
:10397000003AF1EE10FAC8BFB0EE413AB4EE403A68
:10398000F1EE10FAC8BFB0EE430AB5EE400AF1EE10
:1039900010FA21DD9FED511A9FED512A20EE011AF8
:1039A0009FED503A31EE021A83EE011AB6EE002A6C
:1039B0004FF0FF3131EE021ABCEEC11A11EE100ABF
:1039C0004FEA500E01EB5001A0F1010CB1F5F07F70
:1039D00098BF4FF4F07119E09FED3E1A9FED3E2A1B
:1039E00020EE011A31EE021ABCEEC11A11EE101AC5
:1039F000B1F5F07F98BF4FF4F07141F63F7081420E
:103A000028BF01464FF4FA5E43F67F6C48F28443C8
:103A1000B5EE400AC2F200034FF4F0700EF5F072FA
:103A20008E44F1EE10FAC3E900C0C3E90212C3F8F4
:103A300010E01FDD9FED291A9FED2A2A20EE010AD2
:103A40009FED271A4FF0FF3330EE010A82EE000A95
:103A5000B6EE001A30EE010ABCEEC00A10EE102AD3
:103A6000510803EB5203A2F1010EB3F5F07F88BFBA
:103A7000184618E09FED171A9FED172A20EE010A4D
:103A800030EE020ABCEEC00A10EE101AB1F5F07F5B
:103A900088BF084641F63F71884228BF08464FF468
:103AA000FA5143F67F6E48F29843C2F200034FF496
:103AB000F07C01F5F0720144C3E900ECC3E90202B5
:103AC0001961BDE8804000F0ECB800BFACC527B775
:103AD000ACC5273700F86A4600FCF9450050C3C75B
:103AE0000050434820BC3E4F70470000FFF76ABEBD
:103AF00070470000704700007047000070470000EA
:103B0000FFF776BE7047000048F21000C2F20000D6
:103B1000817803220029C27004BF0121817070479F
:103B2000FFF750BE7047000070470000704700006C
:103B30007047000048F21000C2F2000081780422B1
:103B40000029C27004BF01218170704748F224002F
:103B5000C2F20000002101607047000070470000C1
:103B600048F22400C2F2000090F90100002803D4BA
:103B70000A200121FFF750BA48F21000C2F20000FB
:103B8000817802220029C27004BF01218170704730
:103B900049F6FF71C4F20101884217DC4DF6FF714E
:103BA000C4F20001884227DD4EF20001C4F2000198
:103BB00088423AD048F20001C4F20101884234D070
:103BC00049F20001C4F201012CE000BF4AF6FF7186
:103BD000C4F2020188421BDD4BF20001C4F2020173
:103BE000884222D041F20001C4F2030188421CD075
:103BF0000021C4F2030115E048F20001C4F2000103
:103C0000884212D049F20001C4F200010AE000BF6C
:103C10004AF20001C4F20101884206D04AF20001D2
:103C2000C4F20201884218BF704710B586B004463E
:103C3000FFF7C2FA002063210190CDE9030005904F
:103C40000120029140F2E7318DF80400ADF80C102C
:103C50008DF80F008DF8100001A92046FFF72EF80F
:103C60004FF4007020614FF4807020612046FFF710
:103C700019F906B0BDE81040704740F2B91CC1F216
:103C8000000C604740F2D91CC1F2000C604740F2C2
:103C9000192CC1F2000C604740F2F91CC1F2000C73
:103CA000604740F2251CC1F2000C60470FB4054B81
:103CB00010B503A9044A029800F018F810BC5DF88A
:103CC00014FB00007D3400082880002002E008C8B2
:103CD000121F08C1002AFAD170477047002001E086
:103CE00001C1121F002AFBD1704700002DE9FF4FD0
:103CF0008DB00F460546002606E025280BD0DDE9ED
:103D00000F1290476D1C761C28780028F5D111B051
:103D10003046BDE8F08F0024A246A1460122EC49BE
:103D200000E0044315F8013F203B02FA03F008428B
:103D3000F7D128782A2810D06FF02F022878A0F128
:103D40003001092914D80AEB8A0102EB410144F041
:103D5000020400EB010A6D1CF0E701CF5FEA000AE4
:103D600003D544F40054CAF1000A44F002046D1C67
:103D700028782E2817D115F8010F44F004042A28BA
:103D80000ED06FF02F022878A0F1300109290AD84F
:103D900009EB890102EB410100EB01096D1CF2E71F
:103DA00057F8049B6D1C28786C280FD006DC4C2833
:103DB00017D068280DD06A2814D104E0742810D0D8
:103DC0007A280FD10DE044F400140AE044F4801482
:103DD00001E044F440146978814202D104F5801472
:103DE0006D1C6D1C2A786E2A1FD00CDC632A31D022
:103DF00004DC002A8BD0582A11D1A3E0642A68D0B1
:103E0000692A0CD165E0732A2ED004DC6F2A73D0A6
:103E1000702A04D19BE0752A6FD0782A6ED01046A4
:103E2000DDE90F129047761C50E1C4F302500228DE
:103E300006D0032809D0042801CF09D0066045E147
:103E400001CFF117C0E9006140E101CF06803DE1FB
:103E500006703BE117F8040B8DF8000000208DF888
:103E60000100EB46012003E057F804BB4FF0FF30A0
:103E700061074FF0000102D40DE008F1010188460E
:103E800049450FDA8045F8DB1BF808100029F4D10A
:103E900008E008F1010188468142FADB1BF80810AE
:103EA0000029F6D1DDE90F23AAEB0800814621465F
:103EB00000F036F9304400EB080604E0DDE90F12AB
:103EC0001BF8010B9047B8F10108F7D2214648468C
:103ED000F7E00A21C4F302534FF0000B0891022BC4
:103EE00004D001CFC117032B09D00AE0FF1D27F032
:103EF0000707F7E8020108E032E01FE020E000B227
:103F0000C117042B01D140B2C117031E71F1000388
:103F100007DA4FF0000CD0EB0C006CEB01012D2305
:103F200002E0230504D52B238DF82430012303E080
:103F3000E30701D02023F7E7984658E00A2110E074
:103F400010210EE010204FF0000B08900CE0102123
:103F50004FF0000B44F004044FF00809089103E00F
:103F600008214FF0000B0891C4F30253022B04D038
:103F700001CF0021032B06D006E0FF1D27F0070725
:103F8000F7E8020103E080B2042B00D1C0B24FF089
:103F9000000823072BD5702A07D0DDF820C08CF04D
:103FA000100C5CEA0B0C05D00EE040238DF8243099
:103FB000012308E050EA010306D030238DF82430B5
:103FC0008DF8252002239846DDF820C08CF0080CDF
:103FD0005CEA0B0C0BD150EA010301D1630706D553
:103FE00030238DF824304FF00108A9F10109582A37
:103FF00004D038A20B9208AA0A920BE03AA2F9E781
:104000005B46089AFCF79CFA0B9B9B5C0A9A521E33
:104010000A92137050EA0102F2D10A98ADEB000047
:1040200000F1200B600702D524F4803401E04FF04A
:104030000109D94502DDA9EB0B0000E0002000EBEF
:104040000B0141440890AAEB010AE00306D4DDE924
:104050000F232146504600F063F806444FF0000954
:1040600008E009A911F80900DDE90F12904709F1EC
:104070000109761CC145F4DBE0030CD5DDE90F2313
:104080002146504600F04CF8064404E0DDE90F12EA
:1040900030209047761C0899481E08900029F5DCCE
:1040A00008E00A980A990078491C0A91DDE90F1284
:1040B0009047761CBBF10001ABF1010BF1DC21460E
:1040C0005046DDE90F2300F019F806446D1C1BE68D
:1040D00009280100303132333435363738396162DE
:1040E00063646566000000003031323334353637A2
:1040F0003839414243444546000000002DE9F04173
:10410000044600251E461746880404D405E03946B7
:104110002020B0476D1C641EF9D52846BDE8F0810B
:104120002DE9F041044600251E469046C80301D5FE
:10413000302700E02027880404D505E041463846B2
:10414000B0476D1C641EF9D52846BDE8F08100001B
:1041500010B5044601E0FFF791F914F8010B04498A
:104160000028F8D1BDE810400A20FFF787B9000009
:1041700028800020310C00085D0C0008610C00084C
:10418000650C0008690C00086D0C0008710C000833
:10419000750C0008790C00087D0C0008350C00082F
:1041A000390C00083D0C0008410C0008450C0008C3
:1041B000490C00084D0C0008510C0008550C000873
:1041C000590C000800000000F53A0008FD3A00080C
:1041D000F93A00084D3B0008613B00085D3B0008D0
:1041E000013B0008093B0008053B00082D3B000887
:1041F000353B0008313B0008E93A0008F13A000875
:10420000ED3A0008213B0008293B0008253B000847
:1042100000127A00002A75150100160000800000C7
:10422000030000000200000000127A000057A616EA
:104230000100170000C000000300000002000000A1
:1042400000127A000084D717010019000000000056
:10425000030000000200000000127A0000B10819FB
:1042600001001A00004000000300000002000000EE
:1042700000127A0000DE391A01001B0000800000E5
:10428000030000000200000000127A00000B6B1B0C
:1042900001001C0000C0000003000000020000003C
:1042A00000127A0000389C1C01001E000000000073
:1042B0000300000002000000001BB700002A751573
:1042C00001000F00000000000300000002000000D9
:1042D000001BB7000057A61601000F0055D50000BF
:1042E0000300000002000000001BB7000084D71785
:1042F00001001000AAAA0000030000000200000054
:10430000001BB70000B10819010011000080000077
:104310000300000002000000001BB70000DE391A95
:1043200001001200555500000300000002000000CB
:10433000001BB700000B6B1B01001300AA2A000032
:104340000300000002000000001BB70000389C1CA6
:104350000100140000000000030000000200000043
:1043600000127A0000E1F50501000600004000009F
:10437000000000000200000000127A0080778E0624
:104380000100060000E00000000000000200000044
:1043900000127A00000E27070100070000800000CD
:1043A000000000000200000000127A0080A4BF0795
:1043B00001000800002000000000000002000000D2
:1043C00000127A00003B58080100080000C00000FD
:1043D000000000000200000000127A0080D1F00806
:1043E0000100090000600000000000000200000061
:1043F00000127A000068890901000A00000000002C
:10440000000000000200000000127A0080FE210A75
:1044100001000A0000A000000000000002000000EF
:1044200000127A000095BA0A01000B00004000005B
:10443000000000000200000000127A00802B530BE5
:1044400001000B0000E0000000000000020000007E
:1044500000127A0000C2EB0B01000C00008000008B
:10446000000000000200000000127A008058840C56
:1044700001000D000020000001000000020000000B
:1044800000127A0000EF1C0D01000D0000C00000BA
:10449000010000000200000000127A008085B50DC6
:1044A00001000E000060000001000000020000009A
:1044B0002E2E2F2E2E2F2E2E2F447269766572737C
:1044C0002F544145333247353878785F44726976E6
:1044D00065722F5372632F74616533326735387894
:1044E000785F6C6C5F636F727465782E6300446FE5
:1044F0006E2774206D6174636820706C6C305F6926
:104500006E5F667265712D5B25755D20746F206727
:10451000656E657261746520706C6C305F6F757468
:104520005F667265712D5B25755D2C20706C656111
:104530007365206164642074686520636F6E6669CA
:104540006720746F207263755F706C6C5F63666761
:10455000206172726179210A005B45405243552007
:104560004C4C5D20002E2E2F2E2E2F2E2E2F4472DF
:1045700069766572732F5441453332473538787800
:104580005F4472697665722F5372632F746165336D
:104590003267353878785F6C6C5F7263752E6300B4
:1045A0002E2E2F2E2E2F2E2E2F447269766572738B
:1045B0002F544145333247353878785F44726976F5
:1045C00065722F5372632F746165333267353878A3
:1045D000785F6C6C5F6770696F2E6300496E7661FF
:1045E0006C69642043617074757265204368616E04
:1045F0006E656C2D5B25645D210A005B4540544D62
:1046000052204C4C5D20002E2E2F2E2E2F2E2E2F82
:10461000447269766572732F544145333247353899
:1046200078785F4472697665722F5372632F746174
:1046300065333267353878785F6C6C5F746D722ED5
:1046400063005B4540414443204C4C5D20002E2ECE
:104650002F2E2E2F2E2E2F447269766572732F54B3
:104660004145333247353878785F447269766572F0
:104670002F5372632F746165333267353878785FF2
:104680006C6C5F6164632E63002E2E2F2E2E2F2EF6
:104690002E2F447269766572732F54414533324729
:1046A000353878785F4472697665722F5372632F5C
:1046B000746165333267353878785F6C6C5F687227
:1046C00070776D2E63000000F846000800000010AF
:1046D000D4020000CC3C0008CC4900080080002037
:1046E00010000000CC3C0008DC49000810800020CD
:1046F000A0040000DC3C0008704700BF704700BF0A
:104700004CF2000144F2000CC4F200014AF6AA2265
:10471000C4F2020C0A604FF40061CCF8001048F2B9
:104720009C01C2F2000191ED050AB3EE041A91F862
:10473000AC23B4EE410AF1EE10FA53DD91F8983350
:10474000042B4FD1002A4DD191ED0B2A91ED0C3A5B
:10475000B4EE432AF1EE10FA0EDDB1F8B023531C8B
:104760000022A1F8B033A1F8B22318B242F21073BC
:1047700098422DDA36E000BFB4EE432AF1EE10FA8B
:1047800002DDB1F8B22307E0B1F8B2330022A1F89C
:10479000B0235A1CA1F8B22313B242F20F72934213
:1047A0004FF0000242F21070C8BF012283424FF066
:1047B000000306DB0120A1F8B23381F8AE03A1F8B3
:1047C000AC03B1F8B03318B242F21073984209DB6F
:1047D0000020A1F8B00381F8AE0340F201100122DD
:1047E000A1F8AC03B4EE410AF1EE10FA06DDD007F1
:1047F00004D04FF00060CCF8000070470020C1F8F2
:104800004403C1F82C03C1E91600C1F86803C1F8DC
:1048100050034FF00060CCF80000704770B54BF6C5
:10482000007EC4F2030EDEF8002048F2FF1C42EACC
:104830000C02CEF8002000BF00BF00BF00BF48F24E
:10484000844200BFC2F20002D2E90031D2E9020480
:104850004BF21405C4F20305C5F80811C5F80C01A4
:10486000C5F810411069C5F8140148F29840C5F820
:104870000031C2F2000090E85600C5F80823C5F8E0
:104880000C43C5F810630069C5F814039808C5F80F
:1048900000132B60E86000BF00BF00BF00BF00BF77
:1048A000DEF8000020EA0C00CEF8000070BD00BF6A
:1048B00048F29C00C2F20000C18841F00101C180B1
:1048C000052180F89813012180F84C10704700BF33
:1048D00048F29C00C2F20000C18841F00201C18090
:1048E000052180F89813012180F84C10704700BF13
:1048F00048F29C00C2F20000C18841F00401C1806E
:10490000052180F89813012180F84C10704700BFF2
:1049100048F29C00C2F20000C18841F00801C18049
:10492000052180F89813012180F84C107047000091
:10493000B0B544F20004C4F2020448F21005204667
:104940004FF400610122C4F2030500F02FF86968FA
:104950002868890706D510F0020003D002202860DD
:1049600000F029F820464FF400610022BDE8B04075
:1049700000F01CB84CF20001C4F200014AF6AA2271
:1049800001F53C300A6000F01BB800BF4BF2080094
:10499000C4F2030042680168D20714BF11F001019C
:1049A0007047012140F80819FFF7AABE41F2250C13
:1049B000C0F6000C604743F6ED0CC0F6000C6047F3
:1049C00041F2513CC0F6000C6047000001000000BD
:0C49D0000F000000000000BF00127A0081
:04000005080001A14D
:00000001FF
